{
  "_format": "hh-sol-artifact-1",
  "contractName": "BidChain",
  "sourceName": "contracts/e-procurement.sol",
  "abi": [
    {
      "inputs": [],
      "stateMutability": "nonpayable",
      "type": "constructor"
    },
    {
      "anonymous": false,
      "inputs": [
        {
          "indexed": true,
          "internalType": "address",
          "name": "contractor",
          "type": "address"
        },
        {
          "indexed": false,
          "internalType": "uint256",
          "name": "amount",
          "type": "uint256"
        },
        {
          "indexed": false,
          "internalType": "string",
          "name": "ipfsHash",
          "type": "string"
        }
      ],
      "name": "BidSubmitted",
      "type": "event"
    },
    {
      "anonymous": false,
      "inputs": [
        {
          "indexed": false,
          "internalType": "address",
          "name": "contractorAddress",
          "type": "address"
        },
        {
          "indexed": false,
          "internalType": "string",
          "name": "companyName",
          "type": "string"
        },
        {
          "indexed": false,
          "internalType": "string",
          "name": "email",
          "type": "string"
        }
      ],
      "name": "ContractorDeleted",
      "type": "event"
    },
    {
      "anonymous": false,
      "inputs": [
        {
          "indexed": false,
          "internalType": "address",
          "name": "contractorAddress",
          "type": "address"
        },
        {
          "indexed": false,
          "internalType": "string",
          "name": "companyName",
          "type": "string"
        },
        {
          "indexed": false,
          "internalType": "string",
          "name": "email",
          "type": "string"
        }
      ],
      "name": "ContractorRegistered",
      "type": "event"
    },
    {
      "anonymous": false,
      "inputs": [
        {
          "indexed": false,
          "internalType": "address",
          "name": "contractorAddress",
          "type": "address"
        },
        {
          "indexed": false,
          "internalType": "string",
          "name": "companyName",
          "type": "string"
        },
        {
          "indexed": false,
          "internalType": "string",
          "name": "email",
          "type": "string"
        }
      ],
      "name": "ContractorRegistrationRequested",
      "type": "event"
    },
    {
      "anonymous": false,
      "inputs": [
        {
          "indexed": false,
          "internalType": "string",
          "name": "description",
          "type": "string"
        },
        {
          "indexed": false,
          "internalType": "string",
          "name": "noticeDocumentHash",
          "type": "string"
        },
        {
          "indexed": false,
          "internalType": "uint256",
          "name": "endTime",
          "type": "uint256"
        },
        {
          "indexed": false,
          "internalType": "int256",
          "name": "additionalInfo",
          "type": "int256"
        }
      ],
      "name": "TenderOpened",
      "type": "event"
    },
    {
      "anonymous": false,
      "inputs": [
        {
          "indexed": true,
          "internalType": "address",
          "name": "winner",
          "type": "address"
        },
        {
          "indexed": false,
          "internalType": "uint256",
          "name": "winningBid",
          "type": "uint256"
        },
        {
          "indexed": false,
          "internalType": "string",
          "name": "winnerDocumentHash",
          "type": "string"
        }
      ],
      "name": "WinnerAnnounced",
      "type": "event"
    },
    {
      "inputs": [],
      "name": "activeTender",
      "outputs": [
        {
          "internalType": "string",
          "name": "description",
          "type": "string"
        },
        {
          "internalType": "string",
          "name": "noticeDocumentHash",
          "type": "string"
        },
        {
          "internalType": "uint256",
          "name": "submissionEndTime",
          "type": "uint256"
        },
        {
          "internalType": "bool",
          "name": "isOpen",
          "type": "bool"
        },
        {
          "internalType": "address",
          "name": "winner",
          "type": "address"
        },
        {
          "internalType": "int256",
          "name": "additionalInfo",
          "type": "int256"
        }
      ],
      "stateMutability": "view",
      "type": "function"
    },
    {
      "inputs": [
        {
          "internalType": "uint256",
          "name": "",
          "type": "uint256"
        }
      ],
      "name": "addressList",
      "outputs": [
        {
          "internalType": "address",
          "name": "",
          "type": "address"
        }
      ],
      "stateMutability": "view",
      "type": "function"
    },
    {
      "inputs": [
        {
          "internalType": "address",
          "name": "_winner",
          "type": "address"
        }
      ],
      "name": "announceWinner",
      "outputs": [],
      "stateMutability": "nonpayable",
      "type": "function"
    },
    {
      "inputs": [
        {
          "internalType": "uint256",
          "name": "",
          "type": "uint256"
        }
      ],
      "name": "bidderAddresses",
      "outputs": [
        {
          "internalType": "address",
          "name": "",
          "type": "address"
        }
      ],
      "stateMutability": "view",
      "type": "function"
    },
    {
      "inputs": [
        {
          "internalType": "address",
          "name": "",
          "type": "address"
        }
      ],
      "name": "bids",
      "outputs": [
        {
          "internalType": "uint256",
          "name": "amount",
          "type": "uint256"
        },
        {
          "internalType": "string",
          "name": "ipfsHash",
          "type": "string"
        },
        {
          "internalType": "string",
          "name": "encryptedKeyHash",
          "type": "string"
        },
        {
          "internalType": "bool",
          "name": "submitted",
          "type": "bool"
        },
        {
          "internalType": "bool",
          "name": "isWinner",
          "type": "bool"
        }
      ],
      "stateMutability": "view",
      "type": "function"
    },
    {
      "inputs": [],
      "name": "cancelTender",
      "outputs": [],
      "stateMutability": "nonpayable",
      "type": "function"
    },
    {
      "inputs": [],
      "name": "closeExpiredTender",
      "outputs": [],
      "stateMutability": "nonpayable",
      "type": "function"
    },
    {
      "inputs": [
        {
          "internalType": "address",
          "name": "",
          "type": "address"
        }
      ],
      "name": "contractors",
      "outputs": [
        {
          "internalType": "address",
          "name": "contractorAddress",
          "type": "address"
        },
        {
          "internalType": "string",
          "name": "companyName",
          "type": "string"
        },
        {
          "internalType": "string",
          "name": "email",
          "type": "string"
        },
        {
          "internalType": "bool",
          "name": "isRegistered",
          "type": "bool"
        }
      ],
      "stateMutability": "view",
      "type": "function"
    },
    {
      "inputs": [
        {
          "internalType": "address",
          "name": "_contractorAddress",
          "type": "address"
        }
      ],
      "name": "deleteRegisteredContractor",
      "outputs": [],
      "stateMutability": "nonpayable",
      "type": "function"
    },
    {
      "inputs": [],
      "name": "getBidderAddresses",
      "outputs": [
        {
          "internalType": "address[]",
          "name": "",
          "type": "address[]"
        }
      ],
      "stateMutability": "view",
      "type": "function"
    },
    {
      "inputs": [],
      "name": "getContractOwner",
      "outputs": [
        {
          "internalType": "address",
          "name": "",
          "type": "address"
        }
      ],
      "stateMutability": "view",
      "type": "function"
    },
    {
      "inputs": [],
      "name": "getPendingContractors",
      "outputs": [
        {
          "components": [
            {
              "internalType": "address",
              "name": "contractorAddress",
              "type": "address"
            },
            {
              "internalType": "string",
              "name": "companyName",
              "type": "string"
            },
            {
              "internalType": "string",
              "name": "email",
              "type": "string"
            },
            {
              "internalType": "bool",
              "name": "isRegistered",
              "type": "bool"
            }
          ],
          "internalType": "struct BidChain.Contractor[]",
          "name": "",
          "type": "tuple[]"
        }
      ],
      "stateMutability": "view",
      "type": "function"
    },
    {
      "inputs": [],
      "name": "getRegisteredContractors",
      "outputs": [
        {
          "components": [
            {
              "internalType": "address",
              "name": "contractorAddress",
              "type": "address"
            },
            {
              "internalType": "string",
              "name": "companyName",
              "type": "string"
            },
            {
              "internalType": "string",
              "name": "email",
              "type": "string"
            },
            {
              "internalType": "bool",
              "name": "isRegistered",
              "type": "bool"
            }
          ],
          "internalType": "struct BidChain.Contractor[]",
          "name": "",
          "type": "tuple[]"
        }
      ],
      "stateMutability": "view",
      "type": "function"
    },
    {
      "inputs": [],
      "name": "getWinnerDetails",
      "outputs": [
        {
          "internalType": "address",
          "name": "",
          "type": "address"
        },
        {
          "internalType": "uint256",
          "name": "",
          "type": "uint256"
        },
        {
          "internalType": "string",
          "name": "",
          "type": "string"
        }
      ],
      "stateMutability": "view",
      "type": "function"
    },
    {
      "inputs": [
        {
          "internalType": "address",
          "name": "_contractor",
          "type": "address"
        }
      ],
      "name": "hasContractorSubmittedBid",
      "outputs": [
        {
          "internalType": "bool",
          "name": "",
          "type": "bool"
        }
      ],
      "stateMutability": "view",
      "type": "function"
    },
    {
      "inputs": [
        {
          "internalType": "address",
          "name": "",
          "type": "address"
        }
      ],
      "name": "hasSubmittedBid",
      "outputs": [
        {
          "internalType": "bool",
          "name": "",
          "type": "bool"
        }
      ],
      "stateMutability": "view",
      "type": "function"
    },
    {
      "inputs": [],
      "name": "isTenderOpen",
      "outputs": [
        {
          "internalType": "bool",
          "name": "",
          "type": "bool"
        }
      ],
      "stateMutability": "view",
      "type": "function"
    },
    {
      "inputs": [
        {
          "internalType": "string",
          "name": "_description",
          "type": "string"
        },
        {
          "internalType": "string",
          "name": "_noticeDocumentHash",
          "type": "string"
        },
        {
          "internalType": "uint256",
          "name": "_duration",
          "type": "uint256"
        }
      ],
      "name": "openTender",
      "outputs": [],
      "stateMutability": "nonpayable",
      "type": "function"
    },
    {
      "inputs": [],
      "name": "owner",
      "outputs": [
        {
          "internalType": "address",
          "name": "",
          "type": "address"
        }
      ],
      "stateMutability": "view",
      "type": "function"
    },
    {
      "inputs": [
        {
          "internalType": "address",
          "name": "",
          "type": "address"
        }
      ],
      "name": "pendingContractors",
      "outputs": [
        {
          "internalType": "address",
          "name": "contractorAddress",
          "type": "address"
        },
        {
          "internalType": "string",
          "name": "companyName",
          "type": "string"
        },
        {
          "internalType": "string",
          "name": "email",
          "type": "string"
        },
        {
          "internalType": "bool",
          "name": "isRegistered",
          "type": "bool"
        }
      ],
      "stateMutability": "view",
      "type": "function"
    },
    {
      "inputs": [
        {
          "internalType": "address",
          "name": "_contractorAddress",
          "type": "address"
        }
      ],
      "name": "registerContractor",
      "outputs": [],
      "stateMutability": "nonpayable",
      "type": "function"
    },
    {
      "inputs": [
        {
          "internalType": "uint256",
          "name": "",
          "type": "uint256"
        }
      ],
      "name": "registeredContractors",
      "outputs": [
        {
          "internalType": "address",
          "name": "",
          "type": "address"
        }
      ],
      "stateMutability": "view",
      "type": "function"
    },
    {
      "inputs": [
        {
          "internalType": "uint256",
          "name": "_amount",
          "type": "uint256"
        },
        {
          "internalType": "string",
          "name": "_ipfsHash",
          "type": "string"
        },
        {
          "internalType": "string",
          "name": "_encryptedKeyHash",
          "type": "string"
        }
      ],
      "name": "submitBid",
      "outputs": [],
      "stateMutability": "nonpayable",
      "type": "function"
    },
    {
      "inputs": [
        {
          "internalType": "string",
          "name": "_companyName",
          "type": "string"
        },
        {
          "internalType": "string",
          "name": "_email",
          "type": "string"
        }
      ],
      "name": "submitRegistrationRequest",
      "outputs": [],
      "stateMutability": "nonpayable",
      "type": "function"
    },
    {
      "inputs": [],
      "name": "viewActiveTenderDetails",
      "outputs": [
        {
          "internalType": "string",
          "name": "description",
          "type": "string"
        },
        {
          "internalType": "string",
          "name": "noticeDocumentHash",
          "type": "string"
        },
        {
          "internalType": "uint256",
          "name": "submissionEndTime",
          "type": "uint256"
        },
        {
          "internalType": "int256",
          "name": "additionalInfo",
          "type": "int256"
        },
        {
          "internalType": "bool",
          "name": "isOpen",
          "type": "bool"
        }
      ],
      "stateMutability": "view",
      "type": "function"
    },
    {
      "inputs": [],
      "name": "viewSubmittedBids",
      "outputs": [
        {
          "internalType": "address[]",
          "name": "",
          "type": "address[]"
        },
        {
          "internalType": "uint256[]",
          "name": "",
          "type": "uint256[]"
        },
        {
          "internalType": "string[]",
          "name": "",
          "type": "string[]"
        },
        {
          "internalType": "string[]",
          "name": "",
          "type": "string[]"
        }
      ],
      "stateMutability": "view",
      "type": "function"
    }
  ],
  "bytecode": "0x6080604052348015600f57600080fd5b50336000806101000a81548173ffffffffffffffffffffffffffffffffffffffff021916908373ffffffffffffffffffffffffffffffffffffffff160217905550614fe48061005f6000396000f3fe608060405234801561001057600080fd5b506004361061018e5760003560e01c80638d16e785116100de578063b810fb4311610097578063c75e97c511610071578063c75e97c51461045d578063e35569a61461048d578063e6a20c82146104c0578063ec39335f146104f35761018e565b8063b810fb43146103f3578063b8da1b0c14610423578063c27677e21461043f5761018e565b80638d16e7851461034d5780638da5cb5b146103705780639ac7fa141461038e5780639f0521b8146103af578063ad5bc477146103cd578063b366a473146103e95761018e565b806362d783351161014b578063713c83b311610125578063713c83b3146102e75780637cd12899146103035780637ea942c8146103255780638bf738ff1461032f5761018e565b806362d783351461026757806362ea82db146102835780636a1738de146102b75761018e565b80630430427c146101935780630d7e8140146101af5780632561a429146101df5780632fb3c48f146101fb5780633db9cd891461022b578063442890d514610249575b600080fd5b6101ad60048036038101906101a89190613bc9565b610513565b005b6101c960048036038101906101c49190613cb2565b610899565b6040516101d69190613cfa565b60405180910390f35b6101f960048036038101906101f49190613cb2565b6108ef565b005b61021560048036038101906102109190613d15565b610e5f565b6040516102229190613d51565b60405180910390f35b610233610e9e565b6040516102409190613cfa565b60405180910390f35b610251610eb8565b60405161025e9190613d51565b60405180910390f35b610281600480360381019061027c9190613d6c565b610ee1565b005b61029d60048036038101906102989190613cb2565b611255565b6040516102ae959493929190613e85565b60405180910390f35b6102d160048036038101906102cc9190613d15565b6113b5565b6040516102de9190613d51565b60405180910390f35b61030160048036038101906102fc9190613ee6565b6113f4565b005b61030b611688565b60405161031c959493929190613f77565b60405180910390f35b61032d611918565b005b610337611a52565b604051610344919061416c565b60405180910390f35b610355611ef4565b6040516103679695949392919061418e565b60405180910390f35b61037861205b565b6040516103859190613d51565b60405180910390f35b61039661207f565b6040516103a6949392919061442c565b60405180910390f35b6103b76125ea565b6040516103c4919061416c565b60405180910390f35b6103e760048036038101906103e29190613cb2565b6128aa565b005b6103f1612e15565b005b61040d60048036038101906104089190613d15565b6130c1565b60405161041a9190613d51565b60405180910390f35b61043d60048036038101906104389190613cb2565b613100565b005b6104476133ba565b604051610454919061448d565b60405180910390f35b61047760048036038101906104729190613cb2565b613448565b6040516104849190613cfa565b60405180910390f35b6104a760048036038101906104a29190613cb2565b613468565b6040516104b794939291906144af565b60405180910390f35b6104da60048036038101906104d59190613cb2565b6135d5565b6040516104ea94939291906144af565b60405180910390f35b6104fb613742565b60405161050a93929190614502565b60405180910390f35b60008054906101000a900473ffffffffffffffffffffffffffffffffffffffff1673ffffffffffffffffffffffffffffffffffffffff163373ffffffffffffffffffffffffffffffffffffffff16146105a1576040517f08c379a00000000000000000000000000000000000000000000000000000000081526004016105989061458c565b60405180910390fd5b600160030160009054906101000a900460ff16156105f4576040517f08c379a00000000000000000000000000000000000000000000000000000000081526004016105eb906145f8565b60405180910390fd5b60005b600b8054905081101561073f576000600b828154811061061a57610619614618565b5b9060005260206000200160009054906101000a900473ffffffffffffffffffffffffffffffffffffffff1690506000600960008373ffffffffffffffffffffffffffffffffffffffff1673ffffffffffffffffffffffffffffffffffffffff16815260200190815260200160002060006101000a81548160ff021916908315150217905550600760008273ffffffffffffffffffffffffffffffffffffffff1673ffffffffffffffffffffffffffffffffffffffff1681526020019081526020016000206000808201600090556001820160006106f7919061397b565b600282016000610707919061397b565b6003820160006101000a81549060ff02191690556003820160016101000a81549060ff021916905550505080806001019150506105f7565b50600b600061074e91906139bb565b6040518060c0016040528084815260200183815260200182426107719190614676565b8152602001600115158152602001600073ffffffffffffffffffffffffffffffffffffffff1681526020016000815250600160008201518160000190816107b891906148b6565b5060208201518160010190816107ce91906148b6565b506040820151816002015560608201518160030160006101000a81548160ff02191690831515021790555060808201518160030160016101000a81548173ffffffffffffffffffffffffffffffffffffffff021916908373ffffffffffffffffffffffffffffffffffffffff16021790555060a082015181600401559050507f0c933c861f93878dd04b07a9cd98e725df697e7d1095846f00b18219e4f17ce9838360016002015460016004015460405161088c9493929190614988565b60405180910390a1505050565b6000600960008373ffffffffffffffffffffffffffffffffffffffff1673ffffffffffffffffffffffffffffffffffffffff16815260200190815260200160002060009054906101000a900460ff169050919050565b60008054906101000a900473ffffffffffffffffffffffffffffffffffffffff1673ffffffffffffffffffffffffffffffffffffffff163373ffffffffffffffffffffffffffffffffffffffff161461097d576040517f08c379a00000000000000000000000000000000000000000000000000000000081526004016109749061458c565b60405180910390fd5b600073ffffffffffffffffffffffffffffffffffffffff16600860008373ffffffffffffffffffffffffffffffffffffffff1673ffffffffffffffffffffffffffffffffffffffff16815260200190815260200160002060000160009054906101000a900473ffffffffffffffffffffffffffffffffffffffff1673ffffffffffffffffffffffffffffffffffffffff1603610a4e576040517f08c379a0000000000000000000000000000000000000000000000000000000008152600401610a4590614a27565b60405180910390fd5b6000600860008373ffffffffffffffffffffffffffffffffffffffff1673ffffffffffffffffffffffffffffffffffffffff1681526020019081526020016000206040518060800160405290816000820160009054906101000a900473ffffffffffffffffffffffffffffffffffffffff1673ffffffffffffffffffffffffffffffffffffffff1673ffffffffffffffffffffffffffffffffffffffff168152602001600182018054610b00906146d9565b80601f0160208091040260200160405190810160405280929190818152602001828054610b2c906146d9565b8015610b795780601f10610b4e57610100808354040283529160200191610b79565b820191906000526020600020905b815481529060010190602001808311610b5c57829003601f168201915b50505050508152602001600282018054610b92906146d9565b80601f0160208091040260200160405190810160405280929190818152602001828054610bbe906146d9565b8015610c0b5780601f10610be057610100808354040283529160200191610c0b565b820191906000526020600020905b815481529060010190602001808311610bee57829003601f168201915b505050505081526020016003820160009054906101000a900460ff1615151515815250509050600181606001901515908115158152505080600660008473ffffffffffffffffffffffffffffffffffffffff1673ffffffffffffffffffffffffffffffffffffffff16815260200190815260200160002060008201518160000160006101000a81548173ffffffffffffffffffffffffffffffffffffffff021916908373ffffffffffffffffffffffffffffffffffffffff1602179055506020820151816001019081610cde91906148b6565b506040820151816002019081610cf491906148b6565b5060608201518160030160006101000a81548160ff021916908315150217905550905050600c829080600181540180825580915050600190039060005260206000200160009091909190916101000a81548173ffffffffffffffffffffffffffffffffffffffff021916908373ffffffffffffffffffffffffffffffffffffffff160217905550600860008373ffffffffffffffffffffffffffffffffffffffff1673ffffffffffffffffffffffffffffffffffffffff168152602001908152602001600020600080820160006101000a81549073ffffffffffffffffffffffffffffffffffffffff0219169055600182016000610df2919061397b565b600282016000610e02919061397b565b6003820160006101000a81549060ff021916905550507f48db77b84f62eb159d6efadc8200961208efc86642bbcf53531aefb6615c88ca8282602001518360400151604051610e5393929190614a47565b60405180910390a15050565b600b8181548110610e6f57600080fd5b906000526020600020016000915054906101000a900473ffffffffffffffffffffffffffffffffffffffff1681565b6000600160030160009054906101000a900460ff16905090565b60008060009054906101000a900473ffffffffffffffffffffffffffffffffffffffff16905090565b600660003373ffffffffffffffffffffffffffffffffffffffff1673ffffffffffffffffffffffffffffffffffffffff16815260200190815260200160002060030160009054906101000a900460ff16610f70576040517f08c379a0000000000000000000000000000000000000000000000000000000008152600401610f6790614ad8565b60405180910390fd5b6001600201544211158015610f945750600160030160009054906101000a900460ff165b610fd3576040517f08c379a0000000000000000000000000000000000000000000000000000000008152600401610fca90614b44565b60405180910390fd5b600960003373ffffffffffffffffffffffffffffffffffffffff1673ffffffffffffffffffffffffffffffffffffffff16815260200190815260200160002060009054906101000a900460ff1615611060576040517f08c379a000000000000000000000000000000000000000000000000000000000815260040161105790614bb0565b60405180910390fd5b6040518060a0016040528084815260200183815260200182815260200160011515815260200160001515815250600760003373ffffffffffffffffffffffffffffffffffffffff1673ffffffffffffffffffffffffffffffffffffffff1681526020019081526020016000206000820151816000015560208201518160010190816110eb91906148b6565b50604082015181600201908161110191906148b6565b5060608201518160030160006101000a81548160ff02191690831515021790555060808201518160030160016101000a81548160ff0219169083151502179055509050506001600960003373ffffffffffffffffffffffffffffffffffffffff1673ffffffffffffffffffffffffffffffffffffffff16815260200190815260200160002060006101000a81548160ff021916908315150217905550600b339080600181540180825580915050600190039060005260206000200160009091909190916101000a81548173ffffffffffffffffffffffffffffffffffffffff021916908373ffffffffffffffffffffffffffffffffffffffff1602179055503373ffffffffffffffffffffffffffffffffffffffff167f3eb2fab71a1de5753e125aa7b47368bd108ec2bff6e86e69cb009d365ba2f2718484604051611248929190614bd0565b60405180910390a2505050565b600760205280600052604060002060009150905080600001549080600101805461127e906146d9565b80601f01602080910402602001604051908101604052809291908181526020018280546112aa906146d9565b80156112f75780601f106112cc576101008083540402835291602001916112f7565b820191906000526020600020905b8154815290600101906020018083116112da57829003601f168201915b50505050509080600201805461130c906146d9565b80601f0160208091040260200160405190810160405280929190818152602001828054611338906146d9565b80156113855780601f1061135a57610100808354040283529160200191611385565b820191906000526020600020905b81548152906001019060200180831161136857829003601f168201915b5050505050908060030160009054906101000a900460ff16908060030160019054906101000a900460ff16905085565b600c81815481106113c557600080fd5b906000526020600020016000915054906101000a900473ffffffffffffffffffffffffffffffffffffffff1681565b600073ffffffffffffffffffffffffffffffffffffffff16600860003373ffffffffffffffffffffffffffffffffffffffff1673ffffffffffffffffffffffffffffffffffffffff16815260200190815260200160002060000160009054906101000a900473ffffffffffffffffffffffffffffffffffffffff1673ffffffffffffffffffffffffffffffffffffffff161480156114985750611496336138d3565b155b6114d7576040517f08c379a00000000000000000000000000000000000000000000000000000000081526004016114ce90614c98565b60405180910390fd5b60405180608001604052803373ffffffffffffffffffffffffffffffffffffffff16815260200183815260200182815260200160001515815250600860003373ffffffffffffffffffffffffffffffffffffffff1673ffffffffffffffffffffffffffffffffffffffff16815260200190815260200160002060008201518160000160006101000a81548173ffffffffffffffffffffffffffffffffffffffff021916908373ffffffffffffffffffffffffffffffffffffffff16021790555060208201518160010190816115ac91906148b6565b5060408201518160020190816115c291906148b6565b5060608201518160030160006101000a81548160ff021916908315150217905550905050600a339080600181540180825580915050600190039060005260206000200160009091909190916101000a81548173ffffffffffffffffffffffffffffffffffffffff021916908373ffffffffffffffffffffffffffffffffffffffff1602179055507f42e1ca0950bf6539d4204c340755718403c9f9db5e3152ba6a4aa765d784cff633838360405161167c93929190614a47565b60405180910390a15050565b6060806000806000600160030160009054906101000a900460ff166116e2576040517f08c379a00000000000000000000000000000000000000000000000000000000081526004016116d990614d04565b60405180910390fd5b600660003373ffffffffffffffffffffffffffffffffffffffff1673ffffffffffffffffffffffffffffffffffffffff16815260200190815260200160002060030160009054906101000a900460ff1680611788575060008054906101000a900473ffffffffffffffffffffffffffffffffffffffff1673ffffffffffffffffffffffffffffffffffffffff163373ffffffffffffffffffffffffffffffffffffffff16145b6117c7576040517f08c379a00000000000000000000000000000000000000000000000000000000081526004016117be9061458c565b60405180910390fd5b600160000160018001600160020154600160040154600160030160009054906101000a900460ff168480546117fb906146d9565b80601f0160208091040260200160405190810160405280929190818152602001828054611827906146d9565b80156118745780601f1061184957610100808354040283529160200191611874565b820191906000526020600020905b81548152906001019060200180831161185757829003601f168201915b50505050509450838054611887906146d9565b80601f01602080910402602001604051908101604052809291908181526020018280546118b3906146d9565b80156119005780601f106118d557610100808354040283529160200191611900565b820191906000526020600020905b8154815290600101906020018083116118e357829003601f168201915b50505050509350945094509450945094509091929394565b60008054906101000a900473ffffffffffffffffffffffffffffffffffffffff1673ffffffffffffffffffffffffffffffffffffffff163373ffffffffffffffffffffffffffffffffffffffff16146119a6576040517f08c379a000000000000000000000000000000000000000000000000000000000815260040161199d9061458c565b60405180910390fd5b600160030160009054906101000a900460ff166119f8576040517f08c379a00000000000000000000000000000000000000000000000000000000081526004016119ef90614d04565b60405180910390fd5b600180600401819055507f0c933c861f93878dd04b07a9cd98e725df697e7d1095846f00b18219e4f17ce9600160000160018001600160020154600160040154604051611a489493929190614da8565b60405180910390a1565b60606000805b600a80549050811015611b5557600073ffffffffffffffffffffffffffffffffffffffff1660086000600a8481548110611a9557611a94614618565b5b9060005260206000200160009054906101000a900473ffffffffffffffffffffffffffffffffffffffff1673ffffffffffffffffffffffffffffffffffffffff1673ffffffffffffffffffffffffffffffffffffffff16815260200190815260200160002060000160009054906101000a900473ffffffffffffffffffffffffffffffffffffffff1673ffffffffffffffffffffffffffffffffffffffff1614611b48578180611b4490614dfb565b9250505b8080600101915050611a58565b5060008167ffffffffffffffff811115611b7257611b71613a68565b5b604051908082528060200260200182016040528015611bab57816020015b611b986139dc565b815260200190600190039081611b905790505b5090506000805b600a80549050811015611eea57600073ffffffffffffffffffffffffffffffffffffffff1660086000600a8481548110611bef57611bee614618565b5b9060005260206000200160009054906101000a900473ffffffffffffffffffffffffffffffffffffffff1673ffffffffffffffffffffffffffffffffffffffff1673ffffffffffffffffffffffffffffffffffffffff16815260200190815260200160002060000160009054906101000a900473ffffffffffffffffffffffffffffffffffffffff1673ffffffffffffffffffffffffffffffffffffffff1614611edd5760086000600a8381548110611cab57611caa614618565b5b9060005260206000200160009054906101000a900473ffffffffffffffffffffffffffffffffffffffff1673ffffffffffffffffffffffffffffffffffffffff1673ffffffffffffffffffffffffffffffffffffffff1681526020019081526020016000206040518060800160405290816000820160009054906101000a900473ffffffffffffffffffffffffffffffffffffffff1673ffffffffffffffffffffffffffffffffffffffff1673ffffffffffffffffffffffffffffffffffffffff168152602001600182018054611d81906146d9565b80601f0160208091040260200160405190810160405280929190818152602001828054611dad906146d9565b8015611dfa5780601f10611dcf57610100808354040283529160200191611dfa565b820191906000526020600020905b815481529060010190602001808311611ddd57829003601f168201915b50505050508152602001600282018054611e13906146d9565b80601f0160208091040260200160405190810160405280929190818152602001828054611e3f906146d9565b8015611e8c5780601f10611e6157610100808354040283529160200191611e8c565b820191906000526020600020905b815481529060010190602001808311611e6f57829003601f168201915b505050505081526020016003820160009054906101000a900460ff161515151581525050838381518110611ec357611ec2614618565b5b60200260200101819052508180611ed990614dfb565b9250505b8080600101915050611bb2565b5081935050505090565b6001806000018054611f05906146d9565b80601f0160208091040260200160405190810160405280929190818152602001828054611f31906146d9565b8015611f7e5780601f10611f5357610100808354040283529160200191611f7e565b820191906000526020600020905b815481529060010190602001808311611f6157829003601f168201915b505050505090806001018054611f93906146d9565b80601f0160208091040260200160405190810160405280929190818152602001828054611fbf906146d9565b801561200c5780601f10611fe15761010080835404028352916020019161200c565b820191906000526020600020905b815481529060010190602001808311611fef57829003601f168201915b5050505050908060020154908060030160009054906101000a900460ff16908060030160019054906101000a900473ffffffffffffffffffffffffffffffffffffffff16908060040154905086565b60008054906101000a900473ffffffffffffffffffffffffffffffffffffffff1681565b60608060608060008054906101000a900473ffffffffffffffffffffffffffffffffffffffff1673ffffffffffffffffffffffffffffffffffffffff163373ffffffffffffffffffffffffffffffffffffffff1614612113576040517f08c379a000000000000000000000000000000000000000000000000000000000815260040161210a9061458c565b60405180910390fd5b600160030160009054906101000a900460ff16612165576040517f08c379a000000000000000000000000000000000000000000000000000000000815260040161215c90614d04565b60405180910390fd5b60018060040154146121ac576040517f08c379a00000000000000000000000000000000000000000000000000000000081526004016121a390614e8f565b60405180910390fd5b6000600b80549050905060008167ffffffffffffffff8111156121d2576121d1613a68565b5b6040519080825280602002602001820160405280156122005781602001602082028036833780820191505090505b50905060008267ffffffffffffffff81111561221f5761221e613a68565b5b60405190808252806020026020018201604052801561224d5781602001602082028036833780820191505090505b50905060008367ffffffffffffffff81111561226c5761226b613a68565b5b60405190808252806020026020018201604052801561229f57816020015b606081526020019060019003908161228a5790505b50905060008467ffffffffffffffff8111156122be576122bd613a68565b5b6040519080825280602002602001820160405280156122f157816020015b60608152602001906001900390816122dc5790505b50905060005b858110156125d2576000600b828154811061231557612314614618565b5b9060005260206000200160009054906101000a900473ffffffffffffffffffffffffffffffffffffffff1690508086838151811061235657612355614618565b5b602002602001019073ffffffffffffffffffffffffffffffffffffffff16908173ffffffffffffffffffffffffffffffffffffffff1681525050600760008273ffffffffffffffffffffffffffffffffffffffff1673ffffffffffffffffffffffffffffffffffffffff168152602001908152602001600020600001548583815181106123e6576123e5614618565b5b602002602001018181525050600760008273ffffffffffffffffffffffffffffffffffffffff1673ffffffffffffffffffffffffffffffffffffffff168152602001908152602001600020600101805461243f906146d9565b80601f016020809104026020016040519081016040528092919081815260200182805461246b906146d9565b80156124b85780601f1061248d576101008083540402835291602001916124b8565b820191906000526020600020905b81548152906001019060200180831161249b57829003601f168201915b50505050508483815181106124d0576124cf614618565b5b6020026020010181905250600760008273ffffffffffffffffffffffffffffffffffffffff1673ffffffffffffffffffffffffffffffffffffffff1681526020019081526020016000206002018054612528906146d9565b80601f0160208091040260200160405190810160405280929190818152602001828054612554906146d9565b80156125a15780601f10612576576101008083540402835291602001916125a1565b820191906000526020600020905b81548152906001019060200180831161258457829003601f168201915b50505050508383815181106125b9576125b8614618565b5b60200260200101819052505080806001019150506122f7565b50838383839850985098509850505050505090919293565b60606000600c80549050905060008167ffffffffffffffff81111561261257612611613a68565b5b60405190808252806020026020018201604052801561264b57816020015b6126386139dc565b8152602001906001900390816126305790505b50905060005b828110156128a15760066000600c838154811061267157612670614618565b5b9060005260206000200160009054906101000a900473ffffffffffffffffffffffffffffffffffffffff1673ffffffffffffffffffffffffffffffffffffffff1673ffffffffffffffffffffffffffffffffffffffff1681526020019081526020016000206040518060800160405290816000820160009054906101000a900473ffffffffffffffffffffffffffffffffffffffff1673ffffffffffffffffffffffffffffffffffffffff1673ffffffffffffffffffffffffffffffffffffffff168152602001600182018054612747906146d9565b80601f0160208091040260200160405190810160405280929190818152602001828054612773906146d9565b80156127c05780601f10612795576101008083540402835291602001916127c0565b820191906000526020600020905b8154815290600101906020018083116127a357829003601f168201915b505050505081526020016002820180546127d9906146d9565b80601f0160208091040260200160405190810160405280929190818152602001828054612805906146d9565b80156128525780601f1061282757610100808354040283529160200191612852565b820191906000526020600020905b81548152906001019060200180831161283557829003601f168201915b505050505081526020016003820160009054906101000a900460ff16151515158152505082828151811061288957612888614618565b5b60200260200101819052508080600101915050612651565b50809250505090565b60008054906101000a900473ffffffffffffffffffffffffffffffffffffffff1673ffffffffffffffffffffffffffffffffffffffff163373ffffffffffffffffffffffffffffffffffffffff1614612938576040517f08c379a000000000000000000000000000000000000000000000000000000000815260040161292f9061458c565b60405180910390fd5b600660008273ffffffffffffffffffffffffffffffffffffffff1673ffffffffffffffffffffffffffffffffffffffff16815260200190815260200160002060030160009054906101000a900460ff166129c7576040517f08c379a00000000000000000000000000000000000000000000000000000000081526004016129be90614ad8565b60405180910390fd5b6000600660008373ffffffffffffffffffffffffffffffffffffffff1673ffffffffffffffffffffffffffffffffffffffff1681526020019081526020016000206040518060800160405290816000820160009054906101000a900473ffffffffffffffffffffffffffffffffffffffff1673ffffffffffffffffffffffffffffffffffffffff1673ffffffffffffffffffffffffffffffffffffffff168152602001600182018054612a79906146d9565b80601f0160208091040260200160405190810160405280929190818152602001828054612aa5906146d9565b8015612af25780601f10612ac757610100808354040283529160200191612af2565b820191906000526020600020905b815481529060010190602001808311612ad557829003601f168201915b50505050508152602001600282018054612b0b906146d9565b80601f0160208091040260200160405190810160405280929190818152602001828054612b37906146d9565b8015612b845780601f10612b5957610100808354040283529160200191612b84565b820191906000526020600020905b815481529060010190602001808311612b6757829003601f168201915b505050505081526020016003820160009054906101000a900460ff1615151515815250509050600660008373ffffffffffffffffffffffffffffffffffffffff1673ffffffffffffffffffffffffffffffffffffffff168152602001908152602001600020600080820160006101000a81549073ffffffffffffffffffffffffffffffffffffffff0219169055600182016000612c21919061397b565b600282016000612c31919061397b565b6003820160006101000a81549060ff0219169055505060005b600c80549050811015612dcd578273ffffffffffffffffffffffffffffffffffffffff16600c8281548110612c8257612c81614618565b5b9060005260206000200160009054906101000a900473ffffffffffffffffffffffffffffffffffffffff1673ffffffffffffffffffffffffffffffffffffffff1603612dc057600c6001600c80549050612cdc9190614eaf565b81548110612ced57612cec614618565b5b9060005260206000200160009054906101000a900473ffffffffffffffffffffffffffffffffffffffff16600c8281548110612d2c57612d2b614618565b5b9060005260206000200160006101000a81548173ffffffffffffffffffffffffffffffffffffffff021916908373ffffffffffffffffffffffffffffffffffffffff160217905550600c805480612d8657612d85614ee3565b5b6001900381819060005260206000200160006101000a81549073ffffffffffffffffffffffffffffffffffffffff02191690559055612dcd565b8080600101915050612c4a565b507f6ea6015034906588e3324f5d414ebf92f452dd217b5af6b5fc79f81c86a3ed4b8282602001518360400151604051612e0993929190614a47565b60405180910390a15050565b60008054906101000a900473ffffffffffffffffffffffffffffffffffffffff1673ffffffffffffffffffffffffffffffffffffffff163373ffffffffffffffffffffffffffffffffffffffff1614612ea3576040517f08c379a0000000000000000000000000000000000000000000000000000000008152600401612e9a9061458c565b60405180910390fd5b600160030160009054906101000a900460ff16612ef5576040517f08c379a0000000000000000000000000000000000000000000000000000000008152600401612eec90614d04565b60405180910390fd5b600160008082016000612f08919061397b565b600182016000612f18919061397b565b60028201600090556003820160006101000a81549060ff02191690556003820160016101000a81549073ffffffffffffffffffffffffffffffffffffffff02191690556004820160009055505060005b600b805490508110156130b0576000600b8281548110612f8b57612f8a614618565b5b9060005260206000200160009054906101000a900473ffffffffffffffffffffffffffffffffffffffff1690506000600960008373ffffffffffffffffffffffffffffffffffffffff1673ffffffffffffffffffffffffffffffffffffffff16815260200190815260200160002060006101000a81548160ff021916908315150217905550600760008273ffffffffffffffffffffffffffffffffffffffff1673ffffffffffffffffffffffffffffffffffffffff168152602001908152602001600020600080820160009055600182016000613068919061397b565b600282016000613078919061397b565b6003820160006101000a81549060ff02191690556003820160016101000a81549060ff02191690555050508080600101915050612f68565b50600b60006130bf91906139bb565b565b600a81815481106130d157600080fd5b906000526020600020016000915054906101000a900473ffffffffffffffffffffffffffffffffffffffff1681565b60008054906101000a900473ffffffffffffffffffffffffffffffffffffffff1673ffffffffffffffffffffffffffffffffffffffff163373ffffffffffffffffffffffffffffffffffffffff161461318e576040517f08c379a00000000000000000000000000000000000000000000000000000000081526004016131859061458c565b60405180910390fd5b60016002015442116131d5576040517f08c379a00000000000000000000000000000000000000000000000000000000081526004016131cc90614f5e565b60405180910390fd5b600160030160009054906101000a900460ff16613227576040517f08c379a000000000000000000000000000000000000000000000000000000000815260040161321e90614d04565b60405180910390fd5b6001600760008373ffffffffffffffffffffffffffffffffffffffff1673ffffffffffffffffffffffffffffffffffffffff16815260200190815260200160002060030160016101000a81548160ff0219169083151502179055506000600160030160006101000a81548160ff02191690831515021790555080600160030160016101000a81548173ffffffffffffffffffffffffffffffffffffffff021916908373ffffffffffffffffffffffffffffffffffffffff1602179055508073ffffffffffffffffffffffffffffffffffffffff167f1d564adc39126151d047f51e3431319d43e41d12fad4b2f28b26993d5e2843d3600760008473ffffffffffffffffffffffffffffffffffffffff1673ffffffffffffffffffffffffffffffffffffffff16815260200190815260200160002060000154600760008573ffffffffffffffffffffffffffffffffffffffff1673ffffffffffffffffffffffffffffffffffffffff1681526020019081526020016000206001016040516133af929190614f7e565b60405180910390a250565b6060600b80548060200260200160405190810160405280929190818152602001828054801561343e57602002820191906000526020600020905b8160009054906101000a900473ffffffffffffffffffffffffffffffffffffffff1673ffffffffffffffffffffffffffffffffffffffff16815260200190600101908083116133f4575b5050505050905090565b60096020528060005260406000206000915054906101000a900460ff1681565b60066020528060005260406000206000915090508060000160009054906101000a900473ffffffffffffffffffffffffffffffffffffffff16908060010180546134b1906146d9565b80601f01602080910402602001604051908101604052809291908181526020018280546134dd906146d9565b801561352a5780601f106134ff5761010080835404028352916020019161352a565b820191906000526020600020905b81548152906001019060200180831161350d57829003601f168201915b50505050509080600201805461353f906146d9565b80601f016020809104026020016040519081016040528092919081815260200182805461356b906146d9565b80156135b85780601f1061358d576101008083540402835291602001916135b8565b820191906000526020600020905b81548152906001019060200180831161359b57829003601f168201915b5050505050908060030160009054906101000a900460ff16905084565b60086020528060005260406000206000915090508060000160009054906101000a900473ffffffffffffffffffffffffffffffffffffffff169080600101805461361e906146d9565b80601f016020809104026020016040519081016040528092919081815260200182805461364a906146d9565b80156136975780601f1061366c57610100808354040283529160200191613697565b820191906000526020600020905b81548152906001019060200180831161367a57829003601f168201915b5050505050908060020180546136ac906146d9565b80601f01602080910402602001604051908101604052809291908181526020018280546136d8906146d9565b80156137255780601f106136fa57610100808354040283529160200191613725565b820191906000526020600020905b81548152906001019060200180831161370857829003601f168201915b5050505050908060030160009054906101000a900460ff16905084565b6000806060600160030160019054906101000a900473ffffffffffffffffffffffffffffffffffffffff1660076000600160030160019054906101000a900473ffffffffffffffffffffffffffffffffffffffff1673ffffffffffffffffffffffffffffffffffffffff1673ffffffffffffffffffffffffffffffffffffffff1681526020019081526020016000206000015460076000600160030160019054906101000a900473ffffffffffffffffffffffffffffffffffffffff1673ffffffffffffffffffffffffffffffffffffffff1673ffffffffffffffffffffffffffffffffffffffff168152602001908152602001600020600101808054613848906146d9565b80601f0160208091040260200160405190810160405280929190818152602001828054613874906146d9565b80156138c15780601f10613896576101008083540402835291602001916138c1565b820191906000526020600020905b8154815290600101906020018083116138a457829003601f168201915b50505050509050925092509250909192565b600080600090505b600c80549050811015613970578273ffffffffffffffffffffffffffffffffffffffff16600c828154811061391357613912614618565b5b9060005260206000200160009054906101000a900473ffffffffffffffffffffffffffffffffffffffff1673ffffffffffffffffffffffffffffffffffffffff1603613963576001915050613976565b80806001019150506138db565b50600090505b919050565b508054613987906146d9565b6000825580601f1061399957506139b8565b601f0160209004906000526020600020908101906139b79190613a1c565b5b50565b50805460008255906000526020600020908101906139d99190613a1c565b50565b6040518060800160405280600073ffffffffffffffffffffffffffffffffffffffff16815260200160608152602001606081526020016000151581525090565b5b80821115613a35576000816000905550600101613a1d565b5090565b6000604051905090565b600080fd5b600080fd5b600080fd5b600080fd5b6000601f19601f8301169050919050565b7f4e487b7100000000000000000000000000000000000000000000000000000000600052604160045260246000fd5b613aa082613a57565b810181811067ffffffffffffffff82111715613abf57613abe613a68565b5b80604052505050565b6000613ad2613a39565b9050613ade8282613a97565b919050565b600067ffffffffffffffff821115613afe57613afd613a68565b5b613b0782613a57565b9050602081019050919050565b82818337600083830152505050565b6000613b36613b3184613ae3565b613ac8565b905082815260208101848484011115613b5257613b51613a52565b5b613b5d848285613b14565b509392505050565b600082601f830112613b7a57613b79613a4d565b5b8135613b8a848260208601613b23565b91505092915050565b6000819050919050565b613ba681613b93565b8114613bb157600080fd5b50565b600081359050613bc381613b9d565b92915050565b600080600060608486031215613be257613be1613a43565b5b600084013567ffffffffffffffff811115613c0057613bff613a48565b5b613c0c86828701613b65565b935050602084013567ffffffffffffffff811115613c2d57613c2c613a48565b5b613c3986828701613b65565b9250506040613c4a86828701613bb4565b9150509250925092565b600073ffffffffffffffffffffffffffffffffffffffff82169050919050565b6000613c7f82613c54565b9050919050565b613c8f81613c74565b8114613c9a57600080fd5b50565b600081359050613cac81613c86565b92915050565b600060208284031215613cc857613cc7613a43565b5b6000613cd684828501613c9d565b91505092915050565b60008115159050919050565b613cf481613cdf565b82525050565b6000602082019050613d0f6000830184613ceb565b92915050565b600060208284031215613d2b57613d2a613a43565b5b6000613d3984828501613bb4565b91505092915050565b613d4b81613c74565b82525050565b6000602082019050613d666000830184613d42565b92915050565b600080600060608486031215613d8557613d84613a43565b5b6000613d9386828701613bb4565b935050602084013567ffffffffffffffff811115613db457613db3613a48565b5b613dc086828701613b65565b925050604084013567ffffffffffffffff811115613de157613de0613a48565b5b613ded86828701613b65565b9150509250925092565b613e0081613b93565b82525050565b600081519050919050565b600082825260208201905092915050565b60005b83811015613e40578082015181840152602081019050613e25565b60008484015250505050565b6000613e5782613e06565b613e618185613e11565b9350613e71818560208601613e22565b613e7a81613a57565b840191505092915050565b600060a082019050613e9a6000830188613df7565b8181036020830152613eac8187613e4c565b90508181036040830152613ec08186613e4c565b9050613ecf6060830185613ceb565b613edc6080830184613ceb565b9695505050505050565b60008060408385031215613efd57613efc613a43565b5b600083013567ffffffffffffffff811115613f1b57613f1a613a48565b5b613f2785828601613b65565b925050602083013567ffffffffffffffff811115613f4857613f47613a48565b5b613f5485828601613b65565b9150509250929050565b6000819050919050565b613f7181613f5e565b82525050565b600060a0820190508181036000830152613f918188613e4c565b90508181036020830152613fa58187613e4c565b9050613fb46040830186613df7565b613fc16060830185613f68565b613fce6080830184613ceb565b9695505050505050565b600081519050919050565b600082825260208201905092915050565b6000819050602082019050919050565b61400d81613c74565b82525050565b600082825260208201905092915050565b600061402f82613e06565b6140398185614013565b9350614049818560208601613e22565b61405281613a57565b840191505092915050565b61406681613cdf565b82525050565b60006080830160008301516140846000860182614004565b506020830151848203602086015261409c8282614024565b915050604083015184820360408601526140b68282614024565b91505060608301516140cb606086018261405d565b508091505092915050565b60006140e2838361406c565b905092915050565b6000602082019050919050565b600061410282613fd8565b61410c8185613fe3565b93508360208202850161411e85613ff4565b8060005b8581101561415a578484038952815161413b85826140d6565b9450614146836140ea565b925060208a01995050600181019050614122565b50829750879550505050505092915050565b6000602082019050818103600083015261418681846140f7565b905092915050565b600060c08201905081810360008301526141a88189613e4c565b905081810360208301526141bc8188613e4c565b90506141cb6040830187613df7565b6141d86060830186613ceb565b6141e56080830185613d42565b6141f260a0830184613f68565b979650505050505050565b600081519050919050565b600082825260208201905092915050565b6000819050602082019050919050565b60006142358383614004565b60208301905092915050565b6000602082019050919050565b6000614259826141fd565b6142638185614208565b935061426e83614219565b8060005b8381101561429f5781516142868882614229565b975061429183614241565b925050600181019050614272565b5085935050505092915050565b600081519050919050565b600082825260208201905092915050565b6000819050602082019050919050565b6142e181613b93565b82525050565b60006142f383836142d8565b60208301905092915050565b6000602082019050919050565b6000614317826142ac565b61432181856142b7565b935061432c836142c8565b8060005b8381101561435d57815161434488826142e7565b975061434f836142ff565b925050600181019050614330565b5085935050505092915050565b600081519050919050565b600082825260208201905092915050565b6000819050602082019050919050565b60006143a28383614024565b905092915050565b6000602082019050919050565b60006143c28261436a565b6143cc8185614375565b9350836020820285016143de85614386565b8060005b8581101561441a57848403895281516143fb8582614396565b9450614406836143aa565b925060208a019950506001810190506143e2565b50829750879550505050505092915050565b60006080820190508181036000830152614446818761424e565b9050818103602083015261445a818661430c565b9050818103604083015261446e81856143b7565b9050818103606083015261448281846143b7565b905095945050505050565b600060208201905081810360008301526144a7818461424e565b905092915050565b60006080820190506144c46000830187613d42565b81810360208301526144d68186613e4c565b905081810360408301526144ea8185613e4c565b90506144f96060830184613ceb565b95945050505050565b60006060820190506145176000830186613d42565b6145246020830185613df7565b81810360408301526145368184613e4c565b9050949350505050565b7f4e6f7420617574686f72697a6564000000000000000000000000000000000000600082015250565b6000614576600e83613e11565b915061458182614540565b602082019050919050565b600060208201905081810360008301526145a581614569565b9050919050565b7f54656e64657220616c7265616479206f70656e00000000000000000000000000600082015250565b60006145e2601383613e11565b91506145ed826145ac565b602082019050919050565b60006020820190508181036000830152614611816145d5565b9050919050565b7f4e487b7100000000000000000000000000000000000000000000000000000000600052603260045260246000fd5b7f4e487b7100000000000000000000000000000000000000000000000000000000600052601160045260246000fd5b600061468182613b93565b915061468c83613b93565b92508282019050808211156146a4576146a3614647565b5b92915050565b7f4e487b7100000000000000000000000000000000000000000000000000000000600052602260045260246000fd5b600060028204905060018216806146f157607f821691505b602082108103614704576147036146aa565b5b50919050565b60008190508160005260206000209050919050565b60006020601f8301049050919050565b600082821b905092915050565b60006008830261476c7fffffffffffffffffffffffffffffffffffffffffffffffffffffffffffffffff8261472f565b614776868361472f565b95508019841693508086168417925050509392505050565b6000819050919050565b60006147b36147ae6147a984613b93565b61478e565b613b93565b9050919050565b6000819050919050565b6147cd83614798565b6147e16147d9826147ba565b84845461473c565b825550505050565b600090565b6147f66147e9565b6148018184846147c4565b505050565b5b818110156148255761481a6000826147ee565b600181019050614807565b5050565b601f82111561486a5761483b8161470a565b6148448461471f565b81016020851015614853578190505b61486761485f8561471f565b830182614806565b50505b505050565b600082821c905092915050565b600061488d6000198460080261486f565b1980831691505092915050565b60006148a6838361487c565b9150826002028217905092915050565b6148bf82613e06565b67ffffffffffffffff8111156148d8576148d7613a68565b5b6148e282546146d9565b6148ed828285614829565b600060209050601f831160018114614920576000841561490e578287015190505b614918858261489a565b865550614980565b601f19841661492e8661470a565b60005b8281101561495657848901518255600182019150602085019450602081019050614931565b86831015614973578489015161496f601f89168261487c565b8355505b6001600288020188555050505b505050505050565b600060808201905081810360008301526149a28187613e4c565b905081810360208301526149b68186613e4c565b90506149c56040830185613df7565b6149d26060830184613f68565b95945050505050565b7f436f6e74726163746f72206e6f7420666f756e64000000000000000000000000600082015250565b6000614a11601483613e11565b9150614a1c826149db565b602082019050919050565b60006020820190508181036000830152614a4081614a04565b9050919050565b6000606082019050614a5c6000830186613d42565b8181036020830152614a6e8185613e4c565b90508181036040830152614a828184613e4c565b9050949350505050565b7f436f6e74726163746f72206e6f74207265676973746572656400000000000000600082015250565b6000614ac2601983613e11565b9150614acd82614a8c565b602082019050919050565b60006020820190508181036000830152614af181614ab5565b9050919050565b7f54656e64657220636c6f73656400000000000000000000000000000000000000600082015250565b6000614b2e600d83613e11565b9150614b3982614af8565b602082019050919050565b60006020820190508181036000830152614b5d81614b21565b9050919050565b7f42696420616c7265616479207375626d69747465640000000000000000000000600082015250565b6000614b9a601583613e11565b9150614ba582614b64565b602082019050919050565b60006020820190508181036000830152614bc981614b8d565b9050919050565b6000604082019050614be56000830185613df7565b8181036020830152614bf78184613e4c565b90509392505050565b7f526567697374726174696f6e207265717565737420616c72656164792073756260008201527f6d6974746564206f7220636f6e74726163746f7220616c72656164792072656760208201527f6973746572656400000000000000000000000000000000000000000000000000604082015250565b6000614c82604783613e11565b9150614c8d82614c00565b606082019050919050565b60006020820190508181036000830152614cb181614c75565b9050919050565b7f4e6f206163746976652074656e64657200000000000000000000000000000000600082015250565b6000614cee601083613e11565b9150614cf982614cb8565b602082019050919050565b60006020820190508181036000830152614d1d81614ce1565b9050919050565b60008154614d31816146d9565b614d3b8186613e11565b94506001821660008114614d565760018114614d6c57614d9f565b60ff198316865281151560200286019350614d9f565b614d758561470a565b60005b83811015614d9757815481890152600182019150602081019050614d78565b808801955050505b50505092915050565b60006080820190508181036000830152614dc28187614d24565b90508181036020830152614dd68186614d24565b9050614de56040830185613df7565b614df26060830184613f68565b95945050505050565b6000614e0682613b93565b91507fffffffffffffffffffffffffffffffffffffffffffffffffffffffffffffffff8203614e3857614e37614647565b5b600182019050919050565b7f54656e646572206973206e6f7420636c6f736564207965740000000000000000600082015250565b6000614e79601883613e11565b9150614e8482614e43565b602082019050919050565b60006020820190508181036000830152614ea881614e6c565b9050919050565b6000614eba82613b93565b9150614ec583613b93565b9250828203905081811115614edd57614edc614647565b5b92915050565b7f4e487b7100000000000000000000000000000000000000000000000000000000600052603160045260246000fd5b7f54656e646572207375626d697373696f6e207374696c6c206f70656e00000000600082015250565b6000614f48601c83613e11565b9150614f5382614f12565b602082019050919050565b60006020820190508181036000830152614f7781614f3b565b9050919050565b6000604082019050614f936000830185613df7565b8181036020830152614fa58184614d24565b9050939250505056fea2646970667358221220eec2d867fc44b5c2992456aaa8c0763e68bbdeaeac56ff0320d3e7a84a33d4c664736f6c634300081b0033",
  "linkReferences": {},
  "deployedLinkReferences": {}
}