{
  "_format": "hh-sol-artifact-1",
  "contractName": "BidChain",
  "sourceName": "contracts/e-procurement.sol",
  "abi": [
    {
      "inputs": [],
      "stateMutability": "nonpayable",
      "type": "constructor"
    },
    {
      "anonymous": false,
      "inputs": [
        {
          "indexed": true,
          "internalType": "address",
          "name": "contractor",
          "type": "address"
        },
        {
          "indexed": false,
          "internalType": "uint256",
          "name": "amount",
          "type": "uint256"
        },
        {
          "indexed": false,
          "internalType": "string",
          "name": "ipfsHash",
          "type": "string"
        }
      ],
      "name": "BidSubmitted",
      "type": "event"
    },
    {
      "anonymous": false,
      "inputs": [
        {
          "indexed": false,
          "internalType": "address",
          "name": "contractorAddress",
          "type": "address"
        },
        {
          "indexed": false,
          "internalType": "string",
          "name": "companyName",
          "type": "string"
        },
        {
          "indexed": false,
          "internalType": "string",
          "name": "email",
          "type": "string"
        }
      ],
      "name": "ContractorDeleted",
      "type": "event"
    },
    {
      "anonymous": false,
      "inputs": [
        {
          "indexed": false,
          "internalType": "address",
          "name": "contractorAddress",
          "type": "address"
        },
        {
          "indexed": false,
          "internalType": "string",
          "name": "companyName",
          "type": "string"
        },
        {
          "indexed": false,
          "internalType": "string",
          "name": "email",
          "type": "string"
        }
      ],
      "name": "ContractorRegistered",
      "type": "event"
    },
    {
      "anonymous": false,
      "inputs": [
        {
          "indexed": false,
          "internalType": "address",
          "name": "contractorAddress",
          "type": "address"
        },
        {
          "indexed": false,
          "internalType": "string",
          "name": "companyName",
          "type": "string"
        },
        {
          "indexed": false,
          "internalType": "string",
          "name": "email",
          "type": "string"
        }
      ],
      "name": "ContractorRegistrationRequested",
      "type": "event"
    },
    {
      "anonymous": false,
      "inputs": [
        {
          "indexed": false,
          "internalType": "string",
          "name": "description",
          "type": "string"
        },
        {
          "indexed": false,
          "internalType": "string",
          "name": "noticeDocumentHash",
          "type": "string"
        },
        {
          "indexed": false,
          "internalType": "uint256",
          "name": "endTime",
          "type": "uint256"
        },
        {
          "indexed": false,
          "internalType": "int256",
          "name": "additionalInfo",
          "type": "int256"
        }
      ],
      "name": "TenderOpened",
      "type": "event"
    },
    {
      "anonymous": false,
      "inputs": [
        {
          "indexed": true,
          "internalType": "address",
          "name": "winner",
          "type": "address"
        },
        {
          "indexed": false,
          "internalType": "uint256",
          "name": "winningBid",
          "type": "uint256"
        },
        {
          "indexed": false,
          "internalType": "string",
          "name": "winnerDocumentHash",
          "type": "string"
        }
      ],
      "name": "WinnerAnnounced",
      "type": "event"
    },
    {
      "inputs": [],
      "name": "activeTender",
      "outputs": [
        {
          "internalType": "string",
          "name": "description",
          "type": "string"
        },
        {
          "internalType": "string",
          "name": "noticeDocumentHash",
          "type": "string"
        },
        {
          "internalType": "uint256",
          "name": "submissionEndTime",
          "type": "uint256"
        },
        {
          "internalType": "bool",
          "name": "isOpen",
          "type": "bool"
        },
        {
          "internalType": "address",
          "name": "winner",
          "type": "address"
        },
        {
          "internalType": "int256",
          "name": "additionalInfo",
          "type": "int256"
        }
      ],
      "stateMutability": "view",
      "type": "function"
    },
    {
      "inputs": [
        {
          "internalType": "uint256",
          "name": "",
          "type": "uint256"
        }
      ],
      "name": "addressList",
      "outputs": [
        {
          "internalType": "address",
          "name": "",
          "type": "address"
        }
      ],
      "stateMutability": "view",
      "type": "function"
    },
    {
      "inputs": [
        {
          "internalType": "address",
          "name": "_winner",
          "type": "address"
        }
      ],
      "name": "announceWinner",
      "outputs": [],
      "stateMutability": "nonpayable",
      "type": "function"
    },
    {
      "inputs": [
        {
          "internalType": "uint256",
          "name": "",
          "type": "uint256"
        }
      ],
      "name": "bidderAddresses",
      "outputs": [
        {
          "internalType": "address",
          "name": "",
          "type": "address"
        }
      ],
      "stateMutability": "view",
      "type": "function"
    },
    {
      "inputs": [
        {
          "internalType": "address",
          "name": "",
          "type": "address"
        }
      ],
      "name": "bids",
      "outputs": [
        {
          "internalType": "uint256",
          "name": "amount",
          "type": "uint256"
        },
        {
          "internalType": "string",
          "name": "ipfsHash",
          "type": "string"
        },
        {
          "internalType": "bool",
          "name": "submitted",
          "type": "bool"
        },
        {
          "internalType": "bool",
          "name": "isWinner",
          "type": "bool"
        }
      ],
      "stateMutability": "view",
      "type": "function"
    },
    {
      "inputs": [],
      "name": "cancelTender",
      "outputs": [],
      "stateMutability": "nonpayable",
      "type": "function"
    },
    {
      "inputs": [],
      "name": "closeExpiredTender",
      "outputs": [],
      "stateMutability": "nonpayable",
      "type": "function"
    },
    {
      "inputs": [
        {
          "internalType": "address",
          "name": "",
          "type": "address"
        }
      ],
      "name": "contractors",
      "outputs": [
        {
          "internalType": "address",
          "name": "contractorAddress",
          "type": "address"
        },
        {
          "internalType": "string",
          "name": "companyName",
          "type": "string"
        },
        {
          "internalType": "string",
          "name": "email",
          "type": "string"
        },
        {
          "internalType": "bool",
          "name": "isRegistered",
          "type": "bool"
        }
      ],
      "stateMutability": "view",
      "type": "function"
    },
    {
      "inputs": [
        {
          "internalType": "address",
          "name": "_contractorAddress",
          "type": "address"
        }
      ],
      "name": "deleteRegisteredContractor",
      "outputs": [],
      "stateMutability": "nonpayable",
      "type": "function"
    },
    {
      "inputs": [
        {
          "internalType": "address",
          "name": "_contractor",
          "type": "address"
        }
      ],
      "name": "getBidIPFSHash",
      "outputs": [
        {
          "internalType": "string",
          "name": "",
          "type": "string"
        }
      ],
      "stateMutability": "view",
      "type": "function"
    },
    {
      "inputs": [],
      "name": "getBidderAddresses",
      "outputs": [
        {
          "internalType": "address[]",
          "name": "",
          "type": "address[]"
        }
      ],
      "stateMutability": "view",
      "type": "function"
    },
    {
      "inputs": [],
      "name": "getContractOwner",
      "outputs": [
        {
          "internalType": "address",
          "name": "",
          "type": "address"
        }
      ],
      "stateMutability": "view",
      "type": "function"
    },
    {
      "inputs": [],
      "name": "getPendingContractors",
      "outputs": [
        {
          "components": [
            {
              "internalType": "address",
              "name": "contractorAddress",
              "type": "address"
            },
            {
              "internalType": "string",
              "name": "companyName",
              "type": "string"
            },
            {
              "internalType": "string",
              "name": "email",
              "type": "string"
            },
            {
              "internalType": "bool",
              "name": "isRegistered",
              "type": "bool"
            }
          ],
          "internalType": "struct BidChain.Contractor[]",
          "name": "",
          "type": "tuple[]"
        }
      ],
      "stateMutability": "view",
      "type": "function"
    },
    {
      "inputs": [],
      "name": "getRegisteredContractors",
      "outputs": [
        {
          "components": [
            {
              "internalType": "address",
              "name": "contractorAddress",
              "type": "address"
            },
            {
              "internalType": "string",
              "name": "companyName",
              "type": "string"
            },
            {
              "internalType": "string",
              "name": "email",
              "type": "string"
            },
            {
              "internalType": "bool",
              "name": "isRegistered",
              "type": "bool"
            }
          ],
          "internalType": "struct BidChain.Contractor[]",
          "name": "",
          "type": "tuple[]"
        }
      ],
      "stateMutability": "view",
      "type": "function"
    },
    {
      "inputs": [],
      "name": "getWinnerDetails",
      "outputs": [
        {
          "internalType": "address",
          "name": "",
          "type": "address"
        },
        {
          "internalType": "uint256",
          "name": "",
          "type": "uint256"
        },
        {
          "internalType": "string",
          "name": "",
          "type": "string"
        }
      ],
      "stateMutability": "view",
      "type": "function"
    },
    {
      "inputs": [
        {
          "internalType": "address",
          "name": "_contractor",
          "type": "address"
        }
      ],
      "name": "hasContractorSubmittedBid",
      "outputs": [
        {
          "internalType": "bool",
          "name": "",
          "type": "bool"
        }
      ],
      "stateMutability": "view",
      "type": "function"
    },
    {
      "inputs": [
        {
          "internalType": "address",
          "name": "",
          "type": "address"
        }
      ],
      "name": "hasSubmittedBid",
      "outputs": [
        {
          "internalType": "bool",
          "name": "",
          "type": "bool"
        }
      ],
      "stateMutability": "view",
      "type": "function"
    },
    {
      "inputs": [],
      "name": "isTenderOpen",
      "outputs": [
        {
          "internalType": "bool",
          "name": "",
          "type": "bool"
        }
      ],
      "stateMutability": "view",
      "type": "function"
    },
    {
      "inputs": [
        {
          "internalType": "string",
          "name": "_description",
          "type": "string"
        },
        {
          "internalType": "string",
          "name": "_noticeDocumentHash",
          "type": "string"
        },
        {
          "internalType": "uint256",
          "name": "_duration",
          "type": "uint256"
        }
      ],
      "name": "openTender",
      "outputs": [],
      "stateMutability": "nonpayable",
      "type": "function"
    },
    {
      "inputs": [],
      "name": "owner",
      "outputs": [
        {
          "internalType": "address",
          "name": "",
          "type": "address"
        }
      ],
      "stateMutability": "view",
      "type": "function"
    },
    {
      "inputs": [
        {
          "internalType": "address",
          "name": "",
          "type": "address"
        }
      ],
      "name": "pendingContractors",
      "outputs": [
        {
          "internalType": "address",
          "name": "contractorAddress",
          "type": "address"
        },
        {
          "internalType": "string",
          "name": "companyName",
          "type": "string"
        },
        {
          "internalType": "string",
          "name": "email",
          "type": "string"
        },
        {
          "internalType": "bool",
          "name": "isRegistered",
          "type": "bool"
        }
      ],
      "stateMutability": "view",
      "type": "function"
    },
    {
      "inputs": [
        {
          "internalType": "address",
          "name": "_contractorAddress",
          "type": "address"
        }
      ],
      "name": "registerContractor",
      "outputs": [],
      "stateMutability": "nonpayable",
      "type": "function"
    },
    {
      "inputs": [
        {
          "internalType": "uint256",
          "name": "",
          "type": "uint256"
        }
      ],
      "name": "registeredContractors",
      "outputs": [
        {
          "internalType": "address",
          "name": "",
          "type": "address"
        }
      ],
      "stateMutability": "view",
      "type": "function"
    },
    {
      "inputs": [
        {
          "internalType": "uint256",
          "name": "_amount",
          "type": "uint256"
        },
        {
          "internalType": "string",
          "name": "_ipfsHash",
          "type": "string"
        }
      ],
      "name": "submitBid",
      "outputs": [],
      "stateMutability": "nonpayable",
      "type": "function"
    },
    {
      "inputs": [
        {
          "internalType": "string",
          "name": "_companyName",
          "type": "string"
        },
        {
          "internalType": "string",
          "name": "_email",
          "type": "string"
        }
      ],
      "name": "submitRegistrationRequest",
      "outputs": [],
      "stateMutability": "nonpayable",
      "type": "function"
    },
    {
      "inputs": [],
      "name": "viewActiveTenderDetails",
      "outputs": [
        {
          "internalType": "string",
          "name": "description",
          "type": "string"
        },
        {
          "internalType": "string",
          "name": "noticeDocumentHash",
          "type": "string"
        },
        {
          "internalType": "uint256",
          "name": "submissionEndTime",
          "type": "uint256"
        },
        {
          "internalType": "int256",
          "name": "additionalInfo",
          "type": "int256"
        },
        {
          "internalType": "bool",
          "name": "isOpen",
          "type": "bool"
        }
      ],
      "stateMutability": "view",
      "type": "function"
    }
  ],
  "bytecode": "0x6080604052348015600f57600080fd5b50336000806101000a81548173ffffffffffffffffffffffffffffffffffffffff021916908373ffffffffffffffffffffffffffffffffffffffff1602179055506149288061005f6000396000f3fe608060405234801561001057600080fd5b506004361061018e5760003560e01c80638d16e785116100de578063b810fb4311610097578063c75e97c511610071578063c75e97c51461046b578063e35569a61461049b578063e6a20c82146104ce578063ec39335f146105015761018e565b8063b810fb4314610401578063b8da1b0c14610431578063c27677e21461044d5761018e565b80638d16e7851461034c5780638da5cb5b1461036f5780639f0521b81461038d578063a90e0304146103ab578063ad5bc477146103db578063b366a473146103f75761018e565b8063442890d51161014b578063713c83b311610125578063713c83b3146102e65780637cd12899146103025780637ea942c8146103245780638bf738ff1461032e5761018e565b8063442890d51461026557806362ea82db146102835780636a1738de146102b65761018e565b80630430427c146101935780630d7e8140146101af5780632561a429146101df5780632fb3c48f146101fb5780633a01135e1461022b5780633db9cd8914610247575b600080fd5b6101ad60048036038101906101a89190613710565b610521565b005b6101c960048036038101906101c491906137f9565b610897565b6040516101d69190613841565b60405180910390f35b6101f960048036038101906101f491906137f9565b6108ed565b005b6102156004803603810190610210919061385c565b610e5d565b6040516102229190613898565b60405180910390f35b610245600480360381019061024091906138b3565b610e9c565b005b61024f6111f3565b60405161025c9190613841565b60405180910390f35b61026d61120d565b60405161027a9190613898565b60405180910390f35b61029d600480360381019061029891906137f9565b611236565b6040516102ad949392919061399d565b60405180910390f35b6102d060048036038101906102cb919061385c565b611308565b6040516102dd9190613898565b60405180910390f35b61030060048036038101906102fb91906139e9565b611347565b005b61030a6115db565b60405161031b959493929190613a7a565b60405180910390f35b61032c61186b565b005b6103366119a5565b6040516103439190613c6f565b60405180910390f35b610354611e47565b60405161036696959493929190613c91565b60405180910390f35b610377611fae565b6040516103849190613898565b60405180910390f35b610395611fd2565b6040516103a29190613c6f565b60405180910390f35b6103c560048036038101906103c091906137f9565b612292565b6040516103d29190613d00565b60405180910390f35b6103f560048036038101906103f091906137f9565b6123f5565b005b6103ff612960565b005b61041b6004803603810190610416919061385c565b612c08565b6040516104289190613898565b60405180910390f35b61044b600480360381019061044691906137f9565b612c47565b005b610455612f01565b6040516104629190613dd1565b60405180910390f35b610485600480360381019061048091906137f9565b612f8f565b6040516104929190613841565b60405180910390f35b6104b560048036038101906104b091906137f9565b612faf565b6040516104c59493929190613df3565b60405180910390f35b6104e860048036038101906104e391906137f9565b61311c565b6040516104f89493929190613df3565b60405180910390f35b610509613289565b60405161051893929190613e46565b60405180910390f35b60008054906101000a900473ffffffffffffffffffffffffffffffffffffffff1673ffffffffffffffffffffffffffffffffffffffff163373ffffffffffffffffffffffffffffffffffffffff16146105af576040517f08c379a00000000000000000000000000000000000000000000000000000000081526004016105a690613ed0565b60405180910390fd5b600160030160009054906101000a900460ff1615610602576040517f08c379a00000000000000000000000000000000000000000000000000000000081526004016105f990613f3c565b60405180910390fd5b60005b600b8054905081101561073d576000600b828154811061062857610627613f5c565b5b9060005260206000200160009054906101000a900473ffffffffffffffffffffffffffffffffffffffff1690506000600960008373ffffffffffffffffffffffffffffffffffffffff1673ffffffffffffffffffffffffffffffffffffffff16815260200190815260200160002060006101000a81548160ff021916908315150217905550600760008273ffffffffffffffffffffffffffffffffffffffff1673ffffffffffffffffffffffffffffffffffffffff16815260200190815260200160002060008082016000905560018201600061070591906134c2565b6002820160006101000a81549060ff02191690556002820160016101000a81549060ff02191690555050508080600101915050610605565b50600b600061074c9190613502565b6040518060c00160405280848152602001838152602001824261076f9190613fba565b8152602001600115158152602001600073ffffffffffffffffffffffffffffffffffffffff1681526020016000815250600160008201518160000190816107b691906141fa565b5060208201518160010190816107cc91906141fa565b506040820151816002015560608201518160030160006101000a81548160ff02191690831515021790555060808201518160030160016101000a81548173ffffffffffffffffffffffffffffffffffffffff021916908373ffffffffffffffffffffffffffffffffffffffff16021790555060a082015181600401559050507f0c933c861f93878dd04b07a9cd98e725df697e7d1095846f00b18219e4f17ce9838360016002015460016004015460405161088a94939291906142cc565b60405180910390a1505050565b6000600960008373ffffffffffffffffffffffffffffffffffffffff1673ffffffffffffffffffffffffffffffffffffffff16815260200190815260200160002060009054906101000a900460ff169050919050565b60008054906101000a900473ffffffffffffffffffffffffffffffffffffffff1673ffffffffffffffffffffffffffffffffffffffff163373ffffffffffffffffffffffffffffffffffffffff161461097b576040517f08c379a000000000000000000000000000000000000000000000000000000000815260040161097290613ed0565b60405180910390fd5b600073ffffffffffffffffffffffffffffffffffffffff16600860008373ffffffffffffffffffffffffffffffffffffffff1673ffffffffffffffffffffffffffffffffffffffff16815260200190815260200160002060000160009054906101000a900473ffffffffffffffffffffffffffffffffffffffff1673ffffffffffffffffffffffffffffffffffffffff1603610a4c576040517f08c379a0000000000000000000000000000000000000000000000000000000008152600401610a439061436b565b60405180910390fd5b6000600860008373ffffffffffffffffffffffffffffffffffffffff1673ffffffffffffffffffffffffffffffffffffffff1681526020019081526020016000206040518060800160405290816000820160009054906101000a900473ffffffffffffffffffffffffffffffffffffffff1673ffffffffffffffffffffffffffffffffffffffff1673ffffffffffffffffffffffffffffffffffffffff168152602001600182018054610afe9061401d565b80601f0160208091040260200160405190810160405280929190818152602001828054610b2a9061401d565b8015610b775780601f10610b4c57610100808354040283529160200191610b77565b820191906000526020600020905b815481529060010190602001808311610b5a57829003601f168201915b50505050508152602001600282018054610b909061401d565b80601f0160208091040260200160405190810160405280929190818152602001828054610bbc9061401d565b8015610c095780601f10610bde57610100808354040283529160200191610c09565b820191906000526020600020905b815481529060010190602001808311610bec57829003601f168201915b505050505081526020016003820160009054906101000a900460ff1615151515815250509050600181606001901515908115158152505080600660008473ffffffffffffffffffffffffffffffffffffffff1673ffffffffffffffffffffffffffffffffffffffff16815260200190815260200160002060008201518160000160006101000a81548173ffffffffffffffffffffffffffffffffffffffff021916908373ffffffffffffffffffffffffffffffffffffffff1602179055506020820151816001019081610cdc91906141fa565b506040820151816002019081610cf291906141fa565b5060608201518160030160006101000a81548160ff021916908315150217905550905050600c829080600181540180825580915050600190039060005260206000200160009091909190916101000a81548173ffffffffffffffffffffffffffffffffffffffff021916908373ffffffffffffffffffffffffffffffffffffffff160217905550600860008373ffffffffffffffffffffffffffffffffffffffff1673ffffffffffffffffffffffffffffffffffffffff168152602001908152602001600020600080820160006101000a81549073ffffffffffffffffffffffffffffffffffffffff0219169055600182016000610df091906134c2565b600282016000610e0091906134c2565b6003820160006101000a81549060ff021916905550507f48db77b84f62eb159d6efadc8200961208efc86642bbcf53531aefb6615c88ca8282602001518360400151604051610e519392919061438b565b60405180910390a15050565b600b8181548110610e6d57600080fd5b906000526020600020016000915054906101000a900473ffffffffffffffffffffffffffffffffffffffff1681565b600660003373ffffffffffffffffffffffffffffffffffffffff1673ffffffffffffffffffffffffffffffffffffffff16815260200190815260200160002060030160009054906101000a900460ff16610f2b576040517f08c379a0000000000000000000000000000000000000000000000000000000008152600401610f229061441c565b60405180910390fd5b6001600201544211158015610f4f5750600160030160009054906101000a900460ff165b610f8e576040517f08c379a0000000000000000000000000000000000000000000000000000000008152600401610f8590614488565b60405180910390fd5b600960003373ffffffffffffffffffffffffffffffffffffffff1673ffffffffffffffffffffffffffffffffffffffff16815260200190815260200160002060009054906101000a900460ff161561101b576040517f08c379a0000000000000000000000000000000000000000000000000000000008152600401611012906144f4565b60405180910390fd5b604051806080016040528083815260200182815260200160011515815260200160001515815250600760003373ffffffffffffffffffffffffffffffffffffffff1673ffffffffffffffffffffffffffffffffffffffff1681526020019081526020016000206000820151816000015560208201518160010190816110a091906141fa565b5060408201518160020160006101000a81548160ff02191690831515021790555060608201518160020160016101000a81548160ff0219169083151502179055509050506001600960003373ffffffffffffffffffffffffffffffffffffffff1673ffffffffffffffffffffffffffffffffffffffff16815260200190815260200160002060006101000a81548160ff021916908315150217905550600b339080600181540180825580915050600190039060005260206000200160009091909190916101000a81548173ffffffffffffffffffffffffffffffffffffffff021916908373ffffffffffffffffffffffffffffffffffffffff1602179055503373ffffffffffffffffffffffffffffffffffffffff167f3eb2fab71a1de5753e125aa7b47368bd108ec2bff6e86e69cb009d365ba2f27183836040516111e7929190614514565b60405180910390a25050565b6000600160030160009054906101000a900460ff16905090565b60008060009054906101000a900473ffffffffffffffffffffffffffffffffffffffff16905090565b600760205280600052604060002060009150905080600001549080600101805461125f9061401d565b80601f016020809104026020016040519081016040528092919081815260200182805461128b9061401d565b80156112d85780601f106112ad576101008083540402835291602001916112d8565b820191906000526020600020905b8154815290600101906020018083116112bb57829003601f168201915b5050505050908060020160009054906101000a900460ff16908060020160019054906101000a900460ff16905084565b600c818154811061131857600080fd5b906000526020600020016000915054906101000a900473ffffffffffffffffffffffffffffffffffffffff1681565b600073ffffffffffffffffffffffffffffffffffffffff16600860003373ffffffffffffffffffffffffffffffffffffffff1673ffffffffffffffffffffffffffffffffffffffff16815260200190815260200160002060000160009054906101000a900473ffffffffffffffffffffffffffffffffffffffff1673ffffffffffffffffffffffffffffffffffffffff161480156113eb57506113e93361341a565b155b61142a576040517f08c379a0000000000000000000000000000000000000000000000000000000008152600401611421906145dc565b60405180910390fd5b60405180608001604052803373ffffffffffffffffffffffffffffffffffffffff16815260200183815260200182815260200160001515815250600860003373ffffffffffffffffffffffffffffffffffffffff1673ffffffffffffffffffffffffffffffffffffffff16815260200190815260200160002060008201518160000160006101000a81548173ffffffffffffffffffffffffffffffffffffffff021916908373ffffffffffffffffffffffffffffffffffffffff16021790555060208201518160010190816114ff91906141fa565b50604082015181600201908161151591906141fa565b5060608201518160030160006101000a81548160ff021916908315150217905550905050600a339080600181540180825580915050600190039060005260206000200160009091909190916101000a81548173ffffffffffffffffffffffffffffffffffffffff021916908373ffffffffffffffffffffffffffffffffffffffff1602179055507f42e1ca0950bf6539d4204c340755718403c9f9db5e3152ba6a4aa765d784cff63383836040516115cf9392919061438b565b60405180910390a15050565b6060806000806000600160030160009054906101000a900460ff16611635576040517f08c379a000000000000000000000000000000000000000000000000000000000815260040161162c90614648565b60405180910390fd5b600660003373ffffffffffffffffffffffffffffffffffffffff1673ffffffffffffffffffffffffffffffffffffffff16815260200190815260200160002060030160009054906101000a900460ff16806116db575060008054906101000a900473ffffffffffffffffffffffffffffffffffffffff1673ffffffffffffffffffffffffffffffffffffffff163373ffffffffffffffffffffffffffffffffffffffff16145b61171a576040517f08c379a000000000000000000000000000000000000000000000000000000000815260040161171190613ed0565b60405180910390fd5b600160000160018001600160020154600160040154600160030160009054906101000a900460ff1684805461174e9061401d565b80601f016020809104026020016040519081016040528092919081815260200182805461177a9061401d565b80156117c75780601f1061179c576101008083540402835291602001916117c7565b820191906000526020600020905b8154815290600101906020018083116117aa57829003601f168201915b505050505094508380546117da9061401d565b80601f01602080910402602001604051908101604052809291908181526020018280546118069061401d565b80156118535780601f1061182857610100808354040283529160200191611853565b820191906000526020600020905b81548152906001019060200180831161183657829003601f168201915b50505050509350945094509450945094509091929394565b60008054906101000a900473ffffffffffffffffffffffffffffffffffffffff1673ffffffffffffffffffffffffffffffffffffffff163373ffffffffffffffffffffffffffffffffffffffff16146118f9576040517f08c379a00000000000000000000000000000000000000000000000000000000081526004016118f090613ed0565b60405180910390fd5b600160030160009054906101000a900460ff1661194b576040517f08c379a000000000000000000000000000000000000000000000000000000000815260040161194290614648565b60405180910390fd5b600180600401819055507f0c933c861f93878dd04b07a9cd98e725df697e7d1095846f00b18219e4f17ce960016000016001800160016002015460016004015460405161199b94939291906146ec565b60405180910390a1565b60606000805b600a80549050811015611aa857600073ffffffffffffffffffffffffffffffffffffffff1660086000600a84815481106119e8576119e7613f5c565b5b9060005260206000200160009054906101000a900473ffffffffffffffffffffffffffffffffffffffff1673ffffffffffffffffffffffffffffffffffffffff1673ffffffffffffffffffffffffffffffffffffffff16815260200190815260200160002060000160009054906101000a900473ffffffffffffffffffffffffffffffffffffffff1673ffffffffffffffffffffffffffffffffffffffff1614611a9b578180611a979061473f565b9250505b80806001019150506119ab565b5060008167ffffffffffffffff811115611ac557611ac46135af565b5b604051908082528060200260200182016040528015611afe57816020015b611aeb613523565b815260200190600190039081611ae35790505b5090506000805b600a80549050811015611e3d57600073ffffffffffffffffffffffffffffffffffffffff1660086000600a8481548110611b4257611b41613f5c565b5b9060005260206000200160009054906101000a900473ffffffffffffffffffffffffffffffffffffffff1673ffffffffffffffffffffffffffffffffffffffff1673ffffffffffffffffffffffffffffffffffffffff16815260200190815260200160002060000160009054906101000a900473ffffffffffffffffffffffffffffffffffffffff1673ffffffffffffffffffffffffffffffffffffffff1614611e305760086000600a8381548110611bfe57611bfd613f5c565b5b9060005260206000200160009054906101000a900473ffffffffffffffffffffffffffffffffffffffff1673ffffffffffffffffffffffffffffffffffffffff1673ffffffffffffffffffffffffffffffffffffffff1681526020019081526020016000206040518060800160405290816000820160009054906101000a900473ffffffffffffffffffffffffffffffffffffffff1673ffffffffffffffffffffffffffffffffffffffff1673ffffffffffffffffffffffffffffffffffffffff168152602001600182018054611cd49061401d565b80601f0160208091040260200160405190810160405280929190818152602001828054611d009061401d565b8015611d4d5780601f10611d2257610100808354040283529160200191611d4d565b820191906000526020600020905b815481529060010190602001808311611d3057829003601f168201915b50505050508152602001600282018054611d669061401d565b80601f0160208091040260200160405190810160405280929190818152602001828054611d929061401d565b8015611ddf5780601f10611db457610100808354040283529160200191611ddf565b820191906000526020600020905b815481529060010190602001808311611dc257829003601f168201915b505050505081526020016003820160009054906101000a900460ff161515151581525050838381518110611e1657611e15613f5c565b5b60200260200101819052508180611e2c9061473f565b9250505b8080600101915050611b05565b5081935050505090565b6001806000018054611e589061401d565b80601f0160208091040260200160405190810160405280929190818152602001828054611e849061401d565b8015611ed15780601f10611ea657610100808354040283529160200191611ed1565b820191906000526020600020905b815481529060010190602001808311611eb457829003601f168201915b505050505090806001018054611ee69061401d565b80601f0160208091040260200160405190810160405280929190818152602001828054611f129061401d565b8015611f5f5780601f10611f3457610100808354040283529160200191611f5f565b820191906000526020600020905b815481529060010190602001808311611f4257829003601f168201915b5050505050908060020154908060030160009054906101000a900460ff16908060030160019054906101000a900473ffffffffffffffffffffffffffffffffffffffff16908060040154905086565b60008054906101000a900473ffffffffffffffffffffffffffffffffffffffff1681565b60606000600c80549050905060008167ffffffffffffffff811115611ffa57611ff96135af565b5b60405190808252806020026020018201604052801561203357816020015b612020613523565b8152602001906001900390816120185790505b50905060005b828110156122895760066000600c838154811061205957612058613f5c565b5b9060005260206000200160009054906101000a900473ffffffffffffffffffffffffffffffffffffffff1673ffffffffffffffffffffffffffffffffffffffff1673ffffffffffffffffffffffffffffffffffffffff1681526020019081526020016000206040518060800160405290816000820160009054906101000a900473ffffffffffffffffffffffffffffffffffffffff1673ffffffffffffffffffffffffffffffffffffffff1673ffffffffffffffffffffffffffffffffffffffff16815260200160018201805461212f9061401d565b80601f016020809104026020016040519081016040528092919081815260200182805461215b9061401d565b80156121a85780601f1061217d576101008083540402835291602001916121a8565b820191906000526020600020905b81548152906001019060200180831161218b57829003601f168201915b505050505081526020016002820180546121c19061401d565b80601f01602080910402602001604051908101604052809291908181526020018280546121ed9061401d565b801561223a5780601f1061220f5761010080835404028352916020019161223a565b820191906000526020600020905b81548152906001019060200180831161221d57829003601f168201915b505050505081526020016003820160009054906101000a900460ff16151515158152505082828151811061227157612270613f5c565b5b60200260200101819052508080600101915050612039565b50809250505090565b6060600760008373ffffffffffffffffffffffffffffffffffffffff1673ffffffffffffffffffffffffffffffffffffffff16815260200190815260200160002060020160009054906101000a900460ff16612323576040517f08c379a000000000000000000000000000000000000000000000000000000000815260040161231a906147d3565b60405180910390fd5b600760008373ffffffffffffffffffffffffffffffffffffffff1673ffffffffffffffffffffffffffffffffffffffff16815260200190815260200160002060010180546123709061401d565b80601f016020809104026020016040519081016040528092919081815260200182805461239c9061401d565b80156123e95780601f106123be576101008083540402835291602001916123e9565b820191906000526020600020905b8154815290600101906020018083116123cc57829003601f168201915b50505050509050919050565b60008054906101000a900473ffffffffffffffffffffffffffffffffffffffff1673ffffffffffffffffffffffffffffffffffffffff163373ffffffffffffffffffffffffffffffffffffffff1614612483576040517f08c379a000000000000000000000000000000000000000000000000000000000815260040161247a90613ed0565b60405180910390fd5b600660008273ffffffffffffffffffffffffffffffffffffffff1673ffffffffffffffffffffffffffffffffffffffff16815260200190815260200160002060030160009054906101000a900460ff16612512576040517f08c379a00000000000000000000000000000000000000000000000000000000081526004016125099061441c565b60405180910390fd5b6000600660008373ffffffffffffffffffffffffffffffffffffffff1673ffffffffffffffffffffffffffffffffffffffff1681526020019081526020016000206040518060800160405290816000820160009054906101000a900473ffffffffffffffffffffffffffffffffffffffff1673ffffffffffffffffffffffffffffffffffffffff1673ffffffffffffffffffffffffffffffffffffffff1681526020016001820180546125c49061401d565b80601f01602080910402602001604051908101604052809291908181526020018280546125f09061401d565b801561263d5780601f106126125761010080835404028352916020019161263d565b820191906000526020600020905b81548152906001019060200180831161262057829003601f168201915b505050505081526020016002820180546126569061401d565b80601f01602080910402602001604051908101604052809291908181526020018280546126829061401d565b80156126cf5780601f106126a4576101008083540402835291602001916126cf565b820191906000526020600020905b8154815290600101906020018083116126b257829003601f168201915b505050505081526020016003820160009054906101000a900460ff1615151515815250509050600660008373ffffffffffffffffffffffffffffffffffffffff1673ffffffffffffffffffffffffffffffffffffffff168152602001908152602001600020600080820160006101000a81549073ffffffffffffffffffffffffffffffffffffffff021916905560018201600061276c91906134c2565b60028201600061277c91906134c2565b6003820160006101000a81549060ff0219169055505060005b600c80549050811015612918578273ffffffffffffffffffffffffffffffffffffffff16600c82815481106127cd576127cc613f5c565b5b9060005260206000200160009054906101000a900473ffffffffffffffffffffffffffffffffffffffff1673ffffffffffffffffffffffffffffffffffffffff160361290b57600c6001600c8054905061282791906147f3565b8154811061283857612837613f5c565b5b9060005260206000200160009054906101000a900473ffffffffffffffffffffffffffffffffffffffff16600c828154811061287757612876613f5c565b5b9060005260206000200160006101000a81548173ffffffffffffffffffffffffffffffffffffffff021916908373ffffffffffffffffffffffffffffffffffffffff160217905550600c8054806128d1576128d0614827565b5b6001900381819060005260206000200160006101000a81549073ffffffffffffffffffffffffffffffffffffffff02191690559055612918565b8080600101915050612795565b507f6ea6015034906588e3324f5d414ebf92f452dd217b5af6b5fc79f81c86a3ed4b82826020015183604001516040516129549392919061438b565b60405180910390a15050565b60008054906101000a900473ffffffffffffffffffffffffffffffffffffffff1673ffffffffffffffffffffffffffffffffffffffff163373ffffffffffffffffffffffffffffffffffffffff16146129ee576040517f08c379a00000000000000000000000000000000000000000000000000000000081526004016129e590613ed0565b60405180910390fd5b600160030160009054906101000a900460ff16612a40576040517f08c379a0000000000000000000000000000000000000000000000000000000008152600401612a3790614648565b60405180910390fd5b6000600160030160006101000a81548160ff021916908315150217905550600180016000612a6e91906134c2565b60005b600b80549050811015612ba9576000600b8281548110612a9457612a93613f5c565b5b9060005260206000200160009054906101000a900473ffffffffffffffffffffffffffffffffffffffff1690506000600960008373ffffffffffffffffffffffffffffffffffffffff1673ffffffffffffffffffffffffffffffffffffffff16815260200190815260200160002060006101000a81548160ff021916908315150217905550600760008273ffffffffffffffffffffffffffffffffffffffff1673ffffffffffffffffffffffffffffffffffffffff168152602001908152602001600020600080820160009055600182016000612b7191906134c2565b6002820160006101000a81549060ff02191690556002820160016101000a81549060ff02191690555050508080600101915050612a71565b50600b6000612bb89190613502565b7f0c933c861f93878dd04b07a9cd98e725df697e7d1095846f00b18219e4f17ce9600160000160018001600160020154600160040154604051612bfe94939291906146ec565b60405180910390a1565b600a8181548110612c1857600080fd5b906000526020600020016000915054906101000a900473ffffffffffffffffffffffffffffffffffffffff1681565b60008054906101000a900473ffffffffffffffffffffffffffffffffffffffff1673ffffffffffffffffffffffffffffffffffffffff163373ffffffffffffffffffffffffffffffffffffffff1614612cd5576040517f08c379a0000000000000000000000000000000000000000000000000000000008152600401612ccc90613ed0565b60405180910390fd5b6001600201544211612d1c576040517f08c379a0000000000000000000000000000000000000000000000000000000008152600401612d13906148a2565b60405180910390fd5b600160030160009054906101000a900460ff16612d6e576040517f08c379a0000000000000000000000000000000000000000000000000000000008152600401612d6590614648565b60405180910390fd5b6001600760008373ffffffffffffffffffffffffffffffffffffffff1673ffffffffffffffffffffffffffffffffffffffff16815260200190815260200160002060020160016101000a81548160ff0219169083151502179055506000600160030160006101000a81548160ff02191690831515021790555080600160030160016101000a81548173ffffffffffffffffffffffffffffffffffffffff021916908373ffffffffffffffffffffffffffffffffffffffff1602179055508073ffffffffffffffffffffffffffffffffffffffff167f1d564adc39126151d047f51e3431319d43e41d12fad4b2f28b26993d5e2843d3600760008473ffffffffffffffffffffffffffffffffffffffff1673ffffffffffffffffffffffffffffffffffffffff16815260200190815260200160002060000154600760008573ffffffffffffffffffffffffffffffffffffffff1673ffffffffffffffffffffffffffffffffffffffff168152602001908152602001600020600101604051612ef69291906148c2565b60405180910390a250565b6060600b805480602002602001604051908101604052809291908181526020018280548015612f8557602002820191906000526020600020905b8160009054906101000a900473ffffffffffffffffffffffffffffffffffffffff1673ffffffffffffffffffffffffffffffffffffffff1681526020019060010190808311612f3b575b5050505050905090565b60096020528060005260406000206000915054906101000a900460ff1681565b60066020528060005260406000206000915090508060000160009054906101000a900473ffffffffffffffffffffffffffffffffffffffff1690806001018054612ff89061401d565b80601f01602080910402602001604051908101604052809291908181526020018280546130249061401d565b80156130715780601f1061304657610100808354040283529160200191613071565b820191906000526020600020905b81548152906001019060200180831161305457829003601f168201915b5050505050908060020180546130869061401d565b80601f01602080910402602001604051908101604052809291908181526020018280546130b29061401d565b80156130ff5780601f106130d4576101008083540402835291602001916130ff565b820191906000526020600020905b8154815290600101906020018083116130e257829003601f168201915b5050505050908060030160009054906101000a900460ff16905084565b60086020528060005260406000206000915090508060000160009054906101000a900473ffffffffffffffffffffffffffffffffffffffff16908060010180546131659061401d565b80601f01602080910402602001604051908101604052809291908181526020018280546131919061401d565b80156131de5780601f106131b3576101008083540402835291602001916131de565b820191906000526020600020905b8154815290600101906020018083116131c157829003601f168201915b5050505050908060020180546131f39061401d565b80601f016020809104026020016040519081016040528092919081815260200182805461321f9061401d565b801561326c5780601f106132415761010080835404028352916020019161326c565b820191906000526020600020905b81548152906001019060200180831161324f57829003601f168201915b5050505050908060030160009054906101000a900460ff16905084565b6000806060600160030160019054906101000a900473ffffffffffffffffffffffffffffffffffffffff1660076000600160030160019054906101000a900473ffffffffffffffffffffffffffffffffffffffff1673ffffffffffffffffffffffffffffffffffffffff1673ffffffffffffffffffffffffffffffffffffffff1681526020019081526020016000206000015460076000600160030160019054906101000a900473ffffffffffffffffffffffffffffffffffffffff1673ffffffffffffffffffffffffffffffffffffffff1673ffffffffffffffffffffffffffffffffffffffff16815260200190815260200160002060010180805461338f9061401d565b80601f01602080910402602001604051908101604052809291908181526020018280546133bb9061401d565b80156134085780601f106133dd57610100808354040283529160200191613408565b820191906000526020600020905b8154815290600101906020018083116133eb57829003601f168201915b50505050509050925092509250909192565b600080600090505b600c805490508110156134b7578273ffffffffffffffffffffffffffffffffffffffff16600c828154811061345a57613459613f5c565b5b9060005260206000200160009054906101000a900473ffffffffffffffffffffffffffffffffffffffff1673ffffffffffffffffffffffffffffffffffffffff16036134aa5760019150506134bd565b8080600101915050613422565b50600090505b919050565b5080546134ce9061401d565b6000825580601f106134e057506134ff565b601f0160209004906000526020600020908101906134fe9190613563565b5b50565b50805460008255906000526020600020908101906135209190613563565b50565b6040518060800160405280600073ffffffffffffffffffffffffffffffffffffffff16815260200160608152602001606081526020016000151581525090565b5b8082111561357c576000816000905550600101613564565b5090565b6000604051905090565b600080fd5b600080fd5b600080fd5b600080fd5b6000601f19601f8301169050919050565b7f4e487b7100000000000000000000000000000000000000000000000000000000600052604160045260246000fd5b6135e78261359e565b810181811067ffffffffffffffff82111715613606576136056135af565b5b80604052505050565b6000613619613580565b905061362582826135de565b919050565b600067ffffffffffffffff821115613645576136446135af565b5b61364e8261359e565b9050602081019050919050565b82818337600083830152505050565b600061367d6136788461362a565b61360f565b90508281526020810184848401111561369957613698613599565b5b6136a484828561365b565b509392505050565b600082601f8301126136c1576136c0613594565b5b81356136d184826020860161366a565b91505092915050565b6000819050919050565b6136ed816136da565b81146136f857600080fd5b50565b60008135905061370a816136e4565b92915050565b6000806000606084860312156137295761372861358a565b5b600084013567ffffffffffffffff8111156137475761374661358f565b5b613753868287016136ac565b935050602084013567ffffffffffffffff8111156137745761377361358f565b5b613780868287016136ac565b9250506040613791868287016136fb565b9150509250925092565b600073ffffffffffffffffffffffffffffffffffffffff82169050919050565b60006137c68261379b565b9050919050565b6137d6816137bb565b81146137e157600080fd5b50565b6000813590506137f3816137cd565b92915050565b60006020828403121561380f5761380e61358a565b5b600061381d848285016137e4565b91505092915050565b60008115159050919050565b61383b81613826565b82525050565b60006020820190506138566000830184613832565b92915050565b6000602082840312156138725761387161358a565b5b6000613880848285016136fb565b91505092915050565b613892816137bb565b82525050565b60006020820190506138ad6000830184613889565b92915050565b600080604083850312156138ca576138c961358a565b5b60006138d8858286016136fb565b925050602083013567ffffffffffffffff8111156138f9576138f861358f565b5b613905858286016136ac565b9150509250929050565b613918816136da565b82525050565b600081519050919050565b600082825260208201905092915050565b60005b8381101561395857808201518184015260208101905061393d565b60008484015250505050565b600061396f8261391e565b6139798185613929565b935061398981856020860161393a565b6139928161359e565b840191505092915050565b60006080820190506139b2600083018761390f565b81810360208301526139c48186613964565b90506139d36040830185613832565b6139e06060830184613832565b95945050505050565b60008060408385031215613a00576139ff61358a565b5b600083013567ffffffffffffffff811115613a1e57613a1d61358f565b5b613a2a858286016136ac565b925050602083013567ffffffffffffffff811115613a4b57613a4a61358f565b5b613a57858286016136ac565b9150509250929050565b6000819050919050565b613a7481613a61565b82525050565b600060a0820190508181036000830152613a948188613964565b90508181036020830152613aa88187613964565b9050613ab7604083018661390f565b613ac46060830185613a6b565b613ad16080830184613832565b9695505050505050565b600081519050919050565b600082825260208201905092915050565b6000819050602082019050919050565b613b10816137bb565b82525050565b600082825260208201905092915050565b6000613b328261391e565b613b3c8185613b16565b9350613b4c81856020860161393a565b613b558161359e565b840191505092915050565b613b6981613826565b82525050565b6000608083016000830151613b876000860182613b07565b5060208301518482036020860152613b9f8282613b27565b91505060408301518482036040860152613bb98282613b27565b9150506060830151613bce6060860182613b60565b508091505092915050565b6000613be58383613b6f565b905092915050565b6000602082019050919050565b6000613c0582613adb565b613c0f8185613ae6565b935083602082028501613c2185613af7565b8060005b85811015613c5d5784840389528151613c3e8582613bd9565b9450613c4983613bed565b925060208a01995050600181019050613c25565b50829750879550505050505092915050565b60006020820190508181036000830152613c898184613bfa565b905092915050565b600060c0820190508181036000830152613cab8189613964565b90508181036020830152613cbf8188613964565b9050613cce604083018761390f565b613cdb6060830186613832565b613ce86080830185613889565b613cf560a0830184613a6b565b979650505050505050565b60006020820190508181036000830152613d1a8184613964565b905092915050565b600081519050919050565b600082825260208201905092915050565b6000819050602082019050919050565b6000613d5a8383613b07565b60208301905092915050565b6000602082019050919050565b6000613d7e82613d22565b613d888185613d2d565b9350613d9383613d3e565b8060005b83811015613dc4578151613dab8882613d4e565b9750613db683613d66565b925050600181019050613d97565b5085935050505092915050565b60006020820190508181036000830152613deb8184613d73565b905092915050565b6000608082019050613e086000830187613889565b8181036020830152613e1a8186613964565b90508181036040830152613e2e8185613964565b9050613e3d6060830184613832565b95945050505050565b6000606082019050613e5b6000830186613889565b613e68602083018561390f565b8181036040830152613e7a8184613964565b9050949350505050565b7f4e6f7420617574686f72697a6564000000000000000000000000000000000000600082015250565b6000613eba600e83613929565b9150613ec582613e84565b602082019050919050565b60006020820190508181036000830152613ee981613ead565b9050919050565b7f54656e64657220616c7265616479206f70656e00000000000000000000000000600082015250565b6000613f26601383613929565b9150613f3182613ef0565b602082019050919050565b60006020820190508181036000830152613f5581613f19565b9050919050565b7f4e487b7100000000000000000000000000000000000000000000000000000000600052603260045260246000fd5b7f4e487b7100000000000000000000000000000000000000000000000000000000600052601160045260246000fd5b6000613fc5826136da565b9150613fd0836136da565b9250828201905080821115613fe857613fe7613f8b565b5b92915050565b7f4e487b7100000000000000000000000000000000000000000000000000000000600052602260045260246000fd5b6000600282049050600182168061403557607f821691505b60208210810361404857614047613fee565b5b50919050565b60008190508160005260206000209050919050565b60006020601f8301049050919050565b600082821b905092915050565b6000600883026140b07fffffffffffffffffffffffffffffffffffffffffffffffffffffffffffffffff82614073565b6140ba8683614073565b95508019841693508086168417925050509392505050565b6000819050919050565b60006140f76140f26140ed846136da565b6140d2565b6136da565b9050919050565b6000819050919050565b614111836140dc565b61412561411d826140fe565b848454614080565b825550505050565b600090565b61413a61412d565b614145818484614108565b505050565b5b818110156141695761415e600082614132565b60018101905061414b565b5050565b601f8211156141ae5761417f8161404e565b61418884614063565b81016020851015614197578190505b6141ab6141a385614063565b83018261414a565b50505b505050565b600082821c905092915050565b60006141d1600019846008026141b3565b1980831691505092915050565b60006141ea83836141c0565b9150826002028217905092915050565b6142038261391e565b67ffffffffffffffff81111561421c5761421b6135af565b5b614226825461401d565b61423182828561416d565b600060209050601f8311600181146142645760008415614252578287015190505b61425c85826141de565b8655506142c4565b601f1984166142728661404e565b60005b8281101561429a57848901518255600182019150602085019450602081019050614275565b868310156142b757848901516142b3601f8916826141c0565b8355505b6001600288020188555050505b505050505050565b600060808201905081810360008301526142e68187613964565b905081810360208301526142fa8186613964565b9050614309604083018561390f565b6143166060830184613a6b565b95945050505050565b7f436f6e74726163746f72206e6f7420666f756e64000000000000000000000000600082015250565b6000614355601483613929565b91506143608261431f565b602082019050919050565b6000602082019050818103600083015261438481614348565b9050919050565b60006060820190506143a06000830186613889565b81810360208301526143b28185613964565b905081810360408301526143c68184613964565b9050949350505050565b7f436f6e74726163746f72206e6f74207265676973746572656400000000000000600082015250565b6000614406601983613929565b9150614411826143d0565b602082019050919050565b60006020820190508181036000830152614435816143f9565b9050919050565b7f54656e64657220636c6f73656400000000000000000000000000000000000000600082015250565b6000614472600d83613929565b915061447d8261443c565b602082019050919050565b600060208201905081810360008301526144a181614465565b9050919050565b7f42696420616c7265616479207375626d69747465640000000000000000000000600082015250565b60006144de601583613929565b91506144e9826144a8565b602082019050919050565b6000602082019050818103600083015261450d816144d1565b9050919050565b6000604082019050614529600083018561390f565b818103602083015261453b8184613964565b90509392505050565b7f526567697374726174696f6e207265717565737420616c72656164792073756260008201527f6d6974746564206f7220636f6e74726163746f7220616c72656164792072656760208201527f6973746572656400000000000000000000000000000000000000000000000000604082015250565b60006145c6604783613929565b91506145d182614544565b606082019050919050565b600060208201905081810360008301526145f5816145b9565b9050919050565b7f4e6f206163746976652074656e64657200000000000000000000000000000000600082015250565b6000614632601083613929565b915061463d826145fc565b602082019050919050565b6000602082019050818103600083015261466181614625565b9050919050565b600081546146758161401d565b61467f8186613929565b9450600182166000811461469a57600181146146b0576146e3565b60ff1983168652811515602002860193506146e3565b6146b98561404e565b60005b838110156146db578154818901526001820191506020810190506146bc565b808801955050505b50505092915050565b600060808201905081810360008301526147068187614668565b9050818103602083015261471a8186614668565b9050614729604083018561390f565b6147366060830184613a6b565b95945050505050565b600061474a826136da565b91507fffffffffffffffffffffffffffffffffffffffffffffffffffffffffffffffff820361477c5761477b613f8b565b5b600182019050919050565b7f426964206e6f74207375626d6974746564000000000000000000000000000000600082015250565b60006147bd601183613929565b91506147c882614787565b602082019050919050565b600060208201905081810360008301526147ec816147b0565b9050919050565b60006147fe826136da565b9150614809836136da565b925082820390508181111561482157614820613f8b565b5b92915050565b7f4e487b7100000000000000000000000000000000000000000000000000000000600052603160045260246000fd5b7f54656e646572207375626d697373696f6e207374696c6c206f70656e00000000600082015250565b600061488c601c83613929565b915061489782614856565b602082019050919050565b600060208201905081810360008301526148bb8161487f565b9050919050565b60006040820190506148d7600083018561390f565b81810360208301526148e98184614668565b9050939250505056fea2646970667358221220310dd2cab97af5064796b1a9074457d9ff04cf7e72fc4b38dc74d004ea81a76f64736f6c634300081b0033",
  "linkReferences": {},
  "deployedLinkReferences": {}
}