{
  "_format": "hh-sol-artifact-1",
  "contractName": "BidChain",
  "sourceName": "contracts/e-procurement.sol",
  "abi": [
    {
      "inputs": [],
      "stateMutability": "nonpayable",
      "type": "constructor"
    },
    {
      "anonymous": false,
      "inputs": [
        {
          "indexed": true,
          "internalType": "address",
          "name": "contractor",
          "type": "address"
        },
        {
          "indexed": false,
          "internalType": "uint256",
          "name": "amount",
          "type": "uint256"
        },
        {
          "indexed": false,
          "internalType": "string",
          "name": "ipfsHash",
          "type": "string"
        }
      ],
      "name": "BidSubmitted",
      "type": "event"
    },
    {
      "anonymous": false,
      "inputs": [
        {
          "indexed": true,
          "internalType": "address",
          "name": "contractor",
          "type": "address"
        }
      ],
      "name": "BidWithdrawn",
      "type": "event"
    },
    {
      "anonymous": false,
      "inputs": [
        {
          "indexed": false,
          "internalType": "address",
          "name": "contractorAddress",
          "type": "address"
        },
        {
          "indexed": false,
          "internalType": "string",
          "name": "companyName",
          "type": "string"
        },
        {
          "indexed": false,
          "internalType": "string",
          "name": "email",
          "type": "string"
        }
      ],
      "name": "ContractorDeleted",
      "type": "event"
    },
    {
      "anonymous": false,
      "inputs": [
        {
          "indexed": false,
          "internalType": "address",
          "name": "contractorAddress",
          "type": "address"
        },
        {
          "indexed": false,
          "internalType": "string",
          "name": "companyName",
          "type": "string"
        },
        {
          "indexed": false,
          "internalType": "string",
          "name": "email",
          "type": "string"
        }
      ],
      "name": "ContractorRegistered",
      "type": "event"
    },
    {
      "anonymous": false,
      "inputs": [
        {
          "indexed": false,
          "internalType": "address",
          "name": "contractorAddress",
          "type": "address"
        },
        {
          "indexed": false,
          "internalType": "string",
          "name": "companyName",
          "type": "string"
        },
        {
          "indexed": false,
          "internalType": "string",
          "name": "email",
          "type": "string"
        }
      ],
      "name": "ContractorRegistrationRequested",
      "type": "event"
    },
    {
      "anonymous": false,
      "inputs": [
        {
          "indexed": false,
          "internalType": "string",
          "name": "description",
          "type": "string"
        },
        {
          "indexed": false,
          "internalType": "string",
          "name": "noticeDocumentHash",
          "type": "string"
        },
        {
          "indexed": false,
          "internalType": "uint256",
          "name": "endTime",
          "type": "uint256"
        },
        {
          "indexed": false,
          "internalType": "int256",
          "name": "additionalInfo",
          "type": "int256"
        }
      ],
      "name": "TenderOpened",
      "type": "event"
    },
    {
      "anonymous": false,
      "inputs": [
        {
          "indexed": true,
          "internalType": "address",
          "name": "winner",
          "type": "address"
        },
        {
          "indexed": false,
          "internalType": "uint256",
          "name": "winningBid",
          "type": "uint256"
        },
        {
          "indexed": false,
          "internalType": "string",
          "name": "winnerDocumentHash",
          "type": "string"
        }
      ],
      "name": "WinnerAnnounced",
      "type": "event"
    },
    {
      "inputs": [],
      "name": "activeTender",
      "outputs": [
        {
          "internalType": "string",
          "name": "description",
          "type": "string"
        },
        {
          "internalType": "string",
          "name": "noticeDocumentHash",
          "type": "string"
        },
        {
          "internalType": "uint256",
          "name": "submissionEndTime",
          "type": "uint256"
        },
        {
          "internalType": "bool",
          "name": "isOpen",
          "type": "bool"
        },
        {
          "internalType": "address",
          "name": "winner",
          "type": "address"
        },
        {
          "internalType": "int256",
          "name": "additionalInfo",
          "type": "int256"
        }
      ],
      "stateMutability": "view",
      "type": "function"
    },
    {
      "inputs": [
        {
          "internalType": "uint256",
          "name": "",
          "type": "uint256"
        }
      ],
      "name": "addressList",
      "outputs": [
        {
          "internalType": "address",
          "name": "",
          "type": "address"
        }
      ],
      "stateMutability": "view",
      "type": "function"
    },
    {
      "inputs": [
        {
          "internalType": "address",
          "name": "_winner",
          "type": "address"
        }
      ],
      "name": "announceWinner",
      "outputs": [],
      "stateMutability": "nonpayable",
      "type": "function"
    },
    {
      "inputs": [
        {
          "internalType": "uint256",
          "name": "",
          "type": "uint256"
        }
      ],
      "name": "bidderAddresses",
      "outputs": [
        {
          "internalType": "address",
          "name": "",
          "type": "address"
        }
      ],
      "stateMutability": "view",
      "type": "function"
    },
    {
      "inputs": [
        {
          "internalType": "address",
          "name": "",
          "type": "address"
        }
      ],
      "name": "bids",
      "outputs": [
        {
          "internalType": "uint256",
          "name": "amount",
          "type": "uint256"
        },
        {
          "internalType": "string",
          "name": "ipfsHash",
          "type": "string"
        },
        {
          "internalType": "string",
          "name": "encryptedKeyHash",
          "type": "string"
        },
        {
          "internalType": "bool",
          "name": "submitted",
          "type": "bool"
        },
        {
          "internalType": "bool",
          "name": "isWinner",
          "type": "bool"
        },
        {
          "internalType": "bool",
          "name": "isWithdrawn",
          "type": "bool"
        }
      ],
      "stateMutability": "view",
      "type": "function"
    },
    {
      "inputs": [],
      "name": "cancelTender",
      "outputs": [],
      "stateMutability": "nonpayable",
      "type": "function"
    },
    {
      "inputs": [],
      "name": "closeExpiredTender",
      "outputs": [],
      "stateMutability": "nonpayable",
      "type": "function"
    },
    {
      "inputs": [
        {
          "internalType": "address",
          "name": "",
          "type": "address"
        }
      ],
      "name": "contractors",
      "outputs": [
        {
          "internalType": "address",
          "name": "contractorAddress",
          "type": "address"
        },
        {
          "internalType": "string",
          "name": "companyName",
          "type": "string"
        },
        {
          "internalType": "string",
          "name": "email",
          "type": "string"
        },
        {
          "internalType": "bool",
          "name": "isRegistered",
          "type": "bool"
        }
      ],
      "stateMutability": "view",
      "type": "function"
    },
    {
      "inputs": [
        {
          "internalType": "address",
          "name": "_contractorAddress",
          "type": "address"
        }
      ],
      "name": "deleteRegisteredContractor",
      "outputs": [],
      "stateMutability": "nonpayable",
      "type": "function"
    },
    {
      "inputs": [],
      "name": "getBidderAddresses",
      "outputs": [
        {
          "internalType": "address[]",
          "name": "",
          "type": "address[]"
        }
      ],
      "stateMutability": "view",
      "type": "function"
    },
    {
      "inputs": [],
      "name": "getContractOwner",
      "outputs": [
        {
          "internalType": "address",
          "name": "",
          "type": "address"
        }
      ],
      "stateMutability": "view",
      "type": "function"
    },
    {
      "inputs": [],
      "name": "getPendingContractors",
      "outputs": [
        {
          "components": [
            {
              "internalType": "address",
              "name": "contractorAddress",
              "type": "address"
            },
            {
              "internalType": "string",
              "name": "companyName",
              "type": "string"
            },
            {
              "internalType": "string",
              "name": "email",
              "type": "string"
            },
            {
              "internalType": "bool",
              "name": "isRegistered",
              "type": "bool"
            }
          ],
          "internalType": "struct BidChain.Contractor[]",
          "name": "",
          "type": "tuple[]"
        }
      ],
      "stateMutability": "view",
      "type": "function"
    },
    {
      "inputs": [],
      "name": "getRegisteredContractors",
      "outputs": [
        {
          "components": [
            {
              "internalType": "address",
              "name": "contractorAddress",
              "type": "address"
            },
            {
              "internalType": "string",
              "name": "companyName",
              "type": "string"
            },
            {
              "internalType": "string",
              "name": "email",
              "type": "string"
            },
            {
              "internalType": "bool",
              "name": "isRegistered",
              "type": "bool"
            }
          ],
          "internalType": "struct BidChain.Contractor[]",
          "name": "",
          "type": "tuple[]"
        }
      ],
      "stateMutability": "view",
      "type": "function"
    },
    {
      "inputs": [],
      "name": "getWinnerDetails",
      "outputs": [
        {
          "internalType": "address",
          "name": "",
          "type": "address"
        },
        {
          "internalType": "uint256",
          "name": "",
          "type": "uint256"
        },
        {
          "internalType": "string",
          "name": "",
          "type": "string"
        }
      ],
      "stateMutability": "view",
      "type": "function"
    },
    {
      "inputs": [
        {
          "internalType": "address",
          "name": "_contractor",
          "type": "address"
        }
      ],
      "name": "hasContractorSubmittedBid",
      "outputs": [
        {
          "internalType": "bool",
          "name": "",
          "type": "bool"
        }
      ],
      "stateMutability": "view",
      "type": "function"
    },
    {
      "inputs": [
        {
          "internalType": "address",
          "name": "",
          "type": "address"
        }
      ],
      "name": "hasSubmittedBid",
      "outputs": [
        {
          "internalType": "bool",
          "name": "",
          "type": "bool"
        }
      ],
      "stateMutability": "view",
      "type": "function"
    },
    {
      "inputs": [],
      "name": "isTenderOpen",
      "outputs": [
        {
          "internalType": "bool",
          "name": "",
          "type": "bool"
        }
      ],
      "stateMutability": "view",
      "type": "function"
    },
    {
      "inputs": [
        {
          "internalType": "string",
          "name": "_description",
          "type": "string"
        },
        {
          "internalType": "string",
          "name": "_noticeDocumentHash",
          "type": "string"
        },
        {
          "internalType": "uint256",
          "name": "_duration",
          "type": "uint256"
        }
      ],
      "name": "openTender",
      "outputs": [],
      "stateMutability": "nonpayable",
      "type": "function"
    },
    {
      "inputs": [],
      "name": "owner",
      "outputs": [
        {
          "internalType": "address",
          "name": "",
          "type": "address"
        }
      ],
      "stateMutability": "view",
      "type": "function"
    },
    {
      "inputs": [
        {
          "internalType": "address",
          "name": "",
          "type": "address"
        }
      ],
      "name": "pendingContractors",
      "outputs": [
        {
          "internalType": "address",
          "name": "contractorAddress",
          "type": "address"
        },
        {
          "internalType": "string",
          "name": "companyName",
          "type": "string"
        },
        {
          "internalType": "string",
          "name": "email",
          "type": "string"
        },
        {
          "internalType": "bool",
          "name": "isRegistered",
          "type": "bool"
        }
      ],
      "stateMutability": "view",
      "type": "function"
    },
    {
      "inputs": [
        {
          "internalType": "address",
          "name": "_contractorAddress",
          "type": "address"
        }
      ],
      "name": "registerContractor",
      "outputs": [],
      "stateMutability": "nonpayable",
      "type": "function"
    },
    {
      "inputs": [
        {
          "internalType": "uint256",
          "name": "",
          "type": "uint256"
        }
      ],
      "name": "registeredContractors",
      "outputs": [
        {
          "internalType": "address",
          "name": "",
          "type": "address"
        }
      ],
      "stateMutability": "view",
      "type": "function"
    },
    {
      "inputs": [
        {
          "internalType": "uint256",
          "name": "_amount",
          "type": "uint256"
        },
        {
          "internalType": "string",
          "name": "_ipfsHash",
          "type": "string"
        },
        {
          "internalType": "string",
          "name": "_encryptedKeyHash",
          "type": "string"
        }
      ],
      "name": "submitBid",
      "outputs": [],
      "stateMutability": "nonpayable",
      "type": "function"
    },
    {
      "inputs": [
        {
          "internalType": "string",
          "name": "_companyName",
          "type": "string"
        },
        {
          "internalType": "string",
          "name": "_email",
          "type": "string"
        }
      ],
      "name": "submitRegistrationRequest",
      "outputs": [],
      "stateMutability": "nonpayable",
      "type": "function"
    },
    {
      "inputs": [],
      "name": "viewActiveTenderDetails",
      "outputs": [
        {
          "internalType": "string",
          "name": "description",
          "type": "string"
        },
        {
          "internalType": "string",
          "name": "noticeDocumentHash",
          "type": "string"
        },
        {
          "internalType": "uint256",
          "name": "submissionEndTime",
          "type": "uint256"
        },
        {
          "internalType": "int256",
          "name": "additionalInfo",
          "type": "int256"
        },
        {
          "internalType": "bool",
          "name": "isOpen",
          "type": "bool"
        }
      ],
      "stateMutability": "view",
      "type": "function"
    },
    {
      "inputs": [],
      "name": "viewMyBid",
      "outputs": [
        {
          "components": [
            {
              "internalType": "uint256",
              "name": "amount",
              "type": "uint256"
            },
            {
              "internalType": "string",
              "name": "ipfsHash",
              "type": "string"
            },
            {
              "internalType": "string",
              "name": "encryptedKeyHash",
              "type": "string"
            },
            {
              "internalType": "bool",
              "name": "submitted",
              "type": "bool"
            },
            {
              "internalType": "bool",
              "name": "isWinner",
              "type": "bool"
            },
            {
              "internalType": "bool",
              "name": "isWithdrawn",
              "type": "bool"
            }
          ],
          "internalType": "struct BidChain.Bid",
          "name": "",
          "type": "tuple"
        }
      ],
      "stateMutability": "view",
      "type": "function"
    },
    {
      "inputs": [],
      "name": "viewSubmittedBids",
      "outputs": [
        {
          "internalType": "address[]",
          "name": "",
          "type": "address[]"
        },
        {
          "internalType": "uint256[]",
          "name": "",
          "type": "uint256[]"
        },
        {
          "internalType": "string[]",
          "name": "",
          "type": "string[]"
        },
        {
          "internalType": "string[]",
          "name": "",
          "type": "string[]"
        }
      ],
      "stateMutability": "view",
      "type": "function"
    },
    {
      "inputs": [],
      "name": "withdrawBid",
      "outputs": [],
      "stateMutability": "nonpayable",
      "type": "function"
    }
  ],
  "bytecode": "0x6080604052348015600f57600080fd5b50336000806101000a81548173ffffffffffffffffffffffffffffffffffffffff021916908373ffffffffffffffffffffffffffffffffffffffff1602179055506159ff8061005f6000396000f3fe608060405234801561001057600080fd5b50600436106101c45760003560e01c80638bf738ff116100f9578063b810fb4311610097578063c75e97c511610071578063c75e97c5146104bc578063e35569a6146104ec578063e6a20c821461051f578063ec39335f14610552576101c4565b8063b810fb4314610452578063b8da1b0c14610482578063c27677e21461049e576101c4565b80639ac7fa14116100d35780639ac7fa14146103ed5780639f0521b81461040e578063ad5bc4771461042c578063b366a47314610448576101c4565b80638bf738ff1461038e5780638d16e785146103ac5780638da5cb5b146103cf576101c4565b8063442890d5116101665780636a1738de116101405780636a1738de14610316578063713c83b3146103465780637cd12899146103625780637ea942c814610384576101c4565b8063442890d5146102a757806362d78335146102c557806362ea82db146102e1576101c4565b80632561a429116101a25780632561a429146102335780632fb3c48f1461024f57806337271cc71461027f5780633db9cd8914610289576101c4565b80630430427c146101c957806309c64fb9146101e55780630d7e814014610203575b600080fd5b6101e360048036038101906101de919061444c565b610572565b005b6101ed61090c565b6040516101fa9190614610565b60405180910390f35b61021d60048036038101906102189190614690565b610c00565b60405161022a91906146cc565b60405180910390f35b61024d60048036038101906102489190614690565b610c56565b005b610269600480360381019061026491906146e7565b6111c6565b6040516102769190614723565b60405180910390f35b610287611205565b005b610291611695565b60405161029e91906146cc565b60405180910390f35b6102af6116af565b6040516102bc9190614723565b60405180910390f35b6102df60048036038101906102da919061473e565b6116d8565b005b6102fb60048036038101906102f69190614690565b611a75565b60405161030d96959493929190614822565b60405180910390f35b610330600480360381019061032b91906146e7565b611be8565b60405161033d9190614723565b60405180910390f35b610360600480360381019061035b9190614891565b611c27565b005b61036a611ebb565b60405161037b959493929190614922565b60405180910390f35b61038c61214b565b005b610396612285565b6040516103a39190614abe565b60405180910390f35b6103b4612727565b6040516103c696959493929190614ae0565b60405180910390f35b6103d761288e565b6040516103e49190614723565b60405180910390f35b6103f56128b2565b6040516104059493929190614d6f565b60405180910390f35b610416612e1d565b6040516104239190614abe565b60405180910390f35b61044660048036038101906104419190614690565b6130dd565b005b610450613648565b005b61046c600480360381019061046791906146e7565b613908565b6040516104799190614723565b60405180910390f35b61049c60048036038101906104979190614690565b613947565b005b6104a6613c01565b6040516104b39190614dd0565b60405180910390f35b6104d660048036038101906104d19190614690565b613c8f565b6040516104e391906146cc565b60405180910390f35b61050660048036038101906105019190614690565b613caf565b6040516105169493929190614df2565b60405180910390f35b61053960048036038101906105349190614690565b613e1c565b6040516105499493929190614df2565b60405180910390f35b61055a613f89565b60405161056993929190614e45565b60405180910390f35b60008054906101000a900473ffffffffffffffffffffffffffffffffffffffff1673ffffffffffffffffffffffffffffffffffffffff163373ffffffffffffffffffffffffffffffffffffffff1614610600576040517f08c379a00000000000000000000000000000000000000000000000000000000081526004016105f790614ecf565b60405180910390fd5b600160030160009054906101000a900460ff1615610653576040517f08c379a000000000000000000000000000000000000000000000000000000000815260040161064a90614f3b565b60405180910390fd5b60005b600b805490508110156107b2576000600b828154811061067957610678614f5b565b5b9060005260206000200160009054906101000a900473ffffffffffffffffffffffffffffffffffffffff1690506000600960008373ffffffffffffffffffffffffffffffffffffffff1673ffffffffffffffffffffffffffffffffffffffff16815260200190815260200160002060006101000a81548160ff021916908315150217905550600760008273ffffffffffffffffffffffffffffffffffffffff1673ffffffffffffffffffffffffffffffffffffffff16815260200190815260200160002060008082016000905560018201600061075691906141c2565b60028201600061076691906141c2565b6003820160006101000a81549060ff02191690556003820160016101000a81549060ff02191690556003820160026101000a81549060ff02191690555050508080600101915050610656565b50600b60006107c19190614202565b6040518060c0016040528084815260200183815260200182426107e49190614fb9565b8152602001600115158152602001600073ffffffffffffffffffffffffffffffffffffffff16815260200160008152506001600082015181600001908161082b91906151f9565b50602082015181600101908161084191906151f9565b506040820151816002015560608201518160030160006101000a81548160ff02191690831515021790555060808201518160030160016101000a81548173ffffffffffffffffffffffffffffffffffffffff021916908373ffffffffffffffffffffffffffffffffffffffff16021790555060a082015181600401559050507f0c933c861f93878dd04b07a9cd98e725df697e7d1095846f00b18219e4f17ce983836001600201546001600401546040516108ff94939291906152cb565b60405180910390a1505050565b610914614223565b600660003373ffffffffffffffffffffffffffffffffffffffff1673ffffffffffffffffffffffffffffffffffffffff16815260200190815260200160002060030160009054906101000a900460ff166109a3576040517f08c379a000000000000000000000000000000000000000000000000000000000815260040161099a9061536a565b60405180910390fd5b600760003373ffffffffffffffffffffffffffffffffffffffff1673ffffffffffffffffffffffffffffffffffffffff16815260200190815260200160002060030160009054906101000a900460ff16610a32576040517f08c379a0000000000000000000000000000000000000000000000000000000008152600401610a29906153d6565b60405180910390fd5b600760003373ffffffffffffffffffffffffffffffffffffffff1673ffffffffffffffffffffffffffffffffffffffff1681526020019081526020016000206040518060c001604052908160008201548152602001600182018054610a969061501c565b80601f0160208091040260200160405190810160405280929190818152602001828054610ac29061501c565b8015610b0f5780601f10610ae457610100808354040283529160200191610b0f565b820191906000526020600020905b815481529060010190602001808311610af257829003601f168201915b50505050508152602001600282018054610b289061501c565b80601f0160208091040260200160405190810160405280929190818152602001828054610b549061501c565b8015610ba15780601f10610b7657610100808354040283529160200191610ba1565b820191906000526020600020905b815481529060010190602001808311610b8457829003601f168201915b505050505081526020016003820160009054906101000a900460ff161515151581526020016003820160019054906101000a900460ff161515151581526020016003820160029054906101000a900460ff161515151581525050905090565b6000600960008373ffffffffffffffffffffffffffffffffffffffff1673ffffffffffffffffffffffffffffffffffffffff16815260200190815260200160002060009054906101000a900460ff169050919050565b60008054906101000a900473ffffffffffffffffffffffffffffffffffffffff1673ffffffffffffffffffffffffffffffffffffffff163373ffffffffffffffffffffffffffffffffffffffff1614610ce4576040517f08c379a0000000000000000000000000000000000000000000000000000000008152600401610cdb90614ecf565b60405180910390fd5b600073ffffffffffffffffffffffffffffffffffffffff16600860008373ffffffffffffffffffffffffffffffffffffffff1673ffffffffffffffffffffffffffffffffffffffff16815260200190815260200160002060000160009054906101000a900473ffffffffffffffffffffffffffffffffffffffff1673ffffffffffffffffffffffffffffffffffffffff1603610db5576040517f08c379a0000000000000000000000000000000000000000000000000000000008152600401610dac90615442565b60405180910390fd5b6000600860008373ffffffffffffffffffffffffffffffffffffffff1673ffffffffffffffffffffffffffffffffffffffff1681526020019081526020016000206040518060800160405290816000820160009054906101000a900473ffffffffffffffffffffffffffffffffffffffff1673ffffffffffffffffffffffffffffffffffffffff1673ffffffffffffffffffffffffffffffffffffffff168152602001600182018054610e679061501c565b80601f0160208091040260200160405190810160405280929190818152602001828054610e939061501c565b8015610ee05780601f10610eb557610100808354040283529160200191610ee0565b820191906000526020600020905b815481529060010190602001808311610ec357829003601f168201915b50505050508152602001600282018054610ef99061501c565b80601f0160208091040260200160405190810160405280929190818152602001828054610f259061501c565b8015610f725780601f10610f4757610100808354040283529160200191610f72565b820191906000526020600020905b815481529060010190602001808311610f5557829003601f168201915b505050505081526020016003820160009054906101000a900460ff1615151515815250509050600181606001901515908115158152505080600660008473ffffffffffffffffffffffffffffffffffffffff1673ffffffffffffffffffffffffffffffffffffffff16815260200190815260200160002060008201518160000160006101000a81548173ffffffffffffffffffffffffffffffffffffffff021916908373ffffffffffffffffffffffffffffffffffffffff160217905550602082015181600101908161104591906151f9565b50604082015181600201908161105b91906151f9565b5060608201518160030160006101000a81548160ff021916908315150217905550905050600c829080600181540180825580915050600190039060005260206000200160009091909190916101000a81548173ffffffffffffffffffffffffffffffffffffffff021916908373ffffffffffffffffffffffffffffffffffffffff160217905550600860008373ffffffffffffffffffffffffffffffffffffffff1673ffffffffffffffffffffffffffffffffffffffff168152602001908152602001600020600080820160006101000a81549073ffffffffffffffffffffffffffffffffffffffff021916905560018201600061115991906141c2565b60028201600061116991906141c2565b6003820160006101000a81549060ff021916905550507f48db77b84f62eb159d6efadc8200961208efc86642bbcf53531aefb6615c88ca82826020015183604001516040516111ba93929190615462565b60405180910390a15050565b600b81815481106111d657600080fd5b906000526020600020016000915054906101000a900473ffffffffffffffffffffffffffffffffffffffff1681565b600660003373ffffffffffffffffffffffffffffffffffffffff1673ffffffffffffffffffffffffffffffffffffffff16815260200190815260200160002060030160009054906101000a900460ff16611294576040517f08c379a000000000000000000000000000000000000000000000000000000000815260040161128b9061536a565b60405180910390fd5b60016002015442111580156112b85750600160030160009054906101000a900460ff165b6112f7576040517f08c379a00000000000000000000000000000000000000000000000000000000081526004016112ee906154f3565b60405180910390fd5b600760003373ffffffffffffffffffffffffffffffffffffffff1673ffffffffffffffffffffffffffffffffffffffff16815260200190815260200160002060030160009054906101000a900460ff16611386576040517f08c379a000000000000000000000000000000000000000000000000000000000815260040161137d906153d6565b60405180910390fd5b600760003373ffffffffffffffffffffffffffffffffffffffff1673ffffffffffffffffffffffffffffffffffffffff16815260200190815260200160002060030160029054906101000a900460ff1615611416576040517f08c379a000000000000000000000000000000000000000000000000000000000815260040161140d9061555f565b60405180910390fd5b6001600760003373ffffffffffffffffffffffffffffffffffffffff1673ffffffffffffffffffffffffffffffffffffffff16815260200190815260200160002060030160026101000a81548160ff0219169083151502179055506000600960003373ffffffffffffffffffffffffffffffffffffffff1673ffffffffffffffffffffffffffffffffffffffff16815260200190815260200160002060006101000a81548160ff02191690831515021790555060005b600b8054905081101561164f573373ffffffffffffffffffffffffffffffffffffffff16600b828154811061150457611503614f5b565b5b9060005260206000200160009054906101000a900473ffffffffffffffffffffffffffffffffffffffff1673ffffffffffffffffffffffffffffffffffffffff160361164257600b6001600b8054905061155e919061557f565b8154811061156f5761156e614f5b565b5b9060005260206000200160009054906101000a900473ffffffffffffffffffffffffffffffffffffffff16600b82815481106115ae576115ad614f5b565b5b9060005260206000200160006101000a81548173ffffffffffffffffffffffffffffffffffffffff021916908373ffffffffffffffffffffffffffffffffffffffff160217905550600b805480611608576116076155b3565b5b6001900381819060005260206000200160006101000a81549073ffffffffffffffffffffffffffffffffffffffff0219169055905561164f565b80806001019150506114cc565b503373ffffffffffffffffffffffffffffffffffffffff167fe4b292cd5a573e1d0cf3c41a161b96cd6639bf4523291e9efbd663177c99d74460405160405180910390a2565b6000600160030160009054906101000a900460ff16905090565b60008060009054906101000a900473ffffffffffffffffffffffffffffffffffffffff16905090565b600660003373ffffffffffffffffffffffffffffffffffffffff1673ffffffffffffffffffffffffffffffffffffffff16815260200190815260200160002060030160009054906101000a900460ff16611767576040517f08c379a000000000000000000000000000000000000000000000000000000000815260040161175e9061536a565b60405180910390fd5b600160020154421115801561178b5750600160030160009054906101000a900460ff165b6117ca576040517f08c379a00000000000000000000000000000000000000000000000000000000081526004016117c1906154f3565b60405180910390fd5b600960003373ffffffffffffffffffffffffffffffffffffffff1673ffffffffffffffffffffffffffffffffffffffff16815260200190815260200160002060009054906101000a900460ff1615611857576040517f08c379a000000000000000000000000000000000000000000000000000000000815260040161184e9061562e565b60405180910390fd5b6040518060c0016040528084815260200183815260200182815260200160011515815260200160001515815260200160001515815250600760003373ffffffffffffffffffffffffffffffffffffffff1673ffffffffffffffffffffffffffffffffffffffff1681526020019081526020016000206000820151816000015560208201518160010190816118eb91906151f9565b50604082015181600201908161190191906151f9565b5060608201518160030160006101000a81548160ff02191690831515021790555060808201518160030160016101000a81548160ff02191690831515021790555060a08201518160030160026101000a81548160ff0219169083151502179055509050506001600960003373ffffffffffffffffffffffffffffffffffffffff1673ffffffffffffffffffffffffffffffffffffffff16815260200190815260200160002060006101000a81548160ff021916908315150217905550600b339080600181540180825580915050600190039060005260206000200160009091909190916101000a81548173ffffffffffffffffffffffffffffffffffffffff021916908373ffffffffffffffffffffffffffffffffffffffff1602179055503373ffffffffffffffffffffffffffffffffffffffff167f3eb2fab71a1de5753e125aa7b47368bd108ec2bff6e86e69cb009d365ba2f2718484604051611a6892919061564e565b60405180910390a2505050565b6007602052806000526040600020600091509050806000015490806001018054611a9e9061501c565b80601f0160208091040260200160405190810160405280929190818152602001828054611aca9061501c565b8015611b175780601f10611aec57610100808354040283529160200191611b17565b820191906000526020600020905b815481529060010190602001808311611afa57829003601f168201915b505050505090806002018054611b2c9061501c565b80601f0160208091040260200160405190810160405280929190818152602001828054611b589061501c565b8015611ba55780601f10611b7a57610100808354040283529160200191611ba5565b820191906000526020600020905b815481529060010190602001808311611b8857829003601f168201915b5050505050908060030160009054906101000a900460ff16908060030160019054906101000a900460ff16908060030160029054906101000a900460ff16905086565b600c8181548110611bf857600080fd5b906000526020600020016000915054906101000a900473ffffffffffffffffffffffffffffffffffffffff1681565b600073ffffffffffffffffffffffffffffffffffffffff16600860003373ffffffffffffffffffffffffffffffffffffffff1673ffffffffffffffffffffffffffffffffffffffff16815260200190815260200160002060000160009054906101000a900473ffffffffffffffffffffffffffffffffffffffff1673ffffffffffffffffffffffffffffffffffffffff16148015611ccb5750611cc93361411a565b155b611d0a576040517f08c379a0000000000000000000000000000000000000000000000000000000008152600401611d0190615716565b60405180910390fd5b60405180608001604052803373ffffffffffffffffffffffffffffffffffffffff16815260200183815260200182815260200160001515815250600860003373ffffffffffffffffffffffffffffffffffffffff1673ffffffffffffffffffffffffffffffffffffffff16815260200190815260200160002060008201518160000160006101000a81548173ffffffffffffffffffffffffffffffffffffffff021916908373ffffffffffffffffffffffffffffffffffffffff1602179055506020820151816001019081611ddf91906151f9565b506040820151816002019081611df591906151f9565b5060608201518160030160006101000a81548160ff021916908315150217905550905050600a339080600181540180825580915050600190039060005260206000200160009091909190916101000a81548173ffffffffffffffffffffffffffffffffffffffff021916908373ffffffffffffffffffffffffffffffffffffffff1602179055507f42e1ca0950bf6539d4204c340755718403c9f9db5e3152ba6a4aa765d784cff6338383604051611eaf93929190615462565b60405180910390a15050565b6060806000806000600160030160009054906101000a900460ff16611f15576040517f08c379a0000000000000000000000000000000000000000000000000000000008152600401611f0c90615782565b60405180910390fd5b600660003373ffffffffffffffffffffffffffffffffffffffff1673ffffffffffffffffffffffffffffffffffffffff16815260200190815260200160002060030160009054906101000a900460ff1680611fbb575060008054906101000a900473ffffffffffffffffffffffffffffffffffffffff1673ffffffffffffffffffffffffffffffffffffffff163373ffffffffffffffffffffffffffffffffffffffff16145b611ffa576040517f08c379a0000000000000000000000000000000000000000000000000000000008152600401611ff190614ecf565b60405180910390fd5b600160000160018001600160020154600160040154600160030160009054906101000a900460ff1684805461202e9061501c565b80601f016020809104026020016040519081016040528092919081815260200182805461205a9061501c565b80156120a75780601f1061207c576101008083540402835291602001916120a7565b820191906000526020600020905b81548152906001019060200180831161208a57829003601f168201915b505050505094508380546120ba9061501c565b80601f01602080910402602001604051908101604052809291908181526020018280546120e69061501c565b80156121335780601f1061210857610100808354040283529160200191612133565b820191906000526020600020905b81548152906001019060200180831161211657829003601f168201915b50505050509350945094509450945094509091929394565b60008054906101000a900473ffffffffffffffffffffffffffffffffffffffff1673ffffffffffffffffffffffffffffffffffffffff163373ffffffffffffffffffffffffffffffffffffffff16146121d9576040517f08c379a00000000000000000000000000000000000000000000000000000000081526004016121d090614ecf565b60405180910390fd5b600160030160009054906101000a900460ff1661222b576040517f08c379a000000000000000000000000000000000000000000000000000000000815260040161222290615782565b60405180910390fd5b600180600401819055507f0c933c861f93878dd04b07a9cd98e725df697e7d1095846f00b18219e4f17ce960016000016001800160016002015460016004015460405161227b9493929190615826565b60405180910390a1565b60606000805b600a8054905081101561238857600073ffffffffffffffffffffffffffffffffffffffff1660086000600a84815481106122c8576122c7614f5b565b5b9060005260206000200160009054906101000a900473ffffffffffffffffffffffffffffffffffffffff1673ffffffffffffffffffffffffffffffffffffffff1673ffffffffffffffffffffffffffffffffffffffff16815260200190815260200160002060000160009054906101000a900473ffffffffffffffffffffffffffffffffffffffff1673ffffffffffffffffffffffffffffffffffffffff161461237b57818061237790615879565b9250505b808060010191505061228b565b5060008167ffffffffffffffff8111156123a5576123a46142eb565b5b6040519080825280602002602001820160405280156123de57816020015b6123cb61425f565b8152602001906001900390816123c35790505b5090506000805b600a8054905081101561271d57600073ffffffffffffffffffffffffffffffffffffffff1660086000600a848154811061242257612421614f5b565b5b9060005260206000200160009054906101000a900473ffffffffffffffffffffffffffffffffffffffff1673ffffffffffffffffffffffffffffffffffffffff1673ffffffffffffffffffffffffffffffffffffffff16815260200190815260200160002060000160009054906101000a900473ffffffffffffffffffffffffffffffffffffffff1673ffffffffffffffffffffffffffffffffffffffff16146127105760086000600a83815481106124de576124dd614f5b565b5b9060005260206000200160009054906101000a900473ffffffffffffffffffffffffffffffffffffffff1673ffffffffffffffffffffffffffffffffffffffff1673ffffffffffffffffffffffffffffffffffffffff1681526020019081526020016000206040518060800160405290816000820160009054906101000a900473ffffffffffffffffffffffffffffffffffffffff1673ffffffffffffffffffffffffffffffffffffffff1673ffffffffffffffffffffffffffffffffffffffff1681526020016001820180546125b49061501c565b80601f01602080910402602001604051908101604052809291908181526020018280546125e09061501c565b801561262d5780601f106126025761010080835404028352916020019161262d565b820191906000526020600020905b81548152906001019060200180831161261057829003601f168201915b505050505081526020016002820180546126469061501c565b80601f01602080910402602001604051908101604052809291908181526020018280546126729061501c565b80156126bf5780601f10612694576101008083540402835291602001916126bf565b820191906000526020600020905b8154815290600101906020018083116126a257829003601f168201915b505050505081526020016003820160009054906101000a900460ff1615151515815250508383815181106126f6576126f5614f5b565b5b6020026020010181905250818061270c90615879565b9250505b80806001019150506123e5565b5081935050505090565b60018060000180546127389061501c565b80601f01602080910402602001604051908101604052809291908181526020018280546127649061501c565b80156127b15780601f10612786576101008083540402835291602001916127b1565b820191906000526020600020905b81548152906001019060200180831161279457829003601f168201915b5050505050908060010180546127c69061501c565b80601f01602080910402602001604051908101604052809291908181526020018280546127f29061501c565b801561283f5780601f106128145761010080835404028352916020019161283f565b820191906000526020600020905b81548152906001019060200180831161282257829003601f168201915b5050505050908060020154908060030160009054906101000a900460ff16908060030160019054906101000a900473ffffffffffffffffffffffffffffffffffffffff16908060040154905086565b60008054906101000a900473ffffffffffffffffffffffffffffffffffffffff1681565b60608060608060008054906101000a900473ffffffffffffffffffffffffffffffffffffffff1673ffffffffffffffffffffffffffffffffffffffff163373ffffffffffffffffffffffffffffffffffffffff1614612946576040517f08c379a000000000000000000000000000000000000000000000000000000000815260040161293d90614ecf565b60405180910390fd5b600160030160009054906101000a900460ff16612998576040517f08c379a000000000000000000000000000000000000000000000000000000000815260040161298f90615782565b60405180910390fd5b60018060040154146129df576040517f08c379a00000000000000000000000000000000000000000000000000000000081526004016129d69061590d565b60405180910390fd5b6000600b80549050905060008167ffffffffffffffff811115612a0557612a046142eb565b5b604051908082528060200260200182016040528015612a335781602001602082028036833780820191505090505b50905060008267ffffffffffffffff811115612a5257612a516142eb565b5b604051908082528060200260200182016040528015612a805781602001602082028036833780820191505090505b50905060008367ffffffffffffffff811115612a9f57612a9e6142eb565b5b604051908082528060200260200182016040528015612ad257816020015b6060815260200190600190039081612abd5790505b50905060008467ffffffffffffffff811115612af157612af06142eb565b5b604051908082528060200260200182016040528015612b2457816020015b6060815260200190600190039081612b0f5790505b50905060005b85811015612e05576000600b8281548110612b4857612b47614f5b565b5b9060005260206000200160009054906101000a900473ffffffffffffffffffffffffffffffffffffffff16905080868381518110612b8957612b88614f5b565b5b602002602001019073ffffffffffffffffffffffffffffffffffffffff16908173ffffffffffffffffffffffffffffffffffffffff1681525050600760008273ffffffffffffffffffffffffffffffffffffffff1673ffffffffffffffffffffffffffffffffffffffff16815260200190815260200160002060000154858381518110612c1957612c18614f5b565b5b602002602001018181525050600760008273ffffffffffffffffffffffffffffffffffffffff1673ffffffffffffffffffffffffffffffffffffffff1681526020019081526020016000206001018054612c729061501c565b80601f0160208091040260200160405190810160405280929190818152602001828054612c9e9061501c565b8015612ceb5780601f10612cc057610100808354040283529160200191612ceb565b820191906000526020600020905b815481529060010190602001808311612cce57829003601f168201915b5050505050848381518110612d0357612d02614f5b565b5b6020026020010181905250600760008273ffffffffffffffffffffffffffffffffffffffff1673ffffffffffffffffffffffffffffffffffffffff1681526020019081526020016000206002018054612d5b9061501c565b80601f0160208091040260200160405190810160405280929190818152602001828054612d879061501c565b8015612dd45780601f10612da957610100808354040283529160200191612dd4565b820191906000526020600020905b815481529060010190602001808311612db757829003601f168201915b5050505050838381518110612dec57612deb614f5b565b5b6020026020010181905250508080600101915050612b2a565b50838383839850985098509850505050505090919293565b60606000600c80549050905060008167ffffffffffffffff811115612e4557612e446142eb565b5b604051908082528060200260200182016040528015612e7e57816020015b612e6b61425f565b815260200190600190039081612e635790505b50905060005b828110156130d45760066000600c8381548110612ea457612ea3614f5b565b5b9060005260206000200160009054906101000a900473ffffffffffffffffffffffffffffffffffffffff1673ffffffffffffffffffffffffffffffffffffffff1673ffffffffffffffffffffffffffffffffffffffff1681526020019081526020016000206040518060800160405290816000820160009054906101000a900473ffffffffffffffffffffffffffffffffffffffff1673ffffffffffffffffffffffffffffffffffffffff1673ffffffffffffffffffffffffffffffffffffffff168152602001600182018054612f7a9061501c565b80601f0160208091040260200160405190810160405280929190818152602001828054612fa69061501c565b8015612ff35780601f10612fc857610100808354040283529160200191612ff3565b820191906000526020600020905b815481529060010190602001808311612fd657829003601f168201915b5050505050815260200160028201805461300c9061501c565b80601f01602080910402602001604051908101604052809291908181526020018280546130389061501c565b80156130855780601f1061305a57610100808354040283529160200191613085565b820191906000526020600020905b81548152906001019060200180831161306857829003601f168201915b505050505081526020016003820160009054906101000a900460ff1615151515815250508282815181106130bc576130bb614f5b565b5b60200260200101819052508080600101915050612e84565b50809250505090565b60008054906101000a900473ffffffffffffffffffffffffffffffffffffffff1673ffffffffffffffffffffffffffffffffffffffff163373ffffffffffffffffffffffffffffffffffffffff161461316b576040517f08c379a000000000000000000000000000000000000000000000000000000000815260040161316290614ecf565b60405180910390fd5b600660008273ffffffffffffffffffffffffffffffffffffffff1673ffffffffffffffffffffffffffffffffffffffff16815260200190815260200160002060030160009054906101000a900460ff166131fa576040517f08c379a00000000000000000000000000000000000000000000000000000000081526004016131f19061536a565b60405180910390fd5b6000600660008373ffffffffffffffffffffffffffffffffffffffff1673ffffffffffffffffffffffffffffffffffffffff1681526020019081526020016000206040518060800160405290816000820160009054906101000a900473ffffffffffffffffffffffffffffffffffffffff1673ffffffffffffffffffffffffffffffffffffffff1673ffffffffffffffffffffffffffffffffffffffff1681526020016001820180546132ac9061501c565b80601f01602080910402602001604051908101604052809291908181526020018280546132d89061501c565b80156133255780601f106132fa57610100808354040283529160200191613325565b820191906000526020600020905b81548152906001019060200180831161330857829003601f168201915b5050505050815260200160028201805461333e9061501c565b80601f016020809104026020016040519081016040528092919081815260200182805461336a9061501c565b80156133b75780601f1061338c576101008083540402835291602001916133b7565b820191906000526020600020905b81548152906001019060200180831161339a57829003601f168201915b505050505081526020016003820160009054906101000a900460ff1615151515815250509050600660008373ffffffffffffffffffffffffffffffffffffffff1673ffffffffffffffffffffffffffffffffffffffff168152602001908152602001600020600080820160006101000a81549073ffffffffffffffffffffffffffffffffffffffff021916905560018201600061345491906141c2565b60028201600061346491906141c2565b6003820160006101000a81549060ff0219169055505060005b600c80549050811015613600578273ffffffffffffffffffffffffffffffffffffffff16600c82815481106134b5576134b4614f5b565b5b9060005260206000200160009054906101000a900473ffffffffffffffffffffffffffffffffffffffff1673ffffffffffffffffffffffffffffffffffffffff16036135f357600c6001600c8054905061350f919061557f565b815481106135205761351f614f5b565b5b9060005260206000200160009054906101000a900473ffffffffffffffffffffffffffffffffffffffff16600c828154811061355f5761355e614f5b565b5b9060005260206000200160006101000a81548173ffffffffffffffffffffffffffffffffffffffff021916908373ffffffffffffffffffffffffffffffffffffffff160217905550600c8054806135b9576135b86155b3565b5b6001900381819060005260206000200160006101000a81549073ffffffffffffffffffffffffffffffffffffffff02191690559055613600565b808060010191505061347d565b507f6ea6015034906588e3324f5d414ebf92f452dd217b5af6b5fc79f81c86a3ed4b828260200151836040015160405161363c93929190615462565b60405180910390a15050565b60008054906101000a900473ffffffffffffffffffffffffffffffffffffffff1673ffffffffffffffffffffffffffffffffffffffff163373ffffffffffffffffffffffffffffffffffffffff16146136d6576040517f08c379a00000000000000000000000000000000000000000000000000000000081526004016136cd90614ecf565b60405180910390fd5b600160030160009054906101000a900460ff16613728576040517f08c379a000000000000000000000000000000000000000000000000000000000815260040161371f90615782565b60405180910390fd5b60016000808201600061373b91906141c2565b60018201600061374b91906141c2565b60028201600090556003820160006101000a81549060ff02191690556003820160016101000a81549073ffffffffffffffffffffffffffffffffffffffff02191690556004820160009055505060005b600b805490508110156138f7576000600b82815481106137be576137bd614f5b565b5b9060005260206000200160009054906101000a900473ffffffffffffffffffffffffffffffffffffffff1690506000600960008373ffffffffffffffffffffffffffffffffffffffff1673ffffffffffffffffffffffffffffffffffffffff16815260200190815260200160002060006101000a81548160ff021916908315150217905550600760008273ffffffffffffffffffffffffffffffffffffffff1673ffffffffffffffffffffffffffffffffffffffff16815260200190815260200160002060008082016000905560018201600061389b91906141c2565b6002820160006138ab91906141c2565b6003820160006101000a81549060ff02191690556003820160016101000a81549060ff02191690556003820160026101000a81549060ff0219169055505050808060010191505061379b565b50600b60006139069190614202565b565b600a818154811061391857600080fd5b906000526020600020016000915054906101000a900473ffffffffffffffffffffffffffffffffffffffff1681565b60008054906101000a900473ffffffffffffffffffffffffffffffffffffffff1673ffffffffffffffffffffffffffffffffffffffff163373ffffffffffffffffffffffffffffffffffffffff16146139d5576040517f08c379a00000000000000000000000000000000000000000000000000000000081526004016139cc90614ecf565b60405180910390fd5b6001600201544211613a1c576040517f08c379a0000000000000000000000000000000000000000000000000000000008152600401613a1390615979565b60405180910390fd5b600160030160009054906101000a900460ff16613a6e576040517f08c379a0000000000000000000000000000000000000000000000000000000008152600401613a6590615782565b60405180910390fd5b6001600760008373ffffffffffffffffffffffffffffffffffffffff1673ffffffffffffffffffffffffffffffffffffffff16815260200190815260200160002060030160016101000a81548160ff0219169083151502179055506000600160030160006101000a81548160ff02191690831515021790555080600160030160016101000a81548173ffffffffffffffffffffffffffffffffffffffff021916908373ffffffffffffffffffffffffffffffffffffffff1602179055508073ffffffffffffffffffffffffffffffffffffffff167f1d564adc39126151d047f51e3431319d43e41d12fad4b2f28b26993d5e2843d3600760008473ffffffffffffffffffffffffffffffffffffffff1673ffffffffffffffffffffffffffffffffffffffff16815260200190815260200160002060000154600760008573ffffffffffffffffffffffffffffffffffffffff1673ffffffffffffffffffffffffffffffffffffffff168152602001908152602001600020600101604051613bf6929190615999565b60405180910390a250565b6060600b805480602002602001604051908101604052809291908181526020018280548015613c8557602002820191906000526020600020905b8160009054906101000a900473ffffffffffffffffffffffffffffffffffffffff1673ffffffffffffffffffffffffffffffffffffffff1681526020019060010190808311613c3b575b5050505050905090565b60096020528060005260406000206000915054906101000a900460ff1681565b60066020528060005260406000206000915090508060000160009054906101000a900473ffffffffffffffffffffffffffffffffffffffff1690806001018054613cf89061501c565b80601f0160208091040260200160405190810160405280929190818152602001828054613d249061501c565b8015613d715780601f10613d4657610100808354040283529160200191613d71565b820191906000526020600020905b815481529060010190602001808311613d5457829003601f168201915b505050505090806002018054613d869061501c565b80601f0160208091040260200160405190810160405280929190818152602001828054613db29061501c565b8015613dff5780601f10613dd457610100808354040283529160200191613dff565b820191906000526020600020905b815481529060010190602001808311613de257829003601f168201915b5050505050908060030160009054906101000a900460ff16905084565b60086020528060005260406000206000915090508060000160009054906101000a900473ffffffffffffffffffffffffffffffffffffffff1690806001018054613e659061501c565b80601f0160208091040260200160405190810160405280929190818152602001828054613e919061501c565b8015613ede5780601f10613eb357610100808354040283529160200191613ede565b820191906000526020600020905b815481529060010190602001808311613ec157829003601f168201915b505050505090806002018054613ef39061501c565b80601f0160208091040260200160405190810160405280929190818152602001828054613f1f9061501c565b8015613f6c5780601f10613f4157610100808354040283529160200191613f6c565b820191906000526020600020905b815481529060010190602001808311613f4f57829003601f168201915b5050505050908060030160009054906101000a900460ff16905084565b6000806060600160030160019054906101000a900473ffffffffffffffffffffffffffffffffffffffff1660076000600160030160019054906101000a900473ffffffffffffffffffffffffffffffffffffffff1673ffffffffffffffffffffffffffffffffffffffff1673ffffffffffffffffffffffffffffffffffffffff1681526020019081526020016000206000015460076000600160030160019054906101000a900473ffffffffffffffffffffffffffffffffffffffff1673ffffffffffffffffffffffffffffffffffffffff1673ffffffffffffffffffffffffffffffffffffffff16815260200190815260200160002060010180805461408f9061501c565b80601f01602080910402602001604051908101604052809291908181526020018280546140bb9061501c565b80156141085780601f106140dd57610100808354040283529160200191614108565b820191906000526020600020905b8154815290600101906020018083116140eb57829003601f168201915b50505050509050925092509250909192565b600080600090505b600c805490508110156141b7578273ffffffffffffffffffffffffffffffffffffffff16600c828154811061415a57614159614f5b565b5b9060005260206000200160009054906101000a900473ffffffffffffffffffffffffffffffffffffffff1673ffffffffffffffffffffffffffffffffffffffff16036141aa5760019150506141bd565b8080600101915050614122565b50600090505b919050565b5080546141ce9061501c565b6000825580601f106141e057506141ff565b601f0160209004906000526020600020908101906141fe919061429f565b5b50565b5080546000825590600052602060002090810190614220919061429f565b50565b6040518060c001604052806000815260200160608152602001606081526020016000151581526020016000151581526020016000151581525090565b6040518060800160405280600073ffffffffffffffffffffffffffffffffffffffff16815260200160608152602001606081526020016000151581525090565b5b808211156142b85760008160009055506001016142a0565b5090565b6000604051905090565b600080fd5b600080fd5b600080fd5b600080fd5b6000601f19601f8301169050919050565b7f4e487b7100000000000000000000000000000000000000000000000000000000600052604160045260246000fd5b614323826142da565b810181811067ffffffffffffffff82111715614342576143416142eb565b5b80604052505050565b60006143556142bc565b9050614361828261431a565b919050565b600067ffffffffffffffff821115614381576143806142eb565b5b61438a826142da565b9050602081019050919050565b82818337600083830152505050565b60006143b96143b484614366565b61434b565b9050828152602081018484840111156143d5576143d46142d5565b5b6143e0848285614397565b509392505050565b600082601f8301126143fd576143fc6142d0565b5b813561440d8482602086016143a6565b91505092915050565b6000819050919050565b61442981614416565b811461443457600080fd5b50565b60008135905061444681614420565b92915050565b600080600060608486031215614465576144646142c6565b5b600084013567ffffffffffffffff811115614483576144826142cb565b5b61448f868287016143e8565b935050602084013567ffffffffffffffff8111156144b0576144af6142cb565b5b6144bc868287016143e8565b92505060406144cd86828701614437565b9150509250925092565b6144e081614416565b82525050565b600081519050919050565b600082825260208201905092915050565b60005b83811015614520578082015181840152602081019050614505565b60008484015250505050565b6000614537826144e6565b61454181856144f1565b9350614551818560208601614502565b61455a816142da565b840191505092915050565b60008115159050919050565b61457a81614565565b82525050565b600060c08301600083015161459860008601826144d7565b50602083015184820360208601526145b0828261452c565b915050604083015184820360408601526145ca828261452c565b91505060608301516145df6060860182614571565b5060808301516145f26080860182614571565b5060a083015161460560a0860182614571565b508091505092915050565b6000602082019050818103600083015261462a8184614580565b905092915050565b600073ffffffffffffffffffffffffffffffffffffffff82169050919050565b600061465d82614632565b9050919050565b61466d81614652565b811461467857600080fd5b50565b60008135905061468a81614664565b92915050565b6000602082840312156146a6576146a56142c6565b5b60006146b48482850161467b565b91505092915050565b6146c681614565565b82525050565b60006020820190506146e160008301846146bd565b92915050565b6000602082840312156146fd576146fc6142c6565b5b600061470b84828501614437565b91505092915050565b61471d81614652565b82525050565b60006020820190506147386000830184614714565b92915050565b600080600060608486031215614757576147566142c6565b5b600061476586828701614437565b935050602084013567ffffffffffffffff811115614786576147856142cb565b5b614792868287016143e8565b925050604084013567ffffffffffffffff8111156147b3576147b26142cb565b5b6147bf868287016143e8565b9150509250925092565b6147d281614416565b82525050565b600082825260208201905092915050565b60006147f4826144e6565b6147fe81856147d8565b935061480e818560208601614502565b614817816142da565b840191505092915050565b600060c08201905061483760008301896147c9565b818103602083015261484981886147e9565b9050818103604083015261485d81876147e9565b905061486c60608301866146bd565b61487960808301856146bd565b61488660a08301846146bd565b979650505050505050565b600080604083850312156148a8576148a76142c6565b5b600083013567ffffffffffffffff8111156148c6576148c56142cb565b5b6148d2858286016143e8565b925050602083013567ffffffffffffffff8111156148f3576148f26142cb565b5b6148ff858286016143e8565b9150509250929050565b6000819050919050565b61491c81614909565b82525050565b600060a082019050818103600083015261493c81886147e9565b9050818103602083015261495081876147e9565b905061495f60408301866147c9565b61496c6060830185614913565b61497960808301846146bd565b9695505050505050565b600081519050919050565b600082825260208201905092915050565b6000819050602082019050919050565b6149b881614652565b82525050565b60006080830160008301516149d660008601826149af565b50602083015184820360208601526149ee828261452c565b91505060408301518482036040860152614a08828261452c565b9150506060830151614a1d6060860182614571565b508091505092915050565b6000614a3483836149be565b905092915050565b6000602082019050919050565b6000614a5482614983565b614a5e818561498e565b935083602082028501614a708561499f565b8060005b85811015614aac5784840389528151614a8d8582614a28565b9450614a9883614a3c565b925060208a01995050600181019050614a74565b50829750879550505050505092915050565b60006020820190508181036000830152614ad88184614a49565b905092915050565b600060c0820190508181036000830152614afa81896147e9565b90508181036020830152614b0e81886147e9565b9050614b1d60408301876147c9565b614b2a60608301866146bd565b614b376080830185614714565b614b4460a0830184614913565b979650505050505050565b600081519050919050565b600082825260208201905092915050565b6000819050602082019050919050565b6000614b8783836149af565b60208301905092915050565b6000602082019050919050565b6000614bab82614b4f565b614bb58185614b5a565b9350614bc083614b6b565b8060005b83811015614bf1578151614bd88882614b7b565b9750614be383614b93565b925050600181019050614bc4565b5085935050505092915050565b600081519050919050565b600082825260208201905092915050565b6000819050602082019050919050565b6000614c3683836144d7565b60208301905092915050565b6000602082019050919050565b6000614c5a82614bfe565b614c648185614c09565b9350614c6f83614c1a565b8060005b83811015614ca0578151614c878882614c2a565b9750614c9283614c42565b925050600181019050614c73565b5085935050505092915050565b600081519050919050565b600082825260208201905092915050565b6000819050602082019050919050565b6000614ce5838361452c565b905092915050565b6000602082019050919050565b6000614d0582614cad565b614d0f8185614cb8565b935083602082028501614d2185614cc9565b8060005b85811015614d5d5784840389528151614d3e8582614cd9565b9450614d4983614ced565b925060208a01995050600181019050614d25565b50829750879550505050505092915050565b60006080820190508181036000830152614d898187614ba0565b90508181036020830152614d9d8186614c4f565b90508181036040830152614db18185614cfa565b90508181036060830152614dc58184614cfa565b905095945050505050565b60006020820190508181036000830152614dea8184614ba0565b905092915050565b6000608082019050614e076000830187614714565b8181036020830152614e1981866147e9565b90508181036040830152614e2d81856147e9565b9050614e3c60608301846146bd565b95945050505050565b6000606082019050614e5a6000830186614714565b614e6760208301856147c9565b8181036040830152614e7981846147e9565b9050949350505050565b7f4e6f7420617574686f72697a6564000000000000000000000000000000000000600082015250565b6000614eb9600e836147d8565b9150614ec482614e83565b602082019050919050565b60006020820190508181036000830152614ee881614eac565b9050919050565b7f54656e64657220616c7265616479206f70656e00000000000000000000000000600082015250565b6000614f256013836147d8565b9150614f3082614eef565b602082019050919050565b60006020820190508181036000830152614f5481614f18565b9050919050565b7f4e487b7100000000000000000000000000000000000000000000000000000000600052603260045260246000fd5b7f4e487b7100000000000000000000000000000000000000000000000000000000600052601160045260246000fd5b6000614fc482614416565b9150614fcf83614416565b9250828201905080821115614fe757614fe6614f8a565b5b92915050565b7f4e487b7100000000000000000000000000000000000000000000000000000000600052602260045260246000fd5b6000600282049050600182168061503457607f821691505b60208210810361504757615046614fed565b5b50919050565b60008190508160005260206000209050919050565b60006020601f8301049050919050565b600082821b905092915050565b6000600883026150af7fffffffffffffffffffffffffffffffffffffffffffffffffffffffffffffffff82615072565b6150b98683615072565b95508019841693508086168417925050509392505050565b6000819050919050565b60006150f66150f16150ec84614416565b6150d1565b614416565b9050919050565b6000819050919050565b615110836150db565b61512461511c826150fd565b84845461507f565b825550505050565b600090565b61513961512c565b615144818484615107565b505050565b5b818110156151685761515d600082615131565b60018101905061514a565b5050565b601f8211156151ad5761517e8161504d565b61518784615062565b81016020851015615196578190505b6151aa6151a285615062565b830182615149565b50505b505050565b600082821c905092915050565b60006151d0600019846008026151b2565b1980831691505092915050565b60006151e983836151bf565b9150826002028217905092915050565b615202826144e6565b67ffffffffffffffff81111561521b5761521a6142eb565b5b615225825461501c565b61523082828561516c565b600060209050601f8311600181146152635760008415615251578287015190505b61525b85826151dd565b8655506152c3565b601f1984166152718661504d565b60005b8281101561529957848901518255600182019150602085019450602081019050615274565b868310156152b657848901516152b2601f8916826151bf565b8355505b6001600288020188555050505b505050505050565b600060808201905081810360008301526152e581876147e9565b905081810360208301526152f981866147e9565b905061530860408301856147c9565b6153156060830184614913565b95945050505050565b7f436f6e74726163746f72206e6f74207265676973746572656400000000000000600082015250565b60006153546019836147d8565b915061535f8261531e565b602082019050919050565b6000602082019050818103600083015261538381615347565b9050919050565b7f4e6f20626964207375626d697474656400000000000000000000000000000000600082015250565b60006153c06010836147d8565b91506153cb8261538a565b602082019050919050565b600060208201905081810360008301526153ef816153b3565b9050919050565b7f436f6e74726163746f72206e6f7420666f756e64000000000000000000000000600082015250565b600061542c6014836147d8565b9150615437826153f6565b602082019050919050565b6000602082019050818103600083015261545b8161541f565b9050919050565b60006060820190506154776000830186614714565b818103602083015261548981856147e9565b9050818103604083015261549d81846147e9565b9050949350505050565b7f54656e64657220636c6f73656400000000000000000000000000000000000000600082015250565b60006154dd600d836147d8565b91506154e8826154a7565b602082019050919050565b6000602082019050818103600083015261550c816154d0565b9050919050565b7f42696420616c72656164792077697468647261776e0000000000000000000000600082015250565b60006155496015836147d8565b915061555482615513565b602082019050919050565b600060208201905081810360008301526155788161553c565b9050919050565b600061558a82614416565b915061559583614416565b92508282039050818111156155ad576155ac614f8a565b5b92915050565b7f4e487b7100000000000000000000000000000000000000000000000000000000600052603160045260246000fd5b7f42696420616c7265616479207375626d69747465640000000000000000000000600082015250565b60006156186015836147d8565b9150615623826155e2565b602082019050919050565b600060208201905081810360008301526156478161560b565b9050919050565b600060408201905061566360008301856147c9565b818103602083015261567581846147e9565b90509392505050565b7f526567697374726174696f6e207265717565737420616c72656164792073756260008201527f6d6974746564206f7220636f6e74726163746f7220616c72656164792072656760208201527f6973746572656400000000000000000000000000000000000000000000000000604082015250565b60006157006047836147d8565b915061570b8261567e565b606082019050919050565b6000602082019050818103600083015261572f816156f3565b9050919050565b7f4e6f206163746976652074656e64657200000000000000000000000000000000600082015250565b600061576c6010836147d8565b915061577782615736565b602082019050919050565b6000602082019050818103600083015261579b8161575f565b9050919050565b600081546157af8161501c565b6157b981866147d8565b945060018216600081146157d457600181146157ea5761581d565b60ff19831686528115156020028601935061581d565b6157f38561504d565b60005b83811015615815578154818901526001820191506020810190506157f6565b808801955050505b50505092915050565b6000608082019050818103600083015261584081876157a2565b9050818103602083015261585481866157a2565b905061586360408301856147c9565b6158706060830184614913565b95945050505050565b600061588482614416565b91507fffffffffffffffffffffffffffffffffffffffffffffffffffffffffffffffff82036158b6576158b5614f8a565b5b600182019050919050565b7f54656e646572206973206e6f7420636c6f736564207965740000000000000000600082015250565b60006158f76018836147d8565b9150615902826158c1565b602082019050919050565b60006020820190508181036000830152615926816158ea565b9050919050565b7f54656e646572207375626d697373696f6e207374696c6c206f70656e00000000600082015250565b6000615963601c836147d8565b915061596e8261592d565b602082019050919050565b6000602082019050818103600083015261599281615956565b9050919050565b60006040820190506159ae60008301856147c9565b81810360208301526159c081846157a2565b9050939250505056fea26469706673582212208082f4b0ccad150c7eb855807a1d5a9931cf04f3f1ff6068839c65b5fe9cd7ba64736f6c634300081b0033",
  "linkReferences": {},
  "deployedLinkReferences": {}
}