{
  "_format": "hh-sol-artifact-1",
  "contractName": "BidChain",
  "sourceName": "contracts/e-procurement.sol",
  "abi": [
    {
      "inputs": [],
      "stateMutability": "nonpayable",
      "type": "constructor"
    },
    {
      "anonymous": false,
      "inputs": [
        {
          "indexed": true,
          "internalType": "address",
          "name": "contractor",
          "type": "address"
        },
        {
          "indexed": false,
          "internalType": "uint256",
          "name": "amount",
          "type": "uint256"
        },
        {
          "indexed": false,
          "internalType": "string",
          "name": "ipfsHash",
          "type": "string"
        }
      ],
      "name": "BidSubmitted",
      "type": "event"
    },
    {
      "anonymous": false,
      "inputs": [
        {
          "indexed": false,
          "internalType": "address",
          "name": "contractorAddress",
          "type": "address"
        },
        {
          "indexed": false,
          "internalType": "string",
          "name": "companyName",
          "type": "string"
        },
        {
          "indexed": false,
          "internalType": "string",
          "name": "email",
          "type": "string"
        }
      ],
      "name": "ContractorDeleted",
      "type": "event"
    },
    {
      "anonymous": false,
      "inputs": [
        {
          "indexed": false,
          "internalType": "address",
          "name": "contractorAddress",
          "type": "address"
        },
        {
          "indexed": false,
          "internalType": "string",
          "name": "companyName",
          "type": "string"
        },
        {
          "indexed": false,
          "internalType": "string",
          "name": "email",
          "type": "string"
        }
      ],
      "name": "ContractorRegistered",
      "type": "event"
    },
    {
      "anonymous": false,
      "inputs": [
        {
          "indexed": false,
          "internalType": "address",
          "name": "contractorAddress",
          "type": "address"
        },
        {
          "indexed": false,
          "internalType": "string",
          "name": "companyName",
          "type": "string"
        },
        {
          "indexed": false,
          "internalType": "string",
          "name": "email",
          "type": "string"
        }
      ],
      "name": "ContractorRegistrationRequested",
      "type": "event"
    },
    {
      "anonymous": false,
      "inputs": [
        {
          "indexed": false,
          "internalType": "string",
          "name": "description",
          "type": "string"
        },
        {
          "indexed": false,
          "internalType": "string",
          "name": "noticeDocumentHash",
          "type": "string"
        },
        {
          "indexed": false,
          "internalType": "uint256",
          "name": "endTime",
          "type": "uint256"
        },
        {
          "indexed": false,
          "internalType": "int256",
          "name": "additionalInfo",
          "type": "int256"
        }
      ],
      "name": "TenderOpened",
      "type": "event"
    },
    {
      "anonymous": false,
      "inputs": [
        {
          "indexed": true,
          "internalType": "address",
          "name": "winner",
          "type": "address"
        },
        {
          "indexed": false,
          "internalType": "uint256",
          "name": "winningBid",
          "type": "uint256"
        },
        {
          "indexed": false,
          "internalType": "string",
          "name": "winnerDocumentHash",
          "type": "string"
        }
      ],
      "name": "WinnerAnnounced",
      "type": "event"
    },
    {
      "inputs": [],
      "name": "activeTender",
      "outputs": [
        {
          "internalType": "string",
          "name": "description",
          "type": "string"
        },
        {
          "internalType": "string",
          "name": "noticeDocumentHash",
          "type": "string"
        },
        {
          "internalType": "uint256",
          "name": "submissionEndTime",
          "type": "uint256"
        },
        {
          "internalType": "bool",
          "name": "isOpen",
          "type": "bool"
        },
        {
          "internalType": "address",
          "name": "winner",
          "type": "address"
        },
        {
          "internalType": "int256",
          "name": "additionalInfo",
          "type": "int256"
        }
      ],
      "stateMutability": "view",
      "type": "function"
    },
    {
      "inputs": [
        {
          "internalType": "uint256",
          "name": "",
          "type": "uint256"
        }
      ],
      "name": "addressList",
      "outputs": [
        {
          "internalType": "address",
          "name": "",
          "type": "address"
        }
      ],
      "stateMutability": "view",
      "type": "function"
    },
    {
      "inputs": [
        {
          "internalType": "address",
          "name": "_winner",
          "type": "address"
        }
      ],
      "name": "announceWinner",
      "outputs": [],
      "stateMutability": "nonpayable",
      "type": "function"
    },
    {
      "inputs": [
        {
          "internalType": "uint256",
          "name": "",
          "type": "uint256"
        }
      ],
      "name": "bidderAddresses",
      "outputs": [
        {
          "internalType": "address",
          "name": "",
          "type": "address"
        }
      ],
      "stateMutability": "view",
      "type": "function"
    },
    {
      "inputs": [
        {
          "internalType": "address",
          "name": "",
          "type": "address"
        }
      ],
      "name": "bids",
      "outputs": [
        {
          "internalType": "uint256",
          "name": "amount",
          "type": "uint256"
        },
        {
          "internalType": "string",
          "name": "ipfsHash",
          "type": "string"
        },
        {
          "internalType": "bool",
          "name": "submitted",
          "type": "bool"
        },
        {
          "internalType": "bool",
          "name": "isWinner",
          "type": "bool"
        }
      ],
      "stateMutability": "view",
      "type": "function"
    },
    {
      "inputs": [],
      "name": "cancelTender",
      "outputs": [],
      "stateMutability": "nonpayable",
      "type": "function"
    },
    {
      "inputs": [],
      "name": "closeExpiredTender",
      "outputs": [],
      "stateMutability": "nonpayable",
      "type": "function"
    },
    {
      "inputs": [
        {
          "internalType": "address",
          "name": "",
          "type": "address"
        }
      ],
      "name": "contractors",
      "outputs": [
        {
          "internalType": "address",
          "name": "contractorAddress",
          "type": "address"
        },
        {
          "internalType": "string",
          "name": "companyName",
          "type": "string"
        },
        {
          "internalType": "string",
          "name": "email",
          "type": "string"
        },
        {
          "internalType": "bool",
          "name": "isRegistered",
          "type": "bool"
        }
      ],
      "stateMutability": "view",
      "type": "function"
    },
    {
      "inputs": [
        {
          "internalType": "address",
          "name": "_contractorAddress",
          "type": "address"
        }
      ],
      "name": "deleteRegisteredContractor",
      "outputs": [],
      "stateMutability": "nonpayable",
      "type": "function"
    },
    {
      "inputs": [
        {
          "internalType": "address",
          "name": "_contractor",
          "type": "address"
        }
      ],
      "name": "getBidIPFSHash",
      "outputs": [
        {
          "internalType": "string",
          "name": "",
          "type": "string"
        }
      ],
      "stateMutability": "view",
      "type": "function"
    },
    {
      "inputs": [],
      "name": "getBidderAddresses",
      "outputs": [
        {
          "internalType": "address[]",
          "name": "",
          "type": "address[]"
        }
      ],
      "stateMutability": "view",
      "type": "function"
    },
    {
      "inputs": [],
      "name": "getContractOwner",
      "outputs": [
        {
          "internalType": "address",
          "name": "",
          "type": "address"
        }
      ],
      "stateMutability": "view",
      "type": "function"
    },
    {
      "inputs": [],
      "name": "getPendingContractors",
      "outputs": [
        {
          "components": [
            {
              "internalType": "address",
              "name": "contractorAddress",
              "type": "address"
            },
            {
              "internalType": "string",
              "name": "companyName",
              "type": "string"
            },
            {
              "internalType": "string",
              "name": "email",
              "type": "string"
            },
            {
              "internalType": "bool",
              "name": "isRegistered",
              "type": "bool"
            }
          ],
          "internalType": "struct BidChain.Contractor[]",
          "name": "",
          "type": "tuple[]"
        }
      ],
      "stateMutability": "view",
      "type": "function"
    },
    {
      "inputs": [],
      "name": "getRegisteredContractors",
      "outputs": [
        {
          "components": [
            {
              "internalType": "address",
              "name": "contractorAddress",
              "type": "address"
            },
            {
              "internalType": "string",
              "name": "companyName",
              "type": "string"
            },
            {
              "internalType": "string",
              "name": "email",
              "type": "string"
            },
            {
              "internalType": "bool",
              "name": "isRegistered",
              "type": "bool"
            }
          ],
          "internalType": "struct BidChain.Contractor[]",
          "name": "",
          "type": "tuple[]"
        }
      ],
      "stateMutability": "view",
      "type": "function"
    },
    {
      "inputs": [],
      "name": "getWinnerDetails",
      "outputs": [
        {
          "internalType": "address",
          "name": "",
          "type": "address"
        },
        {
          "internalType": "uint256",
          "name": "",
          "type": "uint256"
        },
        {
          "internalType": "string",
          "name": "",
          "type": "string"
        }
      ],
      "stateMutability": "view",
      "type": "function"
    },
    {
      "inputs": [],
      "name": "isTenderOpen",
      "outputs": [
        {
          "internalType": "bool",
          "name": "",
          "type": "bool"
        }
      ],
      "stateMutability": "view",
      "type": "function"
    },
    {
      "inputs": [
        {
          "internalType": "string",
          "name": "_description",
          "type": "string"
        },
        {
          "internalType": "string",
          "name": "_noticeDocumentHash",
          "type": "string"
        },
        {
          "internalType": "uint256",
          "name": "_duration",
          "type": "uint256"
        }
      ],
      "name": "openTender",
      "outputs": [],
      "stateMutability": "nonpayable",
      "type": "function"
    },
    {
      "inputs": [],
      "name": "owner",
      "outputs": [
        {
          "internalType": "address",
          "name": "",
          "type": "address"
        }
      ],
      "stateMutability": "view",
      "type": "function"
    },
    {
      "inputs": [
        {
          "internalType": "address",
          "name": "",
          "type": "address"
        }
      ],
      "name": "pendingContractors",
      "outputs": [
        {
          "internalType": "address",
          "name": "contractorAddress",
          "type": "address"
        },
        {
          "internalType": "string",
          "name": "companyName",
          "type": "string"
        },
        {
          "internalType": "string",
          "name": "email",
          "type": "string"
        },
        {
          "internalType": "bool",
          "name": "isRegistered",
          "type": "bool"
        }
      ],
      "stateMutability": "view",
      "type": "function"
    },
    {
      "inputs": [
        {
          "internalType": "address",
          "name": "_contractorAddress",
          "type": "address"
        }
      ],
      "name": "registerContractor",
      "outputs": [],
      "stateMutability": "nonpayable",
      "type": "function"
    },
    {
      "inputs": [
        {
          "internalType": "uint256",
          "name": "",
          "type": "uint256"
        }
      ],
      "name": "registeredContractors",
      "outputs": [
        {
          "internalType": "address",
          "name": "",
          "type": "address"
        }
      ],
      "stateMutability": "view",
      "type": "function"
    },
    {
      "inputs": [
        {
          "internalType": "uint256",
          "name": "_amount",
          "type": "uint256"
        },
        {
          "internalType": "string",
          "name": "_ipfsHash",
          "type": "string"
        }
      ],
      "name": "submitBid",
      "outputs": [],
      "stateMutability": "nonpayable",
      "type": "function"
    },
    {
      "inputs": [
        {
          "internalType": "string",
          "name": "_companyName",
          "type": "string"
        },
        {
          "internalType": "string",
          "name": "_email",
          "type": "string"
        }
      ],
      "name": "submitRegistrationRequest",
      "outputs": [],
      "stateMutability": "nonpayable",
      "type": "function"
    },
    {
      "inputs": [],
      "name": "viewActiveTenderDetails",
      "outputs": [
        {
          "internalType": "string",
          "name": "description",
          "type": "string"
        },
        {
          "internalType": "string",
          "name": "noticeDocumentHash",
          "type": "string"
        },
        {
          "internalType": "uint256",
          "name": "submissionEndTime",
          "type": "uint256"
        },
        {
          "internalType": "int256",
          "name": "additionalInfo",
          "type": "int256"
        },
        {
          "internalType": "bool",
          "name": "isOpen",
          "type": "bool"
        }
      ],
      "stateMutability": "view",
      "type": "function"
    }
  ],
  "bytecode": "0x6080604052348015600f57600080fd5b50336000806101000a81548173ffffffffffffffffffffffffffffffffffffffff021916908373ffffffffffffffffffffffffffffffffffffffff1602179055506145128061005f6000396000f3fe608060405234801561001057600080fd5b50600436106101585760003560e01c80638d16e785116100c3578063b810fb431161007c578063b810fb431461039b578063b8da1b0c146103cb578063c27677e2146103e7578063e35569a614610405578063e6a20c8214610438578063ec39335f1461046b57610158565b80638d16e785146102e65780638da5cb5b146103095780639f0521b814610327578063a90e030414610345578063ad5bc47714610375578063b366a4731461039157610158565b806362ea82db1161011557806362ea82db1461021d5780636a1738de14610250578063713c83b3146102805780637cd128991461029c5780637ea942c8146102be5780638bf738ff146102c857610158565b80630430427c1461015d5780632561a429146101795780632fb3c48f146101955780633a01135e146101c55780633db9cd89146101e1578063442890d5146101ff575b600080fd5b610177600480360381019061017291906132fa565b61048b565b005b610193600480360381019061018e91906133e3565b6106b7565b005b6101af60048036038101906101aa9190613410565b610c27565b6040516101bc919061344c565b60405180910390f35b6101df60048036038101906101da9190613467565b610c66565b005b6101e9610f68565b6040516101f691906134de565b60405180910390f35b610207610f82565b604051610214919061344c565b60405180910390f35b610237600480360381019061023291906133e3565b610fab565b6040516102479493929190613587565b60405180910390f35b61026a60048036038101906102659190613410565b61107d565b604051610277919061344c565b60405180910390f35b61029a600480360381019061029591906135d3565b6110bc565b005b6102a4611350565b6040516102b5959493929190613664565b60405180910390f35b6102c66115e0565b005b6102d061171a565b6040516102dd9190613859565b60405180910390f35b6102ee611bbc565b6040516103009695949392919061387b565b60405180910390f35b610311611d23565b60405161031e919061344c565b60405180910390f35b61032f611d47565b60405161033c9190613859565b60405180910390f35b61035f600480360381019061035a91906133e3565b612007565b60405161036c91906138ea565b60405180910390f35b61038f600480360381019061038a91906133e3565b61216a565b005b6103996126d5565b005b6103b560048036038101906103b09190613410565b612833565b6040516103c2919061344c565b60405180910390f35b6103e560048036038101906103e091906133e3565b612872565b005b6103ef612b2c565b6040516103fc91906139bb565b60405180910390f35b61041f600480360381019061041a91906133e3565b612bba565b60405161042f94939291906139dd565b60405180910390f35b610452600480360381019061044d91906133e3565b612d27565b60405161046294939291906139dd565b60405180910390f35b610473612e94565b60405161048293929190613a30565b60405180910390f35b60008054906101000a900473ffffffffffffffffffffffffffffffffffffffff1673ffffffffffffffffffffffffffffffffffffffff163373ffffffffffffffffffffffffffffffffffffffff1614610519576040517f08c379a000000000000000000000000000000000000000000000000000000000815260040161051090613aba565b60405180910390fd5b600160030160009054906101000a900460ff161561056c576040517f08c379a000000000000000000000000000000000000000000000000000000000815260040161056390613b26565b60405180910390fd5b6040518060c00160405280848152602001838152602001824261058f9190613b75565b8152602001600115158152602001600073ffffffffffffffffffffffffffffffffffffffff1681526020016000815250600160008201518160000190816105d69190613db5565b5060208201518160010190816105ec9190613db5565b506040820151816002015560608201518160030160006101000a81548160ff02191690831515021790555060808201518160030160016101000a81548173ffffffffffffffffffffffffffffffffffffffff021916908373ffffffffffffffffffffffffffffffffffffffff16021790555060a082015181600401559050507f0c933c861f93878dd04b07a9cd98e725df697e7d1095846f00b18219e4f17ce983836001600201546001600401546040516106aa9493929190613e87565b60405180910390a1505050565b60008054906101000a900473ffffffffffffffffffffffffffffffffffffffff1673ffffffffffffffffffffffffffffffffffffffff163373ffffffffffffffffffffffffffffffffffffffff1614610745576040517f08c379a000000000000000000000000000000000000000000000000000000000815260040161073c90613aba565b60405180910390fd5b600073ffffffffffffffffffffffffffffffffffffffff16600860008373ffffffffffffffffffffffffffffffffffffffff1673ffffffffffffffffffffffffffffffffffffffff16815260200190815260200160002060000160009054906101000a900473ffffffffffffffffffffffffffffffffffffffff1673ffffffffffffffffffffffffffffffffffffffff1603610816576040517f08c379a000000000000000000000000000000000000000000000000000000000815260040161080d90613f26565b60405180910390fd5b6000600860008373ffffffffffffffffffffffffffffffffffffffff1673ffffffffffffffffffffffffffffffffffffffff1681526020019081526020016000206040518060800160405290816000820160009054906101000a900473ffffffffffffffffffffffffffffffffffffffff1673ffffffffffffffffffffffffffffffffffffffff1673ffffffffffffffffffffffffffffffffffffffff1681526020016001820180546108c890613bd8565b80601f01602080910402602001604051908101604052809291908181526020018280546108f490613bd8565b80156109415780601f1061091657610100808354040283529160200191610941565b820191906000526020600020905b81548152906001019060200180831161092457829003601f168201915b5050505050815260200160028201805461095a90613bd8565b80601f016020809104026020016040519081016040528092919081815260200182805461098690613bd8565b80156109d35780601f106109a8576101008083540402835291602001916109d3565b820191906000526020600020905b8154815290600101906020018083116109b657829003601f168201915b505050505081526020016003820160009054906101000a900460ff1615151515815250509050600181606001901515908115158152505080600660008473ffffffffffffffffffffffffffffffffffffffff1673ffffffffffffffffffffffffffffffffffffffff16815260200190815260200160002060008201518160000160006101000a81548173ffffffffffffffffffffffffffffffffffffffff021916908373ffffffffffffffffffffffffffffffffffffffff1602179055506020820151816001019081610aa69190613db5565b506040820151816002019081610abc9190613db5565b5060608201518160030160006101000a81548160ff021916908315150217905550905050600b829080600181540180825580915050600190039060005260206000200160009091909190916101000a81548173ffffffffffffffffffffffffffffffffffffffff021916908373ffffffffffffffffffffffffffffffffffffffff160217905550600860008373ffffffffffffffffffffffffffffffffffffffff1673ffffffffffffffffffffffffffffffffffffffff168152602001908152602001600020600080820160006101000a81549073ffffffffffffffffffffffffffffffffffffffff0219169055600182016000610bba91906130cd565b600282016000610bca91906130cd565b6003820160006101000a81549060ff021916905550507f48db77b84f62eb159d6efadc8200961208efc86642bbcf53531aefb6615c88ca8282602001518360400151604051610c1b93929190613f46565b60405180910390a15050565b600a8181548110610c3757600080fd5b906000526020600020016000915054906101000a900473ffffffffffffffffffffffffffffffffffffffff1681565b600660003373ffffffffffffffffffffffffffffffffffffffff1673ffffffffffffffffffffffffffffffffffffffff16815260200190815260200160002060030160009054906101000a900460ff16610cf5576040517f08c379a0000000000000000000000000000000000000000000000000000000008152600401610cec90613fd7565b60405180910390fd5b6001600201544211158015610d195750600160030160009054906101000a900460ff165b610d58576040517f08c379a0000000000000000000000000000000000000000000000000000000008152600401610d4f90614043565b60405180910390fd5b600760003373ffffffffffffffffffffffffffffffffffffffff1673ffffffffffffffffffffffffffffffffffffffff16815260200190815260200160002060020160009054906101000a900460ff1615610de8576040517f08c379a0000000000000000000000000000000000000000000000000000000008152600401610ddf906140af565b60405180910390fd5b604051806080016040528083815260200182815260200160011515815260200160001515815250600760003373ffffffffffffffffffffffffffffffffffffffff1673ffffffffffffffffffffffffffffffffffffffff168152602001908152602001600020600082015181600001556020820151816001019081610e6d9190613db5565b5060408201518160020160006101000a81548160ff02191690831515021790555060608201518160020160016101000a81548160ff021916908315150217905550905050600a339080600181540180825580915050600190039060005260206000200160009091909190916101000a81548173ffffffffffffffffffffffffffffffffffffffff021916908373ffffffffffffffffffffffffffffffffffffffff1602179055503373ffffffffffffffffffffffffffffffffffffffff167f3eb2fab71a1de5753e125aa7b47368bd108ec2bff6e86e69cb009d365ba2f2718383604051610f5c9291906140cf565b60405180910390a25050565b6000600160030160009054906101000a900460ff16905090565b60008060009054906101000a900473ffffffffffffffffffffffffffffffffffffffff16905090565b6007602052806000526040600020600091509050806000015490806001018054610fd490613bd8565b80601f016020809104026020016040519081016040528092919081815260200182805461100090613bd8565b801561104d5780601f106110225761010080835404028352916020019161104d565b820191906000526020600020905b81548152906001019060200180831161103057829003601f168201915b5050505050908060020160009054906101000a900460ff16908060020160019054906101000a900460ff16905084565b600b818154811061108d57600080fd5b906000526020600020016000915054906101000a900473ffffffffffffffffffffffffffffffffffffffff1681565b600073ffffffffffffffffffffffffffffffffffffffff16600860003373ffffffffffffffffffffffffffffffffffffffff1673ffffffffffffffffffffffffffffffffffffffff16815260200190815260200160002060000160009054906101000a900473ffffffffffffffffffffffffffffffffffffffff1673ffffffffffffffffffffffffffffffffffffffff16148015611160575061115e33613025565b155b61119f576040517f08c379a000000000000000000000000000000000000000000000000000000000815260040161119690614197565b60405180910390fd5b60405180608001604052803373ffffffffffffffffffffffffffffffffffffffff16815260200183815260200182815260200160001515815250600860003373ffffffffffffffffffffffffffffffffffffffff1673ffffffffffffffffffffffffffffffffffffffff16815260200190815260200160002060008201518160000160006101000a81548173ffffffffffffffffffffffffffffffffffffffff021916908373ffffffffffffffffffffffffffffffffffffffff16021790555060208201518160010190816112749190613db5565b50604082015181600201908161128a9190613db5565b5060608201518160030160006101000a81548160ff0219169083151502179055509050506009339080600181540180825580915050600190039060005260206000200160009091909190916101000a81548173ffffffffffffffffffffffffffffffffffffffff021916908373ffffffffffffffffffffffffffffffffffffffff1602179055507f42e1ca0950bf6539d4204c340755718403c9f9db5e3152ba6a4aa765d784cff633838360405161134493929190613f46565b60405180910390a15050565b6060806000806000600160030160009054906101000a900460ff166113aa576040517f08c379a00000000000000000000000000000000000000000000000000000000081526004016113a190614203565b60405180910390fd5b600660003373ffffffffffffffffffffffffffffffffffffffff1673ffffffffffffffffffffffffffffffffffffffff16815260200190815260200160002060030160009054906101000a900460ff1680611450575060008054906101000a900473ffffffffffffffffffffffffffffffffffffffff1673ffffffffffffffffffffffffffffffffffffffff163373ffffffffffffffffffffffffffffffffffffffff16145b61148f576040517f08c379a000000000000000000000000000000000000000000000000000000000815260040161148690613aba565b60405180910390fd5b600160000160018001600160020154600160040154600160030160009054906101000a900460ff168480546114c390613bd8565b80601f01602080910402602001604051908101604052809291908181526020018280546114ef90613bd8565b801561153c5780601f106115115761010080835404028352916020019161153c565b820191906000526020600020905b81548152906001019060200180831161151f57829003601f168201915b5050505050945083805461154f90613bd8565b80601f016020809104026020016040519081016040528092919081815260200182805461157b90613bd8565b80156115c85780601f1061159d576101008083540402835291602001916115c8565b820191906000526020600020905b8154815290600101906020018083116115ab57829003601f168201915b50505050509350945094509450945094509091929394565b60008054906101000a900473ffffffffffffffffffffffffffffffffffffffff1673ffffffffffffffffffffffffffffffffffffffff163373ffffffffffffffffffffffffffffffffffffffff161461166e576040517f08c379a000000000000000000000000000000000000000000000000000000000815260040161166590613aba565b60405180910390fd5b600160030160009054906101000a900460ff166116c0576040517f08c379a00000000000000000000000000000000000000000000000000000000081526004016116b790614203565b60405180910390fd5b600180600401819055507f0c933c861f93878dd04b07a9cd98e725df697e7d1095846f00b18219e4f17ce960016000016001800160016002015460016004015460405161171094939291906142a7565b60405180910390a1565b60606000805b60098054905081101561181d57600073ffffffffffffffffffffffffffffffffffffffff16600860006009848154811061175d5761175c6142fa565b5b9060005260206000200160009054906101000a900473ffffffffffffffffffffffffffffffffffffffff1673ffffffffffffffffffffffffffffffffffffffff1673ffffffffffffffffffffffffffffffffffffffff16815260200190815260200160002060000160009054906101000a900473ffffffffffffffffffffffffffffffffffffffff1673ffffffffffffffffffffffffffffffffffffffff161461181057818061180c90614329565b9250505b8080600101915050611720565b5060008167ffffffffffffffff81111561183a57611839613199565b5b60405190808252806020026020018201604052801561187357816020015b61186061310d565b8152602001906001900390816118585790505b5090506000805b600980549050811015611bb257600073ffffffffffffffffffffffffffffffffffffffff1660086000600984815481106118b7576118b66142fa565b5b9060005260206000200160009054906101000a900473ffffffffffffffffffffffffffffffffffffffff1673ffffffffffffffffffffffffffffffffffffffff1673ffffffffffffffffffffffffffffffffffffffff16815260200190815260200160002060000160009054906101000a900473ffffffffffffffffffffffffffffffffffffffff1673ffffffffffffffffffffffffffffffffffffffff1614611ba5576008600060098381548110611973576119726142fa565b5b9060005260206000200160009054906101000a900473ffffffffffffffffffffffffffffffffffffffff1673ffffffffffffffffffffffffffffffffffffffff1673ffffffffffffffffffffffffffffffffffffffff1681526020019081526020016000206040518060800160405290816000820160009054906101000a900473ffffffffffffffffffffffffffffffffffffffff1673ffffffffffffffffffffffffffffffffffffffff1673ffffffffffffffffffffffffffffffffffffffff168152602001600182018054611a4990613bd8565b80601f0160208091040260200160405190810160405280929190818152602001828054611a7590613bd8565b8015611ac25780601f10611a9757610100808354040283529160200191611ac2565b820191906000526020600020905b815481529060010190602001808311611aa557829003601f168201915b50505050508152602001600282018054611adb90613bd8565b80601f0160208091040260200160405190810160405280929190818152602001828054611b0790613bd8565b8015611b545780601f10611b2957610100808354040283529160200191611b54565b820191906000526020600020905b815481529060010190602001808311611b3757829003601f168201915b505050505081526020016003820160009054906101000a900460ff161515151581525050838381518110611b8b57611b8a6142fa565b5b60200260200101819052508180611ba190614329565b9250505b808060010191505061187a565b5081935050505090565b6001806000018054611bcd90613bd8565b80601f0160208091040260200160405190810160405280929190818152602001828054611bf990613bd8565b8015611c465780601f10611c1b57610100808354040283529160200191611c46565b820191906000526020600020905b815481529060010190602001808311611c2957829003601f168201915b505050505090806001018054611c5b90613bd8565b80601f0160208091040260200160405190810160405280929190818152602001828054611c8790613bd8565b8015611cd45780601f10611ca957610100808354040283529160200191611cd4565b820191906000526020600020905b815481529060010190602001808311611cb757829003601f168201915b5050505050908060020154908060030160009054906101000a900460ff16908060030160019054906101000a900473ffffffffffffffffffffffffffffffffffffffff16908060040154905086565b60008054906101000a900473ffffffffffffffffffffffffffffffffffffffff1681565b60606000600b80549050905060008167ffffffffffffffff811115611d6f57611d6e613199565b5b604051908082528060200260200182016040528015611da857816020015b611d9561310d565b815260200190600190039081611d8d5790505b50905060005b82811015611ffe5760066000600b8381548110611dce57611dcd6142fa565b5b9060005260206000200160009054906101000a900473ffffffffffffffffffffffffffffffffffffffff1673ffffffffffffffffffffffffffffffffffffffff1673ffffffffffffffffffffffffffffffffffffffff1681526020019081526020016000206040518060800160405290816000820160009054906101000a900473ffffffffffffffffffffffffffffffffffffffff1673ffffffffffffffffffffffffffffffffffffffff1673ffffffffffffffffffffffffffffffffffffffff168152602001600182018054611ea490613bd8565b80601f0160208091040260200160405190810160405280929190818152602001828054611ed090613bd8565b8015611f1d5780601f10611ef257610100808354040283529160200191611f1d565b820191906000526020600020905b815481529060010190602001808311611f0057829003601f168201915b50505050508152602001600282018054611f3690613bd8565b80601f0160208091040260200160405190810160405280929190818152602001828054611f6290613bd8565b8015611faf5780601f10611f8457610100808354040283529160200191611faf565b820191906000526020600020905b815481529060010190602001808311611f9257829003601f168201915b505050505081526020016003820160009054906101000a900460ff161515151581525050828281518110611fe657611fe56142fa565b5b60200260200101819052508080600101915050611dae565b50809250505090565b6060600760008373ffffffffffffffffffffffffffffffffffffffff1673ffffffffffffffffffffffffffffffffffffffff16815260200190815260200160002060020160009054906101000a900460ff16612098576040517f08c379a000000000000000000000000000000000000000000000000000000000815260040161208f906143bd565b60405180910390fd5b600760008373ffffffffffffffffffffffffffffffffffffffff1673ffffffffffffffffffffffffffffffffffffffff16815260200190815260200160002060010180546120e590613bd8565b80601f016020809104026020016040519081016040528092919081815260200182805461211190613bd8565b801561215e5780601f106121335761010080835404028352916020019161215e565b820191906000526020600020905b81548152906001019060200180831161214157829003601f168201915b50505050509050919050565b60008054906101000a900473ffffffffffffffffffffffffffffffffffffffff1673ffffffffffffffffffffffffffffffffffffffff163373ffffffffffffffffffffffffffffffffffffffff16146121f8576040517f08c379a00000000000000000000000000000000000000000000000000000000081526004016121ef90613aba565b60405180910390fd5b600660008273ffffffffffffffffffffffffffffffffffffffff1673ffffffffffffffffffffffffffffffffffffffff16815260200190815260200160002060030160009054906101000a900460ff16612287576040517f08c379a000000000000000000000000000000000000000000000000000000000815260040161227e90613fd7565b60405180910390fd5b6000600660008373ffffffffffffffffffffffffffffffffffffffff1673ffffffffffffffffffffffffffffffffffffffff1681526020019081526020016000206040518060800160405290816000820160009054906101000a900473ffffffffffffffffffffffffffffffffffffffff1673ffffffffffffffffffffffffffffffffffffffff1673ffffffffffffffffffffffffffffffffffffffff16815260200160018201805461233990613bd8565b80601f016020809104026020016040519081016040528092919081815260200182805461236590613bd8565b80156123b25780601f10612387576101008083540402835291602001916123b2565b820191906000526020600020905b81548152906001019060200180831161239557829003601f168201915b505050505081526020016002820180546123cb90613bd8565b80601f01602080910402602001604051908101604052809291908181526020018280546123f790613bd8565b80156124445780601f1061241957610100808354040283529160200191612444565b820191906000526020600020905b81548152906001019060200180831161242757829003601f168201915b505050505081526020016003820160009054906101000a900460ff1615151515815250509050600660008373ffffffffffffffffffffffffffffffffffffffff1673ffffffffffffffffffffffffffffffffffffffff168152602001908152602001600020600080820160006101000a81549073ffffffffffffffffffffffffffffffffffffffff02191690556001820160006124e191906130cd565b6002820160006124f191906130cd565b6003820160006101000a81549060ff0219169055505060005b600b8054905081101561268d578273ffffffffffffffffffffffffffffffffffffffff16600b8281548110612542576125416142fa565b5b9060005260206000200160009054906101000a900473ffffffffffffffffffffffffffffffffffffffff1673ffffffffffffffffffffffffffffffffffffffff160361268057600b6001600b8054905061259c91906143dd565b815481106125ad576125ac6142fa565b5b9060005260206000200160009054906101000a900473ffffffffffffffffffffffffffffffffffffffff16600b82815481106125ec576125eb6142fa565b5b9060005260206000200160006101000a81548173ffffffffffffffffffffffffffffffffffffffff021916908373ffffffffffffffffffffffffffffffffffffffff160217905550600b80548061264657612645614411565b5b6001900381819060005260206000200160006101000a81549073ffffffffffffffffffffffffffffffffffffffff0219169055905561268d565b808060010191505061250a565b507f6ea6015034906588e3324f5d414ebf92f452dd217b5af6b5fc79f81c86a3ed4b82826020015183604001516040516126c993929190613f46565b60405180910390a15050565b60008054906101000a900473ffffffffffffffffffffffffffffffffffffffff1673ffffffffffffffffffffffffffffffffffffffff163373ffffffffffffffffffffffffffffffffffffffff1614612763576040517f08c379a000000000000000000000000000000000000000000000000000000000815260040161275a90613aba565b60405180910390fd5b600160030160009054906101000a900460ff166127b5576040517f08c379a00000000000000000000000000000000000000000000000000000000081526004016127ac90614203565b60405180910390fd5b6000600160030160006101000a81548160ff0219169083151502179055506001800160006127e391906130cd565b7f0c933c861f93878dd04b07a9cd98e725df697e7d1095846f00b18219e4f17ce960016000016001800160016002015460016004015460405161282994939291906142a7565b60405180910390a1565b6009818154811061284357600080fd5b906000526020600020016000915054906101000a900473ffffffffffffffffffffffffffffffffffffffff1681565b60008054906101000a900473ffffffffffffffffffffffffffffffffffffffff1673ffffffffffffffffffffffffffffffffffffffff163373ffffffffffffffffffffffffffffffffffffffff1614612900576040517f08c379a00000000000000000000000000000000000000000000000000000000081526004016128f790613aba565b60405180910390fd5b6001600201544211612947576040517f08c379a000000000000000000000000000000000000000000000000000000000815260040161293e9061448c565b60405180910390fd5b600160030160009054906101000a900460ff16612999576040517f08c379a000000000000000000000000000000000000000000000000000000000815260040161299090614203565b60405180910390fd5b6001600760008373ffffffffffffffffffffffffffffffffffffffff1673ffffffffffffffffffffffffffffffffffffffff16815260200190815260200160002060020160016101000a81548160ff0219169083151502179055506000600160030160006101000a81548160ff02191690831515021790555080600160030160016101000a81548173ffffffffffffffffffffffffffffffffffffffff021916908373ffffffffffffffffffffffffffffffffffffffff1602179055508073ffffffffffffffffffffffffffffffffffffffff167f1d564adc39126151d047f51e3431319d43e41d12fad4b2f28b26993d5e2843d3600760008473ffffffffffffffffffffffffffffffffffffffff1673ffffffffffffffffffffffffffffffffffffffff16815260200190815260200160002060000154600760008573ffffffffffffffffffffffffffffffffffffffff1673ffffffffffffffffffffffffffffffffffffffff168152602001908152602001600020600101604051612b219291906144ac565b60405180910390a250565b6060600a805480602002602001604051908101604052809291908181526020018280548015612bb057602002820191906000526020600020905b8160009054906101000a900473ffffffffffffffffffffffffffffffffffffffff1673ffffffffffffffffffffffffffffffffffffffff1681526020019060010190808311612b66575b5050505050905090565b60066020528060005260406000206000915090508060000160009054906101000a900473ffffffffffffffffffffffffffffffffffffffff1690806001018054612c0390613bd8565b80601f0160208091040260200160405190810160405280929190818152602001828054612c2f90613bd8565b8015612c7c5780601f10612c5157610100808354040283529160200191612c7c565b820191906000526020600020905b815481529060010190602001808311612c5f57829003601f168201915b505050505090806002018054612c9190613bd8565b80601f0160208091040260200160405190810160405280929190818152602001828054612cbd90613bd8565b8015612d0a5780601f10612cdf57610100808354040283529160200191612d0a565b820191906000526020600020905b815481529060010190602001808311612ced57829003601f168201915b5050505050908060030160009054906101000a900460ff16905084565b60086020528060005260406000206000915090508060000160009054906101000a900473ffffffffffffffffffffffffffffffffffffffff1690806001018054612d7090613bd8565b80601f0160208091040260200160405190810160405280929190818152602001828054612d9c90613bd8565b8015612de95780601f10612dbe57610100808354040283529160200191612de9565b820191906000526020600020905b815481529060010190602001808311612dcc57829003601f168201915b505050505090806002018054612dfe90613bd8565b80601f0160208091040260200160405190810160405280929190818152602001828054612e2a90613bd8565b8015612e775780601f10612e4c57610100808354040283529160200191612e77565b820191906000526020600020905b815481529060010190602001808311612e5a57829003601f168201915b5050505050908060030160009054906101000a900460ff16905084565b6000806060600160030160019054906101000a900473ffffffffffffffffffffffffffffffffffffffff1660076000600160030160019054906101000a900473ffffffffffffffffffffffffffffffffffffffff1673ffffffffffffffffffffffffffffffffffffffff1673ffffffffffffffffffffffffffffffffffffffff1681526020019081526020016000206000015460076000600160030160019054906101000a900473ffffffffffffffffffffffffffffffffffffffff1673ffffffffffffffffffffffffffffffffffffffff1673ffffffffffffffffffffffffffffffffffffffff168152602001908152602001600020600101808054612f9a90613bd8565b80601f0160208091040260200160405190810160405280929190818152602001828054612fc690613bd8565b80156130135780601f10612fe857610100808354040283529160200191613013565b820191906000526020600020905b815481529060010190602001808311612ff657829003601f168201915b50505050509050925092509250909192565b600080600090505b600b805490508110156130c2578273ffffffffffffffffffffffffffffffffffffffff16600b8281548110613065576130646142fa565b5b9060005260206000200160009054906101000a900473ffffffffffffffffffffffffffffffffffffffff1673ffffffffffffffffffffffffffffffffffffffff16036130b55760019150506130c8565b808060010191505061302d565b50600090505b919050565b5080546130d990613bd8565b6000825580601f106130eb575061310a565b601f016020900490600052602060002090810190613109919061314d565b5b50565b6040518060800160405280600073ffffffffffffffffffffffffffffffffffffffff16815260200160608152602001606081526020016000151581525090565b5b8082111561316657600081600090555060010161314e565b5090565b6000604051905090565b600080fd5b600080fd5b600080fd5b600080fd5b6000601f19601f8301169050919050565b7f4e487b7100000000000000000000000000000000000000000000000000000000600052604160045260246000fd5b6131d182613188565b810181811067ffffffffffffffff821117156131f0576131ef613199565b5b80604052505050565b600061320361316a565b905061320f82826131c8565b919050565b600067ffffffffffffffff82111561322f5761322e613199565b5b61323882613188565b9050602081019050919050565b82818337600083830152505050565b600061326761326284613214565b6131f9565b90508281526020810184848401111561328357613282613183565b5b61328e848285613245565b509392505050565b600082601f8301126132ab576132aa61317e565b5b81356132bb848260208601613254565b91505092915050565b6000819050919050565b6132d7816132c4565b81146132e257600080fd5b50565b6000813590506132f4816132ce565b92915050565b60008060006060848603121561331357613312613174565b5b600084013567ffffffffffffffff81111561333157613330613179565b5b61333d86828701613296565b935050602084013567ffffffffffffffff81111561335e5761335d613179565b5b61336a86828701613296565b925050604061337b868287016132e5565b9150509250925092565b600073ffffffffffffffffffffffffffffffffffffffff82169050919050565b60006133b082613385565b9050919050565b6133c0816133a5565b81146133cb57600080fd5b50565b6000813590506133dd816133b7565b92915050565b6000602082840312156133f9576133f8613174565b5b6000613407848285016133ce565b91505092915050565b60006020828403121561342657613425613174565b5b6000613434848285016132e5565b91505092915050565b613446816133a5565b82525050565b6000602082019050613461600083018461343d565b92915050565b6000806040838503121561347e5761347d613174565b5b600061348c858286016132e5565b925050602083013567ffffffffffffffff8111156134ad576134ac613179565b5b6134b985828601613296565b9150509250929050565b60008115159050919050565b6134d8816134c3565b82525050565b60006020820190506134f360008301846134cf565b92915050565b613502816132c4565b82525050565b600081519050919050565b600082825260208201905092915050565b60005b83811015613542578082015181840152602081019050613527565b60008484015250505050565b600061355982613508565b6135638185613513565b9350613573818560208601613524565b61357c81613188565b840191505092915050565b600060808201905061359c60008301876134f9565b81810360208301526135ae818661354e565b90506135bd60408301856134cf565b6135ca60608301846134cf565b95945050505050565b600080604083850312156135ea576135e9613174565b5b600083013567ffffffffffffffff81111561360857613607613179565b5b61361485828601613296565b925050602083013567ffffffffffffffff81111561363557613634613179565b5b61364185828601613296565b9150509250929050565b6000819050919050565b61365e8161364b565b82525050565b600060a082019050818103600083015261367e818861354e565b90508181036020830152613692818761354e565b90506136a160408301866134f9565b6136ae6060830185613655565b6136bb60808301846134cf565b9695505050505050565b600081519050919050565b600082825260208201905092915050565b6000819050602082019050919050565b6136fa816133a5565b82525050565b600082825260208201905092915050565b600061371c82613508565b6137268185613700565b9350613736818560208601613524565b61373f81613188565b840191505092915050565b613753816134c3565b82525050565b600060808301600083015161377160008601826136f1565b50602083015184820360208601526137898282613711565b915050604083015184820360408601526137a38282613711565b91505060608301516137b8606086018261374a565b508091505092915050565b60006137cf8383613759565b905092915050565b6000602082019050919050565b60006137ef826136c5565b6137f981856136d0565b93508360208202850161380b856136e1565b8060005b85811015613847578484038952815161382885826137c3565b9450613833836137d7565b925060208a0199505060018101905061380f565b50829750879550505050505092915050565b6000602082019050818103600083015261387381846137e4565b905092915050565b600060c0820190508181036000830152613895818961354e565b905081810360208301526138a9818861354e565b90506138b860408301876134f9565b6138c560608301866134cf565b6138d2608083018561343d565b6138df60a0830184613655565b979650505050505050565b60006020820190508181036000830152613904818461354e565b905092915050565b600081519050919050565b600082825260208201905092915050565b6000819050602082019050919050565b600061394483836136f1565b60208301905092915050565b6000602082019050919050565b60006139688261390c565b6139728185613917565b935061397d83613928565b8060005b838110156139ae5781516139958882613938565b97506139a083613950565b925050600181019050613981565b5085935050505092915050565b600060208201905081810360008301526139d5818461395d565b905092915050565b60006080820190506139f2600083018761343d565b8181036020830152613a04818661354e565b90508181036040830152613a18818561354e565b9050613a2760608301846134cf565b95945050505050565b6000606082019050613a45600083018661343d565b613a5260208301856134f9565b8181036040830152613a64818461354e565b9050949350505050565b7f4e6f7420617574686f72697a6564000000000000000000000000000000000000600082015250565b6000613aa4600e83613513565b9150613aaf82613a6e565b602082019050919050565b60006020820190508181036000830152613ad381613a97565b9050919050565b7f54656e64657220616c7265616479206f70656e00000000000000000000000000600082015250565b6000613b10601383613513565b9150613b1b82613ada565b602082019050919050565b60006020820190508181036000830152613b3f81613b03565b9050919050565b7f4e487b7100000000000000000000000000000000000000000000000000000000600052601160045260246000fd5b6000613b80826132c4565b9150613b8b836132c4565b9250828201905080821115613ba357613ba2613b46565b5b92915050565b7f4e487b7100000000000000000000000000000000000000000000000000000000600052602260045260246000fd5b60006002820490506001821680613bf057607f821691505b602082108103613c0357613c02613ba9565b5b50919050565b60008190508160005260206000209050919050565b60006020601f8301049050919050565b600082821b905092915050565b600060088302613c6b7fffffffffffffffffffffffffffffffffffffffffffffffffffffffffffffffff82613c2e565b613c758683613c2e565b95508019841693508086168417925050509392505050565b6000819050919050565b6000613cb2613cad613ca8846132c4565b613c8d565b6132c4565b9050919050565b6000819050919050565b613ccc83613c97565b613ce0613cd882613cb9565b848454613c3b565b825550505050565b600090565b613cf5613ce8565b613d00818484613cc3565b505050565b5b81811015613d2457613d19600082613ced565b600181019050613d06565b5050565b601f821115613d6957613d3a81613c09565b613d4384613c1e565b81016020851015613d52578190505b613d66613d5e85613c1e565b830182613d05565b50505b505050565b600082821c905092915050565b6000613d8c60001984600802613d6e565b1980831691505092915050565b6000613da58383613d7b565b9150826002028217905092915050565b613dbe82613508565b67ffffffffffffffff811115613dd757613dd6613199565b5b613de18254613bd8565b613dec828285613d28565b600060209050601f831160018114613e1f5760008415613e0d578287015190505b613e178582613d99565b865550613e7f565b601f198416613e2d86613c09565b60005b82811015613e5557848901518255600182019150602085019450602081019050613e30565b86831015613e725784890151613e6e601f891682613d7b565b8355505b6001600288020188555050505b505050505050565b60006080820190508181036000830152613ea1818761354e565b90508181036020830152613eb5818661354e565b9050613ec460408301856134f9565b613ed16060830184613655565b95945050505050565b7f436f6e74726163746f72206e6f7420666f756e64000000000000000000000000600082015250565b6000613f10601483613513565b9150613f1b82613eda565b602082019050919050565b60006020820190508181036000830152613f3f81613f03565b9050919050565b6000606082019050613f5b600083018661343d565b8181036020830152613f6d818561354e565b90508181036040830152613f81818461354e565b9050949350505050565b7f436f6e74726163746f72206e6f74207265676973746572656400000000000000600082015250565b6000613fc1601983613513565b9150613fcc82613f8b565b602082019050919050565b60006020820190508181036000830152613ff081613fb4565b9050919050565b7f54656e64657220636c6f73656400000000000000000000000000000000000000600082015250565b600061402d600d83613513565b915061403882613ff7565b602082019050919050565b6000602082019050818103600083015261405c81614020565b9050919050565b7f42696420616c7265616479207375626d69747465640000000000000000000000600082015250565b6000614099601583613513565b91506140a482614063565b602082019050919050565b600060208201905081810360008301526140c88161408c565b9050919050565b60006040820190506140e460008301856134f9565b81810360208301526140f6818461354e565b90509392505050565b7f526567697374726174696f6e207265717565737420616c72656164792073756260008201527f6d6974746564206f7220636f6e74726163746f7220616c72656164792072656760208201527f6973746572656400000000000000000000000000000000000000000000000000604082015250565b6000614181604783613513565b915061418c826140ff565b606082019050919050565b600060208201905081810360008301526141b081614174565b9050919050565b7f4e6f206163746976652074656e64657200000000000000000000000000000000600082015250565b60006141ed601083613513565b91506141f8826141b7565b602082019050919050565b6000602082019050818103600083015261421c816141e0565b9050919050565b6000815461423081613bd8565b61423a8186613513565b94506001821660008114614255576001811461426b5761429e565b60ff19831686528115156020028601935061429e565b61427485613c09565b60005b8381101561429657815481890152600182019150602081019050614277565b808801955050505b50505092915050565b600060808201905081810360008301526142c18187614223565b905081810360208301526142d58186614223565b90506142e460408301856134f9565b6142f16060830184613655565b95945050505050565b7f4e487b7100000000000000000000000000000000000000000000000000000000600052603260045260246000fd5b6000614334826132c4565b91507fffffffffffffffffffffffffffffffffffffffffffffffffffffffffffffffff820361436657614365613b46565b5b600182019050919050565b7f426964206e6f74207375626d6974746564000000000000000000000000000000600082015250565b60006143a7601183613513565b91506143b282614371565b602082019050919050565b600060208201905081810360008301526143d68161439a565b9050919050565b60006143e8826132c4565b91506143f3836132c4565b925082820390508181111561440b5761440a613b46565b5b92915050565b7f4e487b7100000000000000000000000000000000000000000000000000000000600052603160045260246000fd5b7f54656e646572207375626d697373696f6e207374696c6c206f70656e00000000600082015250565b6000614476601c83613513565b915061448182614440565b602082019050919050565b600060208201905081810360008301526144a581614469565b9050919050565b60006040820190506144c160008301856134f9565b81810360208301526144d38184614223565b9050939250505056fea2646970667358221220d7e8a2a8fb9931d735672acdb3ec4d48ffda734223e39d0a6f2c7ed34e69611064736f6c634300081b0033",
  "linkReferences": {},
  "deployedLinkReferences": {}
}