{
  "_format": "hh-sol-artifact-1",
  "contractName": "BidChain",
  "sourceName": "contracts/e-procurement.sol",
  "abi": [
    {
      "inputs": [],
      "stateMutability": "nonpayable",
      "type": "constructor"
    },
    {
      "anonymous": false,
      "inputs": [
        {
          "indexed": true,
          "internalType": "address",
          "name": "contractor",
          "type": "address"
        },
        {
          "indexed": false,
          "internalType": "uint256",
          "name": "amount",
          "type": "uint256"
        },
        {
          "indexed": false,
          "internalType": "string",
          "name": "ipfsHash",
          "type": "string"
        }
      ],
      "name": "BidSubmitted",
      "type": "event"
    },
    {
      "anonymous": false,
      "inputs": [
        {
          "indexed": true,
          "internalType": "address",
          "name": "contractor",
          "type": "address"
        }
      ],
      "name": "BidWithdrawn",
      "type": "event"
    },
    {
      "anonymous": false,
      "inputs": [
        {
          "indexed": false,
          "internalType": "address",
          "name": "contractorAddress",
          "type": "address"
        },
        {
          "indexed": false,
          "internalType": "string",
          "name": "companyName",
          "type": "string"
        },
        {
          "indexed": false,
          "internalType": "string",
          "name": "email",
          "type": "string"
        }
      ],
      "name": "ContractorDeleted",
      "type": "event"
    },
    {
      "anonymous": false,
      "inputs": [
        {
          "indexed": false,
          "internalType": "address",
          "name": "contractorAddress",
          "type": "address"
        },
        {
          "indexed": false,
          "internalType": "string",
          "name": "companyName",
          "type": "string"
        },
        {
          "indexed": false,
          "internalType": "string",
          "name": "email",
          "type": "string"
        }
      ],
      "name": "ContractorRegistered",
      "type": "event"
    },
    {
      "anonymous": false,
      "inputs": [
        {
          "indexed": false,
          "internalType": "address",
          "name": "contractorAddress",
          "type": "address"
        },
        {
          "indexed": false,
          "internalType": "string",
          "name": "companyName",
          "type": "string"
        },
        {
          "indexed": false,
          "internalType": "string",
          "name": "email",
          "type": "string"
        }
      ],
      "name": "ContractorRegistrationRequested",
      "type": "event"
    },
    {
      "anonymous": false,
      "inputs": [
        {
          "indexed": false,
          "internalType": "string",
          "name": "description",
          "type": "string"
        },
        {
          "indexed": false,
          "internalType": "string",
          "name": "noticeDocumentHash",
          "type": "string"
        },
        {
          "indexed": false,
          "internalType": "uint256",
          "name": "endTime",
          "type": "uint256"
        },
        {
          "indexed": false,
          "internalType": "int256",
          "name": "additionalInfo",
          "type": "int256"
        }
      ],
      "name": "TenderOpened",
      "type": "event"
    },
    {
      "anonymous": false,
      "inputs": [
        {
          "indexed": true,
          "internalType": "address",
          "name": "winner",
          "type": "address"
        },
        {
          "indexed": false,
          "internalType": "uint256",
          "name": "winningBid",
          "type": "uint256"
        },
        {
          "indexed": false,
          "internalType": "string",
          "name": "winnerDocumentHash",
          "type": "string"
        }
      ],
      "name": "WinnerAnnounced",
      "type": "event"
    },
    {
      "inputs": [],
      "name": "activeTender",
      "outputs": [
        {
          "internalType": "string",
          "name": "description",
          "type": "string"
        },
        {
          "internalType": "string",
          "name": "noticeDocumentHash",
          "type": "string"
        },
        {
          "internalType": "uint256",
          "name": "submissionEndTime",
          "type": "uint256"
        },
        {
          "internalType": "bool",
          "name": "isOpen",
          "type": "bool"
        },
        {
          "internalType": "address",
          "name": "winner",
          "type": "address"
        },
        {
          "internalType": "int256",
          "name": "additionalInfo",
          "type": "int256"
        }
      ],
      "stateMutability": "view",
      "type": "function"
    },
    {
      "inputs": [
        {
          "internalType": "uint256",
          "name": "",
          "type": "uint256"
        }
      ],
      "name": "addressList",
      "outputs": [
        {
          "internalType": "address",
          "name": "",
          "type": "address"
        }
      ],
      "stateMutability": "view",
      "type": "function"
    },
    {
      "inputs": [
        {
          "internalType": "uint256",
          "name": "",
          "type": "uint256"
        }
      ],
      "name": "bidderAddresses",
      "outputs": [
        {
          "internalType": "address",
          "name": "",
          "type": "address"
        }
      ],
      "stateMutability": "view",
      "type": "function"
    },
    {
      "inputs": [
        {
          "internalType": "address",
          "name": "",
          "type": "address"
        }
      ],
      "name": "bids",
      "outputs": [
        {
          "internalType": "uint256",
          "name": "amount",
          "type": "uint256"
        },
        {
          "internalType": "string",
          "name": "ipfsHash",
          "type": "string"
        },
        {
          "internalType": "string",
          "name": "encryptedKeyHash",
          "type": "string"
        },
        {
          "internalType": "bool",
          "name": "submitted",
          "type": "bool"
        },
        {
          "internalType": "bool",
          "name": "isWinner",
          "type": "bool"
        },
        {
          "internalType": "bool",
          "name": "isWithdrawn",
          "type": "bool"
        }
      ],
      "stateMutability": "view",
      "type": "function"
    },
    {
      "inputs": [],
      "name": "cancelTender",
      "outputs": [],
      "stateMutability": "nonpayable",
      "type": "function"
    },
    {
      "inputs": [],
      "name": "closeExpiredTender",
      "outputs": [],
      "stateMutability": "nonpayable",
      "type": "function"
    },
    {
      "inputs": [
        {
          "internalType": "address",
          "name": "",
          "type": "address"
        }
      ],
      "name": "contractors",
      "outputs": [
        {
          "internalType": "address",
          "name": "contractorAddress",
          "type": "address"
        },
        {
          "internalType": "string",
          "name": "companyName",
          "type": "string"
        },
        {
          "internalType": "string",
          "name": "email",
          "type": "string"
        },
        {
          "internalType": "bool",
          "name": "isRegistered",
          "type": "bool"
        }
      ],
      "stateMutability": "view",
      "type": "function"
    },
    {
      "inputs": [
        {
          "internalType": "address",
          "name": "_contractorAddress",
          "type": "address"
        }
      ],
      "name": "deleteRegisteredContractor",
      "outputs": [],
      "stateMutability": "nonpayable",
      "type": "function"
    },
    {
      "inputs": [],
      "name": "getBidderAddresses",
      "outputs": [
        {
          "internalType": "address[]",
          "name": "",
          "type": "address[]"
        }
      ],
      "stateMutability": "view",
      "type": "function"
    },
    {
      "inputs": [],
      "name": "getContractOwner",
      "outputs": [
        {
          "internalType": "address",
          "name": "",
          "type": "address"
        }
      ],
      "stateMutability": "view",
      "type": "function"
    },
    {
      "inputs": [],
      "name": "getNoticeDocumentHash",
      "outputs": [
        {
          "internalType": "string",
          "name": "",
          "type": "string"
        }
      ],
      "stateMutability": "view",
      "type": "function"
    },
    {
      "inputs": [],
      "name": "getPendingContractors",
      "outputs": [
        {
          "components": [
            {
              "internalType": "address",
              "name": "contractorAddress",
              "type": "address"
            },
            {
              "internalType": "string",
              "name": "companyName",
              "type": "string"
            },
            {
              "internalType": "string",
              "name": "email",
              "type": "string"
            },
            {
              "internalType": "bool",
              "name": "isRegistered",
              "type": "bool"
            }
          ],
          "internalType": "struct BidChain.Contractor[]",
          "name": "",
          "type": "tuple[]"
        }
      ],
      "stateMutability": "view",
      "type": "function"
    },
    {
      "inputs": [],
      "name": "getRegisteredContractors",
      "outputs": [
        {
          "components": [
            {
              "internalType": "address",
              "name": "contractorAddress",
              "type": "address"
            },
            {
              "internalType": "string",
              "name": "companyName",
              "type": "string"
            },
            {
              "internalType": "string",
              "name": "email",
              "type": "string"
            },
            {
              "internalType": "bool",
              "name": "isRegistered",
              "type": "bool"
            }
          ],
          "internalType": "struct BidChain.Contractor[]",
          "name": "",
          "type": "tuple[]"
        }
      ],
      "stateMutability": "view",
      "type": "function"
    },
    {
      "inputs": [
        {
          "internalType": "address",
          "name": "_contractor",
          "type": "address"
        }
      ],
      "name": "hasContractorSubmittedBid",
      "outputs": [
        {
          "internalType": "bool",
          "name": "",
          "type": "bool"
        }
      ],
      "stateMutability": "view",
      "type": "function"
    },
    {
      "inputs": [
        {
          "internalType": "address",
          "name": "",
          "type": "address"
        }
      ],
      "name": "hasSubmittedBid",
      "outputs": [
        {
          "internalType": "bool",
          "name": "",
          "type": "bool"
        }
      ],
      "stateMutability": "view",
      "type": "function"
    },
    {
      "inputs": [],
      "name": "isTenderOpen",
      "outputs": [
        {
          "internalType": "bool",
          "name": "",
          "type": "bool"
        }
      ],
      "stateMutability": "view",
      "type": "function"
    },
    {
      "inputs": [
        {
          "internalType": "string",
          "name": "_description",
          "type": "string"
        },
        {
          "internalType": "string",
          "name": "_noticeDocumentHash",
          "type": "string"
        },
        {
          "internalType": "uint256",
          "name": "_duration",
          "type": "uint256"
        }
      ],
      "name": "openTender",
      "outputs": [],
      "stateMutability": "nonpayable",
      "type": "function"
    },
    {
      "inputs": [],
      "name": "owner",
      "outputs": [
        {
          "internalType": "address",
          "name": "",
          "type": "address"
        }
      ],
      "stateMutability": "view",
      "type": "function"
    },
    {
      "inputs": [
        {
          "internalType": "address",
          "name": "",
          "type": "address"
        }
      ],
      "name": "pendingContractors",
      "outputs": [
        {
          "internalType": "address",
          "name": "contractorAddress",
          "type": "address"
        },
        {
          "internalType": "string",
          "name": "companyName",
          "type": "string"
        },
        {
          "internalType": "string",
          "name": "email",
          "type": "string"
        },
        {
          "internalType": "bool",
          "name": "isRegistered",
          "type": "bool"
        }
      ],
      "stateMutability": "view",
      "type": "function"
    },
    {
      "inputs": [
        {
          "internalType": "address",
          "name": "_contractorAddress",
          "type": "address"
        }
      ],
      "name": "registerContractor",
      "outputs": [],
      "stateMutability": "nonpayable",
      "type": "function"
    },
    {
      "inputs": [
        {
          "internalType": "uint256",
          "name": "",
          "type": "uint256"
        }
      ],
      "name": "registeredContractors",
      "outputs": [
        {
          "internalType": "address",
          "name": "",
          "type": "address"
        }
      ],
      "stateMutability": "view",
      "type": "function"
    },
    {
      "inputs": [],
      "name": "storedCommitment",
      "outputs": [
        {
          "internalType": "bytes32",
          "name": "",
          "type": "bytes32"
        }
      ],
      "stateMutability": "view",
      "type": "function"
    },
    {
      "inputs": [
        {
          "internalType": "uint256",
          "name": "_amount",
          "type": "uint256"
        },
        {
          "internalType": "string",
          "name": "_ipfsHash",
          "type": "string"
        },
        {
          "internalType": "string",
          "name": "_encryptedKeyHash",
          "type": "string"
        }
      ],
      "name": "submitBid",
      "outputs": [],
      "stateMutability": "nonpayable",
      "type": "function"
    },
    {
      "inputs": [
        {
          "internalType": "bytes32",
          "name": "commitment",
          "type": "bytes32"
        }
      ],
      "name": "submitCommitment",
      "outputs": [],
      "stateMutability": "nonpayable",
      "type": "function"
    },
    {
      "inputs": [
        {
          "internalType": "string",
          "name": "_companyName",
          "type": "string"
        },
        {
          "internalType": "string",
          "name": "_email",
          "type": "string"
        }
      ],
      "name": "submitRegistrationRequest",
      "outputs": [],
      "stateMutability": "nonpayable",
      "type": "function"
    },
    {
      "inputs": [
        {
          "internalType": "string",
          "name": "resultSummary",
          "type": "string"
        },
        {
          "internalType": "string",
          "name": "salt",
          "type": "string"
        }
      ],
      "name": "verifyResult",
      "outputs": [
        {
          "internalType": "bool",
          "name": "",
          "type": "bool"
        }
      ],
      "stateMutability": "view",
      "type": "function"
    },
    {
      "inputs": [],
      "name": "viewActiveTenderDetails",
      "outputs": [
        {
          "internalType": "string",
          "name": "description",
          "type": "string"
        },
        {
          "internalType": "string",
          "name": "noticeDocumentHash",
          "type": "string"
        },
        {
          "internalType": "uint256",
          "name": "submissionEndTime",
          "type": "uint256"
        },
        {
          "internalType": "int256",
          "name": "additionalInfo",
          "type": "int256"
        },
        {
          "internalType": "bool",
          "name": "isOpen",
          "type": "bool"
        }
      ],
      "stateMutability": "view",
      "type": "function"
    },
    {
      "inputs": [],
      "name": "viewMyBid",
      "outputs": [
        {
          "components": [
            {
              "internalType": "uint256",
              "name": "amount",
              "type": "uint256"
            },
            {
              "internalType": "string",
              "name": "ipfsHash",
              "type": "string"
            },
            {
              "internalType": "string",
              "name": "encryptedKeyHash",
              "type": "string"
            },
            {
              "internalType": "bool",
              "name": "submitted",
              "type": "bool"
            },
            {
              "internalType": "bool",
              "name": "isWinner",
              "type": "bool"
            },
            {
              "internalType": "bool",
              "name": "isWithdrawn",
              "type": "bool"
            }
          ],
          "internalType": "struct BidChain.Bid",
          "name": "",
          "type": "tuple"
        }
      ],
      "stateMutability": "view",
      "type": "function"
    },
    {
      "inputs": [],
      "name": "viewSubmittedBids",
      "outputs": [
        {
          "internalType": "address[]",
          "name": "",
          "type": "address[]"
        },
        {
          "internalType": "uint256[]",
          "name": "",
          "type": "uint256[]"
        },
        {
          "internalType": "string[]",
          "name": "",
          "type": "string[]"
        },
        {
          "internalType": "string[]",
          "name": "",
          "type": "string[]"
        }
      ],
      "stateMutability": "view",
      "type": "function"
    },
    {
      "inputs": [],
      "name": "withdrawBid",
      "outputs": [],
      "stateMutability": "nonpayable",
      "type": "function"
    }
  ],
  "bytecode": "0x6080604052348015600f57600080fd5b5033600160006101000a81548173ffffffffffffffffffffffffffffffffffffffff021916908373ffffffffffffffffffffffffffffffffffffffff160217905550615a62806100606000396000f3fe608060405234801561001057600080fd5b50600436106101da5760003560e01c80637ea942c8116101045780639f0521b8116100a2578063c27677e211610071578063c27677e214610520578063c75e97c51461053e578063e35569a61461056e578063e6a20c82146105a1576101da565b80639f0521b8146104ac578063ad5bc477146104ca578063b366a473146104e6578063b810fb43146104f0576101da565b80638bf738ff116100de5780638bf738ff1461042c5780638d16e7851461044a5780638da5cb5b1461046d5780639ac7fa141461048b576101da565b80637ea942c8146103d4578063816bc596146103de57806381bca3af146103fc576101da565b8063442890d51161017c5780636a1738de1161014b5780636a1738de14610348578063713c83b3146103785780637252690f146103945780637cd12899146103b2576101da565b8063442890d5146102bd57806353f3eb8f146102db57806362d78335146102f757806362ea82db14610313576101da565b80632561a429116101b85780632561a429146102495780632fb3c48f1461026557806337271cc7146102955780633db9cd891461029f576101da565b80630430427c146101df57806309c64fb9146101fb5780630d7e814014610219575b600080fd5b6101f960048036038101906101f49190614310565b6105d4565b005b61020361096f565b60405161021091906144d4565b60405180910390f35b610233600480360381019061022e9190614554565b610c63565b6040516102409190614590565b60405180910390f35b610263600480360381019061025e9190614554565b610cb9565b005b61027f600480360381019061027a91906145ab565b61122b565b60405161028c91906145e7565b60405180910390f35b61029d61126a565b005b6102a76116f9565b6040516102b49190614590565b60405180910390f35b6102c5611713565b6040516102d291906145e7565b60405180910390f35b6102f560048036038101906102f09190614638565b61173d565b005b610311600480360381019061030c9190614665565b611867565b005b61032d60048036038101906103289190614554565b611c03565b60405161033f96959493929190614749565b60405180910390f35b610362600480360381019061035d91906145ab565b611d76565b60405161036f91906145e7565b60405180910390f35b610392600480360381019061038d91906147b8565b611db5565b005b61039c612049565b6040516103a9919061483f565b60405180910390f35b6103ba61204f565b6040516103cb959493929190614873565b60405180910390f35b6103dc61228f565b005b6103e66123cc565b6040516103f391906148d4565b60405180910390f35b610416600480360381019061041191906147b8565b61254f565b6040516104239190614590565b60405180910390f35b61043461258b565b6040516104419190614a31565b60405180910390f35b610452612a2d565b60405161046496959493929190614a53565b60405180910390f35b610475612b94565b60405161048291906145e7565b60405180910390f35b610493612bba565b6040516104a39493929190614ce2565b60405180910390f35b6104b4613128565b6040516104c19190614a31565b60405180910390f35b6104e460048036038101906104df9190614554565b6133e8565b005b6104ee613955565b005b61050a600480360381019061050591906145ab565b613c17565b60405161051791906145e7565b60405180910390f35b610528613c56565b6040516105359190614d43565b60405180910390f35b61055860048036038101906105539190614554565b613ce4565b6040516105659190614590565b60405180910390f35b61058860048036038101906105839190614554565b613d04565b6040516105989493929190614d65565b60405180910390f35b6105bb60048036038101906105b69190614554565b613e71565b6040516105cb9493929190614d65565b60405180910390f35b600160009054906101000a900473ffffffffffffffffffffffffffffffffffffffff1673ffffffffffffffffffffffffffffffffffffffff163373ffffffffffffffffffffffffffffffffffffffff1614610664576040517f08c379a000000000000000000000000000000000000000000000000000000000815260040161065b90614e04565b60405180910390fd5b600260030160009054906101000a900460ff16156106b7576040517f08c379a00000000000000000000000000000000000000000000000000000000081526004016106ae90614e70565b60405180910390fd5b60005b600c80549050811015610816576000600c82815481106106dd576106dc614e90565b5b9060005260206000200160009054906101000a900473ffffffffffffffffffffffffffffffffffffffff1690506000600a60008373ffffffffffffffffffffffffffffffffffffffff1673ffffffffffffffffffffffffffffffffffffffff16815260200190815260200160002060006101000a81548160ff021916908315150217905550600860008273ffffffffffffffffffffffffffffffffffffffff1673ffffffffffffffffffffffffffffffffffffffff1681526020019081526020016000206000808201600090556001820160006107ba9190614086565b6002820160006107ca9190614086565b6003820160006101000a81549060ff02191690556003820160016101000a81549060ff02191690556003820160026101000a81549060ff021916905550505080806001019150506106ba565b50600c600061082591906140c6565b6040518060c0016040528084815260200183815260200182426108489190614eee565b8152602001600115158152602001600073ffffffffffffffffffffffffffffffffffffffff16815260200160008152506002600082015181600001908161088f919061512e565b5060208201518160010190816108a5919061512e565b506040820151816002015560608201518160030160006101000a81548160ff02191690831515021790555060808201518160030160016101000a81548173ffffffffffffffffffffffffffffffffffffffff021916908373ffffffffffffffffffffffffffffffffffffffff16021790555060a082015181600401559050507f0c933c861f93878dd04b07a9cd98e725df697e7d1095846f00b18219e4f17ce9838360028001546002600401546040516109629493929190615200565b60405180910390a1505050565b6109776140e7565b600760003373ffffffffffffffffffffffffffffffffffffffff1673ffffffffffffffffffffffffffffffffffffffff16815260200190815260200160002060030160009054906101000a900460ff16610a06576040517f08c379a00000000000000000000000000000000000000000000000000000000081526004016109fd9061529f565b60405180910390fd5b600860003373ffffffffffffffffffffffffffffffffffffffff1673ffffffffffffffffffffffffffffffffffffffff16815260200190815260200160002060030160009054906101000a900460ff16610a95576040517f08c379a0000000000000000000000000000000000000000000000000000000008152600401610a8c9061530b565b60405180910390fd5b600860003373ffffffffffffffffffffffffffffffffffffffff1673ffffffffffffffffffffffffffffffffffffffff1681526020019081526020016000206040518060c001604052908160008201548152602001600182018054610af990614f51565b80601f0160208091040260200160405190810160405280929190818152602001828054610b2590614f51565b8015610b725780601f10610b4757610100808354040283529160200191610b72565b820191906000526020600020905b815481529060010190602001808311610b5557829003601f168201915b50505050508152602001600282018054610b8b90614f51565b80601f0160208091040260200160405190810160405280929190818152602001828054610bb790614f51565b8015610c045780601f10610bd957610100808354040283529160200191610c04565b820191906000526020600020905b815481529060010190602001808311610be757829003601f168201915b505050505081526020016003820160009054906101000a900460ff161515151581526020016003820160019054906101000a900460ff161515151581526020016003820160029054906101000a900460ff161515151581525050905090565b6000600a60008373ffffffffffffffffffffffffffffffffffffffff1673ffffffffffffffffffffffffffffffffffffffff16815260200190815260200160002060009054906101000a900460ff169050919050565b600160009054906101000a900473ffffffffffffffffffffffffffffffffffffffff1673ffffffffffffffffffffffffffffffffffffffff163373ffffffffffffffffffffffffffffffffffffffff1614610d49576040517f08c379a0000000000000000000000000000000000000000000000000000000008152600401610d4090614e04565b60405180910390fd5b600073ffffffffffffffffffffffffffffffffffffffff16600960008373ffffffffffffffffffffffffffffffffffffffff1673ffffffffffffffffffffffffffffffffffffffff16815260200190815260200160002060000160009054906101000a900473ffffffffffffffffffffffffffffffffffffffff1673ffffffffffffffffffffffffffffffffffffffff1603610e1a576040517f08c379a0000000000000000000000000000000000000000000000000000000008152600401610e1190615377565b60405180910390fd5b6000600960008373ffffffffffffffffffffffffffffffffffffffff1673ffffffffffffffffffffffffffffffffffffffff1681526020019081526020016000206040518060800160405290816000820160009054906101000a900473ffffffffffffffffffffffffffffffffffffffff1673ffffffffffffffffffffffffffffffffffffffff1673ffffffffffffffffffffffffffffffffffffffff168152602001600182018054610ecc90614f51565b80601f0160208091040260200160405190810160405280929190818152602001828054610ef890614f51565b8015610f455780601f10610f1a57610100808354040283529160200191610f45565b820191906000526020600020905b815481529060010190602001808311610f2857829003601f168201915b50505050508152602001600282018054610f5e90614f51565b80601f0160208091040260200160405190810160405280929190818152602001828054610f8a90614f51565b8015610fd75780601f10610fac57610100808354040283529160200191610fd7565b820191906000526020600020905b815481529060010190602001808311610fba57829003601f168201915b505050505081526020016003820160009054906101000a900460ff1615151515815250509050600181606001901515908115158152505080600760008473ffffffffffffffffffffffffffffffffffffffff1673ffffffffffffffffffffffffffffffffffffffff16815260200190815260200160002060008201518160000160006101000a81548173ffffffffffffffffffffffffffffffffffffffff021916908373ffffffffffffffffffffffffffffffffffffffff16021790555060208201518160010190816110aa919061512e565b5060408201518160020190816110c0919061512e565b5060608201518160030160006101000a81548160ff021916908315150217905550905050600d829080600181540180825580915050600190039060005260206000200160009091909190916101000a81548173ffffffffffffffffffffffffffffffffffffffff021916908373ffffffffffffffffffffffffffffffffffffffff160217905550600960008373ffffffffffffffffffffffffffffffffffffffff1673ffffffffffffffffffffffffffffffffffffffff168152602001908152602001600020600080820160006101000a81549073ffffffffffffffffffffffffffffffffffffffff02191690556001820160006111be9190614086565b6002820160006111ce9190614086565b6003820160006101000a81549060ff021916905550507f48db77b84f62eb159d6efadc8200961208efc86642bbcf53531aefb6615c88ca828260200151836040015160405161121f93929190615397565b60405180910390a15050565b600c818154811061123b57600080fd5b906000526020600020016000915054906101000a900473ffffffffffffffffffffffffffffffffffffffff1681565b600760003373ffffffffffffffffffffffffffffffffffffffff1673ffffffffffffffffffffffffffffffffffffffff16815260200190815260200160002060030160009054906101000a900460ff166112f9576040517f08c379a00000000000000000000000000000000000000000000000000000000081526004016112f09061529f565b60405180910390fd5b6002800154421115801561131c5750600260030160009054906101000a900460ff165b61135b576040517f08c379a000000000000000000000000000000000000000000000000000000000815260040161135290615428565b60405180910390fd5b600860003373ffffffffffffffffffffffffffffffffffffffff1673ffffffffffffffffffffffffffffffffffffffff16815260200190815260200160002060030160009054906101000a900460ff166113ea576040517f08c379a00000000000000000000000000000000000000000000000000000000081526004016113e19061530b565b60405180910390fd5b600860003373ffffffffffffffffffffffffffffffffffffffff1673ffffffffffffffffffffffffffffffffffffffff16815260200190815260200160002060030160029054906101000a900460ff161561147a576040517f08c379a000000000000000000000000000000000000000000000000000000000815260040161147190615494565b60405180910390fd5b6001600860003373ffffffffffffffffffffffffffffffffffffffff1673ffffffffffffffffffffffffffffffffffffffff16815260200190815260200160002060030160026101000a81548160ff0219169083151502179055506000600a60003373ffffffffffffffffffffffffffffffffffffffff1673ffffffffffffffffffffffffffffffffffffffff16815260200190815260200160002060006101000a81548160ff02191690831515021790555060005b600c805490508110156116b3573373ffffffffffffffffffffffffffffffffffffffff16600c828154811061156857611567614e90565b5b9060005260206000200160009054906101000a900473ffffffffffffffffffffffffffffffffffffffff1673ffffffffffffffffffffffffffffffffffffffff16036116a657600c6001600c805490506115c291906154b4565b815481106115d3576115d2614e90565b5b9060005260206000200160009054906101000a900473ffffffffffffffffffffffffffffffffffffffff16600c828154811061161257611611614e90565b5b9060005260206000200160006101000a81548173ffffffffffffffffffffffffffffffffffffffff021916908373ffffffffffffffffffffffffffffffffffffffff160217905550600c80548061166c5761166b6154e8565b5b6001900381819060005260206000200160006101000a81549073ffffffffffffffffffffffffffffffffffffffff021916905590556116b3565b8080600101915050611530565b503373ffffffffffffffffffffffffffffffffffffffff167fe4b292cd5a573e1d0cf3c41a161b96cd6639bf4523291e9efbd663177c99d74460405160405180910390a2565b6000600260030160009054906101000a900460ff16905090565b6000600160009054906101000a900473ffffffffffffffffffffffffffffffffffffffff16905090565b600160009054906101000a900473ffffffffffffffffffffffffffffffffffffffff1673ffffffffffffffffffffffffffffffffffffffff163373ffffffffffffffffffffffffffffffffffffffff16146117cd576040517f08c379a00000000000000000000000000000000000000000000000000000000081526004016117c490614e04565b60405180910390fd5b600160009054906101000a900473ffffffffffffffffffffffffffffffffffffffff1673ffffffffffffffffffffffffffffffffffffffff163373ffffffffffffffffffffffffffffffffffffffff161461185d576040517f08c379a000000000000000000000000000000000000000000000000000000000815260040161185490615563565b60405180910390fd5b8060008190555050565b600760003373ffffffffffffffffffffffffffffffffffffffff1673ffffffffffffffffffffffffffffffffffffffff16815260200190815260200160002060030160009054906101000a900460ff166118f6576040517f08c379a00000000000000000000000000000000000000000000000000000000081526004016118ed9061529f565b60405180910390fd5b600280015442111580156119195750600260030160009054906101000a900460ff165b611958576040517f08c379a000000000000000000000000000000000000000000000000000000000815260040161194f90615428565b60405180910390fd5b600a60003373ffffffffffffffffffffffffffffffffffffffff1673ffffffffffffffffffffffffffffffffffffffff16815260200190815260200160002060009054906101000a900460ff16156119e5576040517f08c379a00000000000000000000000000000000000000000000000000000000081526004016119dc906155cf565b60405180910390fd5b6040518060c0016040528084815260200183815260200182815260200160011515815260200160001515815260200160001515815250600860003373ffffffffffffffffffffffffffffffffffffffff1673ffffffffffffffffffffffffffffffffffffffff168152602001908152602001600020600082015181600001556020820151816001019081611a79919061512e565b506040820151816002019081611a8f919061512e565b5060608201518160030160006101000a81548160ff02191690831515021790555060808201518160030160016101000a81548160ff02191690831515021790555060a08201518160030160026101000a81548160ff0219169083151502179055509050506001600a60003373ffffffffffffffffffffffffffffffffffffffff1673ffffffffffffffffffffffffffffffffffffffff16815260200190815260200160002060006101000a81548160ff021916908315150217905550600c339080600181540180825580915050600190039060005260206000200160009091909190916101000a81548173ffffffffffffffffffffffffffffffffffffffff021916908373ffffffffffffffffffffffffffffffffffffffff1602179055503373ffffffffffffffffffffffffffffffffffffffff167f3eb2fab71a1de5753e125aa7b47368bd108ec2bff6e86e69cb009d365ba2f2718484604051611bf69291906155ef565b60405180910390a2505050565b6008602052806000526040600020600091509050806000015490806001018054611c2c90614f51565b80601f0160208091040260200160405190810160405280929190818152602001828054611c5890614f51565b8015611ca55780601f10611c7a57610100808354040283529160200191611ca5565b820191906000526020600020905b815481529060010190602001808311611c8857829003601f168201915b505050505090806002018054611cba90614f51565b80601f0160208091040260200160405190810160405280929190818152602001828054611ce690614f51565b8015611d335780601f10611d0857610100808354040283529160200191611d33565b820191906000526020600020905b815481529060010190602001808311611d1657829003601f168201915b5050505050908060030160009054906101000a900460ff16908060030160019054906101000a900460ff16908060030160029054906101000a900460ff16905086565b600d8181548110611d8657600080fd5b906000526020600020016000915054906101000a900473ffffffffffffffffffffffffffffffffffffffff1681565b600073ffffffffffffffffffffffffffffffffffffffff16600960003373ffffffffffffffffffffffffffffffffffffffff1673ffffffffffffffffffffffffffffffffffffffff16815260200190815260200160002060000160009054906101000a900473ffffffffffffffffffffffffffffffffffffffff1673ffffffffffffffffffffffffffffffffffffffff16148015611e595750611e5733613fde565b155b611e98576040517f08c379a0000000000000000000000000000000000000000000000000000000008152600401611e8f906156b7565b60405180910390fd5b60405180608001604052803373ffffffffffffffffffffffffffffffffffffffff16815260200183815260200182815260200160001515815250600960003373ffffffffffffffffffffffffffffffffffffffff1673ffffffffffffffffffffffffffffffffffffffff16815260200190815260200160002060008201518160000160006101000a81548173ffffffffffffffffffffffffffffffffffffffff021916908373ffffffffffffffffffffffffffffffffffffffff1602179055506020820151816001019081611f6d919061512e565b506040820151816002019081611f83919061512e565b5060608201518160030160006101000a81548160ff021916908315150217905550905050600b339080600181540180825580915050600190039060005260206000200160009091909190916101000a81548173ffffffffffffffffffffffffffffffffffffffff021916908373ffffffffffffffffffffffffffffffffffffffff1602179055507f42e1ca0950bf6539d4204c340755718403c9f9db5e3152ba6a4aa765d784cff633838360405161203d93929190615397565b60405180910390a15050565b60005481565b6060806000806000600760003373ffffffffffffffffffffffffffffffffffffffff1673ffffffffffffffffffffffffffffffffffffffff16815260200190815260200160002060030160009054906101000a900460ff16806120ff5750600160009054906101000a900473ffffffffffffffffffffffffffffffffffffffff1673ffffffffffffffffffffffffffffffffffffffff163373ffffffffffffffffffffffffffffffffffffffff16145b61213e576040517f08c379a000000000000000000000000000000000000000000000000000000000815260040161213590614e04565b60405180910390fd5b600260000160026001016002800154600260040154600260030160009054906101000a900460ff1684805461217290614f51565b80601f016020809104026020016040519081016040528092919081815260200182805461219e90614f51565b80156121eb5780601f106121c0576101008083540402835291602001916121eb565b820191906000526020600020905b8154815290600101906020018083116121ce57829003601f168201915b505050505094508380546121fe90614f51565b80601f016020809104026020016040519081016040528092919081815260200182805461222a90614f51565b80156122775780601f1061224c57610100808354040283529160200191612277565b820191906000526020600020905b81548152906001019060200180831161225a57829003601f168201915b50505050509350945094509450945094509091929394565b600160009054906101000a900473ffffffffffffffffffffffffffffffffffffffff1673ffffffffffffffffffffffffffffffffffffffff163373ffffffffffffffffffffffffffffffffffffffff161461231f576040517f08c379a000000000000000000000000000000000000000000000000000000000815260040161231690614e04565b60405180910390fd5b600260030160009054906101000a900460ff16612371576040517f08c379a000000000000000000000000000000000000000000000000000000000815260040161236890615723565b60405180910390fd5b60016002600401819055507f0c933c861f93878dd04b07a9cd98e725df697e7d1095846f00b18219e4f17ce96002600001600260010160028001546002600401546040516123c294939291906157c7565b60405180910390a1565b6060600260030160009054906101000a900460ff16612420576040517f08c379a000000000000000000000000000000000000000000000000000000000815260040161241790615866565b60405180910390fd5b600160026004015414612468576040517f08c379a000000000000000000000000000000000000000000000000000000000815260040161245f906158d2565b60405180910390fd5b60006002600101805461247a90614f51565b9050116124bc576040517f08c379a00000000000000000000000000000000000000000000000000000000081526004016124b390615964565b60405180910390fd5b600260010180546124cc90614f51565b80601f01602080910402602001604051908101604052809291908181526020018280546124f890614f51565b80156125455780601f1061251a57610100808354040283529160200191612545565b820191906000526020600020905b81548152906001019060200180831161252857829003601f168201915b5050505050905090565b60008083836040516020016125659291906159c0565b604051602081830303815290604052805190602001209050600054811491505092915050565b60606000805b600b8054905081101561268e57600073ffffffffffffffffffffffffffffffffffffffff1660096000600b84815481106125ce576125cd614e90565b5b9060005260206000200160009054906101000a900473ffffffffffffffffffffffffffffffffffffffff1673ffffffffffffffffffffffffffffffffffffffff1673ffffffffffffffffffffffffffffffffffffffff16815260200190815260200160002060000160009054906101000a900473ffffffffffffffffffffffffffffffffffffffff1673ffffffffffffffffffffffffffffffffffffffff161461268157818061267d906159e4565b9250505b8080600101915050612591565b5060008167ffffffffffffffff8111156126ab576126aa6141af565b5b6040519080825280602002602001820160405280156126e457816020015b6126d1614123565b8152602001906001900390816126c95790505b5090506000805b600b80549050811015612a2357600073ffffffffffffffffffffffffffffffffffffffff1660096000600b848154811061272857612727614e90565b5b9060005260206000200160009054906101000a900473ffffffffffffffffffffffffffffffffffffffff1673ffffffffffffffffffffffffffffffffffffffff1673ffffffffffffffffffffffffffffffffffffffff16815260200190815260200160002060000160009054906101000a900473ffffffffffffffffffffffffffffffffffffffff1673ffffffffffffffffffffffffffffffffffffffff1614612a165760096000600b83815481106127e4576127e3614e90565b5b9060005260206000200160009054906101000a900473ffffffffffffffffffffffffffffffffffffffff1673ffffffffffffffffffffffffffffffffffffffff1673ffffffffffffffffffffffffffffffffffffffff1681526020019081526020016000206040518060800160405290816000820160009054906101000a900473ffffffffffffffffffffffffffffffffffffffff1673ffffffffffffffffffffffffffffffffffffffff1673ffffffffffffffffffffffffffffffffffffffff1681526020016001820180546128ba90614f51565b80601f01602080910402602001604051908101604052809291908181526020018280546128e690614f51565b80156129335780601f1061290857610100808354040283529160200191612933565b820191906000526020600020905b81548152906001019060200180831161291657829003601f168201915b5050505050815260200160028201805461294c90614f51565b80601f016020809104026020016040519081016040528092919081815260200182805461297890614f51565b80156129c55780601f1061299a576101008083540402835291602001916129c5565b820191906000526020600020905b8154815290600101906020018083116129a857829003601f168201915b505050505081526020016003820160009054906101000a900460ff1615151515815250508383815181106129fc576129fb614e90565b5b60200260200101819052508180612a12906159e4565b9250505b80806001019150506126eb565b5081935050505090565b6002806000018054612a3e90614f51565b80601f0160208091040260200160405190810160405280929190818152602001828054612a6a90614f51565b8015612ab75780601f10612a8c57610100808354040283529160200191612ab7565b820191906000526020600020905b815481529060010190602001808311612a9a57829003601f168201915b505050505090806001018054612acc90614f51565b80601f0160208091040260200160405190810160405280929190818152602001828054612af890614f51565b8015612b455780601f10612b1a57610100808354040283529160200191612b45565b820191906000526020600020905b815481529060010190602001808311612b2857829003601f168201915b5050505050908060020154908060030160009054906101000a900460ff16908060030160019054906101000a900473ffffffffffffffffffffffffffffffffffffffff16908060040154905086565b600160009054906101000a900473ffffffffffffffffffffffffffffffffffffffff1681565b606080606080600160009054906101000a900473ffffffffffffffffffffffffffffffffffffffff1673ffffffffffffffffffffffffffffffffffffffff163373ffffffffffffffffffffffffffffffffffffffff1614612c50576040517f08c379a0000000000000000000000000000000000000000000000000000000008152600401612c4790614e04565b60405180910390fd5b600260030160009054906101000a900460ff16612ca2576040517f08c379a0000000000000000000000000000000000000000000000000000000008152600401612c9990615723565b60405180910390fd5b600160026004015414612cea576040517f08c379a0000000000000000000000000000000000000000000000000000000008152600401612ce1906158d2565b60405180910390fd5b6000600c80549050905060008167ffffffffffffffff811115612d1057612d0f6141af565b5b604051908082528060200260200182016040528015612d3e5781602001602082028036833780820191505090505b50905060008267ffffffffffffffff811115612d5d57612d5c6141af565b5b604051908082528060200260200182016040528015612d8b5781602001602082028036833780820191505090505b50905060008367ffffffffffffffff811115612daa57612da96141af565b5b604051908082528060200260200182016040528015612ddd57816020015b6060815260200190600190039081612dc85790505b50905060008467ffffffffffffffff811115612dfc57612dfb6141af565b5b604051908082528060200260200182016040528015612e2f57816020015b6060815260200190600190039081612e1a5790505b50905060005b85811015613110576000600c8281548110612e5357612e52614e90565b5b9060005260206000200160009054906101000a900473ffffffffffffffffffffffffffffffffffffffff16905080868381518110612e9457612e93614e90565b5b602002602001019073ffffffffffffffffffffffffffffffffffffffff16908173ffffffffffffffffffffffffffffffffffffffff1681525050600860008273ffffffffffffffffffffffffffffffffffffffff1673ffffffffffffffffffffffffffffffffffffffff16815260200190815260200160002060000154858381518110612f2457612f23614e90565b5b602002602001018181525050600860008273ffffffffffffffffffffffffffffffffffffffff1673ffffffffffffffffffffffffffffffffffffffff1681526020019081526020016000206001018054612f7d90614f51565b80601f0160208091040260200160405190810160405280929190818152602001828054612fa990614f51565b8015612ff65780601f10612fcb57610100808354040283529160200191612ff6565b820191906000526020600020905b815481529060010190602001808311612fd957829003601f168201915b505050505084838151811061300e5761300d614e90565b5b6020026020010181905250600860008273ffffffffffffffffffffffffffffffffffffffff1673ffffffffffffffffffffffffffffffffffffffff168152602001908152602001600020600201805461306690614f51565b80601f016020809104026020016040519081016040528092919081815260200182805461309290614f51565b80156130df5780601f106130b4576101008083540402835291602001916130df565b820191906000526020600020905b8154815290600101906020018083116130c257829003601f168201915b50505050508383815181106130f7576130f6614e90565b5b6020026020010181905250508080600101915050612e35565b50838383839850985098509850505050505090919293565b60606000600d80549050905060008167ffffffffffffffff8111156131505761314f6141af565b5b60405190808252806020026020018201604052801561318957816020015b613176614123565b81526020019060019003908161316e5790505b50905060005b828110156133df5760076000600d83815481106131af576131ae614e90565b5b9060005260206000200160009054906101000a900473ffffffffffffffffffffffffffffffffffffffff1673ffffffffffffffffffffffffffffffffffffffff1673ffffffffffffffffffffffffffffffffffffffff1681526020019081526020016000206040518060800160405290816000820160009054906101000a900473ffffffffffffffffffffffffffffffffffffffff1673ffffffffffffffffffffffffffffffffffffffff1673ffffffffffffffffffffffffffffffffffffffff16815260200160018201805461328590614f51565b80601f01602080910402602001604051908101604052809291908181526020018280546132b190614f51565b80156132fe5780601f106132d3576101008083540402835291602001916132fe565b820191906000526020600020905b8154815290600101906020018083116132e157829003601f168201915b5050505050815260200160028201805461331790614f51565b80601f016020809104026020016040519081016040528092919081815260200182805461334390614f51565b80156133905780601f1061336557610100808354040283529160200191613390565b820191906000526020600020905b81548152906001019060200180831161337357829003601f168201915b505050505081526020016003820160009054906101000a900460ff1615151515815250508282815181106133c7576133c6614e90565b5b6020026020010181905250808060010191505061318f565b50809250505090565b600160009054906101000a900473ffffffffffffffffffffffffffffffffffffffff1673ffffffffffffffffffffffffffffffffffffffff163373ffffffffffffffffffffffffffffffffffffffff1614613478576040517f08c379a000000000000000000000000000000000000000000000000000000000815260040161346f90614e04565b60405180910390fd5b600760008273ffffffffffffffffffffffffffffffffffffffff1673ffffffffffffffffffffffffffffffffffffffff16815260200190815260200160002060030160009054906101000a900460ff16613507576040517f08c379a00000000000000000000000000000000000000000000000000000000081526004016134fe9061529f565b60405180910390fd5b6000600760008373ffffffffffffffffffffffffffffffffffffffff1673ffffffffffffffffffffffffffffffffffffffff1681526020019081526020016000206040518060800160405290816000820160009054906101000a900473ffffffffffffffffffffffffffffffffffffffff1673ffffffffffffffffffffffffffffffffffffffff1673ffffffffffffffffffffffffffffffffffffffff1681526020016001820180546135b990614f51565b80601f01602080910402602001604051908101604052809291908181526020018280546135e590614f51565b80156136325780601f1061360757610100808354040283529160200191613632565b820191906000526020600020905b81548152906001019060200180831161361557829003601f168201915b5050505050815260200160028201805461364b90614f51565b80601f016020809104026020016040519081016040528092919081815260200182805461367790614f51565b80156136c45780601f10613699576101008083540402835291602001916136c4565b820191906000526020600020905b8154815290600101906020018083116136a757829003601f168201915b505050505081526020016003820160009054906101000a900460ff1615151515815250509050600760008373ffffffffffffffffffffffffffffffffffffffff1673ffffffffffffffffffffffffffffffffffffffff168152602001908152602001600020600080820160006101000a81549073ffffffffffffffffffffffffffffffffffffffff02191690556001820160006137619190614086565b6002820160006137719190614086565b6003820160006101000a81549060ff0219169055505060005b600d8054905081101561390d578273ffffffffffffffffffffffffffffffffffffffff16600d82815481106137c2576137c1614e90565b5b9060005260206000200160009054906101000a900473ffffffffffffffffffffffffffffffffffffffff1673ffffffffffffffffffffffffffffffffffffffff160361390057600d6001600d8054905061381c91906154b4565b8154811061382d5761382c614e90565b5b9060005260206000200160009054906101000a900473ffffffffffffffffffffffffffffffffffffffff16600d828154811061386c5761386b614e90565b5b9060005260206000200160006101000a81548173ffffffffffffffffffffffffffffffffffffffff021916908373ffffffffffffffffffffffffffffffffffffffff160217905550600d8054806138c6576138c56154e8565b5b6001900381819060005260206000200160006101000a81549073ffffffffffffffffffffffffffffffffffffffff0219169055905561390d565b808060010191505061378a565b507f6ea6015034906588e3324f5d414ebf92f452dd217b5af6b5fc79f81c86a3ed4b828260200151836040015160405161394993929190615397565b60405180910390a15050565b600160009054906101000a900473ffffffffffffffffffffffffffffffffffffffff1673ffffffffffffffffffffffffffffffffffffffff163373ffffffffffffffffffffffffffffffffffffffff16146139e5576040517f08c379a00000000000000000000000000000000000000000000000000000000081526004016139dc90614e04565b60405180910390fd5b600260030160009054906101000a900460ff16613a37576040517f08c379a0000000000000000000000000000000000000000000000000000000008152600401613a2e90615723565b60405180910390fd5b600260008082016000613a4a9190614086565b600182016000613a5a9190614086565b60028201600090556003820160006101000a81549060ff02191690556003820160016101000a81549073ffffffffffffffffffffffffffffffffffffffff02191690556004820160009055505060005b600c80549050811015613c06576000600c8281548110613acd57613acc614e90565b5b9060005260206000200160009054906101000a900473ffffffffffffffffffffffffffffffffffffffff1690506000600a60008373ffffffffffffffffffffffffffffffffffffffff1673ffffffffffffffffffffffffffffffffffffffff16815260200190815260200160002060006101000a81548160ff021916908315150217905550600860008273ffffffffffffffffffffffffffffffffffffffff1673ffffffffffffffffffffffffffffffffffffffff168152602001908152602001600020600080820160009055600182016000613baa9190614086565b600282016000613bba9190614086565b6003820160006101000a81549060ff02191690556003820160016101000a81549060ff02191690556003820160026101000a81549060ff02191690555050508080600101915050613aaa565b50600c6000613c1591906140c6565b565b600b8181548110613c2757600080fd5b906000526020600020016000915054906101000a900473ffffffffffffffffffffffffffffffffffffffff1681565b6060600c805480602002602001604051908101604052809291908181526020018280548015613cda57602002820191906000526020600020905b8160009054906101000a900473ffffffffffffffffffffffffffffffffffffffff1673ffffffffffffffffffffffffffffffffffffffff1681526020019060010190808311613c90575b5050505050905090565b600a6020528060005260406000206000915054906101000a900460ff1681565b60076020528060005260406000206000915090508060000160009054906101000a900473ffffffffffffffffffffffffffffffffffffffff1690806001018054613d4d90614f51565b80601f0160208091040260200160405190810160405280929190818152602001828054613d7990614f51565b8015613dc65780601f10613d9b57610100808354040283529160200191613dc6565b820191906000526020600020905b815481529060010190602001808311613da957829003601f168201915b505050505090806002018054613ddb90614f51565b80601f0160208091040260200160405190810160405280929190818152602001828054613e0790614f51565b8015613e545780601f10613e2957610100808354040283529160200191613e54565b820191906000526020600020905b815481529060010190602001808311613e3757829003601f168201915b5050505050908060030160009054906101000a900460ff16905084565b60096020528060005260406000206000915090508060000160009054906101000a900473ffffffffffffffffffffffffffffffffffffffff1690806001018054613eba90614f51565b80601f0160208091040260200160405190810160405280929190818152602001828054613ee690614f51565b8015613f335780601f10613f0857610100808354040283529160200191613f33565b820191906000526020600020905b815481529060010190602001808311613f1657829003601f168201915b505050505090806002018054613f4890614f51565b80601f0160208091040260200160405190810160405280929190818152602001828054613f7490614f51565b8015613fc15780601f10613f9657610100808354040283529160200191613fc1565b820191906000526020600020905b815481529060010190602001808311613fa457829003601f168201915b5050505050908060030160009054906101000a900460ff16905084565b600080600090505b600d8054905081101561407b578273ffffffffffffffffffffffffffffffffffffffff16600d828154811061401e5761401d614e90565b5b9060005260206000200160009054906101000a900473ffffffffffffffffffffffffffffffffffffffff1673ffffffffffffffffffffffffffffffffffffffff160361406e576001915050614081565b8080600101915050613fe6565b50600090505b919050565b50805461409290614f51565b6000825580601f106140a457506140c3565b601f0160209004906000526020600020908101906140c29190614163565b5b50565b50805460008255906000526020600020908101906140e49190614163565b50565b6040518060c001604052806000815260200160608152602001606081526020016000151581526020016000151581526020016000151581525090565b6040518060800160405280600073ffffffffffffffffffffffffffffffffffffffff16815260200160608152602001606081526020016000151581525090565b5b8082111561417c576000816000905550600101614164565b5090565b6000604051905090565b600080fd5b600080fd5b600080fd5b600080fd5b6000601f19601f8301169050919050565b7f4e487b7100000000000000000000000000000000000000000000000000000000600052604160045260246000fd5b6141e78261419e565b810181811067ffffffffffffffff82111715614206576142056141af565b5b80604052505050565b6000614219614180565b905061422582826141de565b919050565b600067ffffffffffffffff821115614245576142446141af565b5b61424e8261419e565b9050602081019050919050565b82818337600083830152505050565b600061427d6142788461422a565b61420f565b90508281526020810184848401111561429957614298614199565b5b6142a484828561425b565b509392505050565b600082601f8301126142c1576142c0614194565b5b81356142d184826020860161426a565b91505092915050565b6000819050919050565b6142ed816142da565b81146142f857600080fd5b50565b60008135905061430a816142e4565b92915050565b6000806000606084860312156143295761432861418a565b5b600084013567ffffffffffffffff8111156143475761434661418f565b5b614353868287016142ac565b935050602084013567ffffffffffffffff8111156143745761437361418f565b5b614380868287016142ac565b9250506040614391868287016142fb565b9150509250925092565b6143a4816142da565b82525050565b600081519050919050565b600082825260208201905092915050565b60005b838110156143e45780820151818401526020810190506143c9565b60008484015250505050565b60006143fb826143aa565b61440581856143b5565b93506144158185602086016143c6565b61441e8161419e565b840191505092915050565b60008115159050919050565b61443e81614429565b82525050565b600060c08301600083015161445c600086018261439b565b506020830151848203602086015261447482826143f0565b9150506040830151848203604086015261448e82826143f0565b91505060608301516144a36060860182614435565b5060808301516144b66080860182614435565b5060a08301516144c960a0860182614435565b508091505092915050565b600060208201905081810360008301526144ee8184614444565b905092915050565b600073ffffffffffffffffffffffffffffffffffffffff82169050919050565b6000614521826144f6565b9050919050565b61453181614516565b811461453c57600080fd5b50565b60008135905061454e81614528565b92915050565b60006020828403121561456a5761456961418a565b5b60006145788482850161453f565b91505092915050565b61458a81614429565b82525050565b60006020820190506145a56000830184614581565b92915050565b6000602082840312156145c1576145c061418a565b5b60006145cf848285016142fb565b91505092915050565b6145e181614516565b82525050565b60006020820190506145fc60008301846145d8565b92915050565b6000819050919050565b61461581614602565b811461462057600080fd5b50565b6000813590506146328161460c565b92915050565b60006020828403121561464e5761464d61418a565b5b600061465c84828501614623565b91505092915050565b60008060006060848603121561467e5761467d61418a565b5b600061468c868287016142fb565b935050602084013567ffffffffffffffff8111156146ad576146ac61418f565b5b6146b9868287016142ac565b925050604084013567ffffffffffffffff8111156146da576146d961418f565b5b6146e6868287016142ac565b9150509250925092565b6146f9816142da565b82525050565b600082825260208201905092915050565b600061471b826143aa565b61472581856146ff565b93506147358185602086016143c6565b61473e8161419e565b840191505092915050565b600060c08201905061475e60008301896146f0565b81810360208301526147708188614710565b905081810360408301526147848187614710565b90506147936060830186614581565b6147a06080830185614581565b6147ad60a0830184614581565b979650505050505050565b600080604083850312156147cf576147ce61418a565b5b600083013567ffffffffffffffff8111156147ed576147ec61418f565b5b6147f9858286016142ac565b925050602083013567ffffffffffffffff81111561481a5761481961418f565b5b614826858286016142ac565b9150509250929050565b61483981614602565b82525050565b60006020820190506148546000830184614830565b92915050565b6000819050919050565b61486d8161485a565b82525050565b600060a082019050818103600083015261488d8188614710565b905081810360208301526148a18187614710565b90506148b060408301866146f0565b6148bd6060830185614864565b6148ca6080830184614581565b9695505050505050565b600060208201905081810360008301526148ee8184614710565b905092915050565b600081519050919050565b600082825260208201905092915050565b6000819050602082019050919050565b61492b81614516565b82525050565b60006080830160008301516149496000860182614922565b506020830151848203602086015261496182826143f0565b9150506040830151848203604086015261497b82826143f0565b91505060608301516149906060860182614435565b508091505092915050565b60006149a78383614931565b905092915050565b6000602082019050919050565b60006149c7826148f6565b6149d18185614901565b9350836020820285016149e385614912565b8060005b85811015614a1f5784840389528151614a00858261499b565b9450614a0b836149af565b925060208a019950506001810190506149e7565b50829750879550505050505092915050565b60006020820190508181036000830152614a4b81846149bc565b905092915050565b600060c0820190508181036000830152614a6d8189614710565b90508181036020830152614a818188614710565b9050614a9060408301876146f0565b614a9d6060830186614581565b614aaa60808301856145d8565b614ab760a0830184614864565b979650505050505050565b600081519050919050565b600082825260208201905092915050565b6000819050602082019050919050565b6000614afa8383614922565b60208301905092915050565b6000602082019050919050565b6000614b1e82614ac2565b614b288185614acd565b9350614b3383614ade565b8060005b83811015614b64578151614b4b8882614aee565b9750614b5683614b06565b925050600181019050614b37565b5085935050505092915050565b600081519050919050565b600082825260208201905092915050565b6000819050602082019050919050565b6000614ba9838361439b565b60208301905092915050565b6000602082019050919050565b6000614bcd82614b71565b614bd78185614b7c565b9350614be283614b8d565b8060005b83811015614c13578151614bfa8882614b9d565b9750614c0583614bb5565b925050600181019050614be6565b5085935050505092915050565b600081519050919050565b600082825260208201905092915050565b6000819050602082019050919050565b6000614c5883836143f0565b905092915050565b6000602082019050919050565b6000614c7882614c20565b614c828185614c2b565b935083602082028501614c9485614c3c565b8060005b85811015614cd05784840389528151614cb18582614c4c565b9450614cbc83614c60565b925060208a01995050600181019050614c98565b50829750879550505050505092915050565b60006080820190508181036000830152614cfc8187614b13565b90508181036020830152614d108186614bc2565b90508181036040830152614d248185614c6d565b90508181036060830152614d388184614c6d565b905095945050505050565b60006020820190508181036000830152614d5d8184614b13565b905092915050565b6000608082019050614d7a60008301876145d8565b8181036020830152614d8c8186614710565b90508181036040830152614da08185614710565b9050614daf6060830184614581565b95945050505050565b7f4e6f7420617574686f72697a6564000000000000000000000000000000000000600082015250565b6000614dee600e836146ff565b9150614df982614db8565b602082019050919050565b60006020820190508181036000830152614e1d81614de1565b9050919050565b7f54656e64657220616c7265616479206f70656e00000000000000000000000000600082015250565b6000614e5a6013836146ff565b9150614e6582614e24565b602082019050919050565b60006020820190508181036000830152614e8981614e4d565b9050919050565b7f4e487b7100000000000000000000000000000000000000000000000000000000600052603260045260246000fd5b7f4e487b7100000000000000000000000000000000000000000000000000000000600052601160045260246000fd5b6000614ef9826142da565b9150614f04836142da565b9250828201905080821115614f1c57614f1b614ebf565b5b92915050565b7f4e487b7100000000000000000000000000000000000000000000000000000000600052602260045260246000fd5b60006002820490506001821680614f6957607f821691505b602082108103614f7c57614f7b614f22565b5b50919050565b60008190508160005260206000209050919050565b60006020601f8301049050919050565b600082821b905092915050565b600060088302614fe47fffffffffffffffffffffffffffffffffffffffffffffffffffffffffffffffff82614fa7565b614fee8683614fa7565b95508019841693508086168417925050509392505050565b6000819050919050565b600061502b615026615021846142da565b615006565b6142da565b9050919050565b6000819050919050565b61504583615010565b61505961505182615032565b848454614fb4565b825550505050565b600090565b61506e615061565b61507981848461503c565b505050565b5b8181101561509d57615092600082615066565b60018101905061507f565b5050565b601f8211156150e2576150b381614f82565b6150bc84614f97565b810160208510156150cb578190505b6150df6150d785614f97565b83018261507e565b50505b505050565b600082821c905092915050565b6000615105600019846008026150e7565b1980831691505092915050565b600061511e83836150f4565b9150826002028217905092915050565b615137826143aa565b67ffffffffffffffff8111156151505761514f6141af565b5b61515a8254614f51565b6151658282856150a1565b600060209050601f8311600181146151985760008415615186578287015190505b6151908582615112565b8655506151f8565b601f1984166151a686614f82565b60005b828110156151ce578489015182556001820191506020850194506020810190506151a9565b868310156151eb57848901516151e7601f8916826150f4565b8355505b6001600288020188555050505b505050505050565b6000608082019050818103600083015261521a8187614710565b9050818103602083015261522e8186614710565b905061523d60408301856146f0565b61524a6060830184614864565b95945050505050565b7f436f6e74726163746f72206e6f74207265676973746572656400000000000000600082015250565b60006152896019836146ff565b915061529482615253565b602082019050919050565b600060208201905081810360008301526152b88161527c565b9050919050565b7f4e6f20626964207375626d697474656400000000000000000000000000000000600082015250565b60006152f56010836146ff565b9150615300826152bf565b602082019050919050565b60006020820190508181036000830152615324816152e8565b9050919050565b7f436f6e74726163746f72206e6f7420666f756e64000000000000000000000000600082015250565b60006153616014836146ff565b915061536c8261532b565b602082019050919050565b6000602082019050818103600083015261539081615354565b9050919050565b60006060820190506153ac60008301866145d8565b81810360208301526153be8185614710565b905081810360408301526153d28184614710565b9050949350505050565b7f54656e64657220636c6f73656400000000000000000000000000000000000000600082015250565b6000615412600d836146ff565b915061541d826153dc565b602082019050919050565b6000602082019050818103600083015261544181615405565b9050919050565b7f42696420616c72656164792077697468647261776e0000000000000000000000600082015250565b600061547e6015836146ff565b915061548982615448565b602082019050919050565b600060208201905081810360008301526154ad81615471565b9050919050565b60006154bf826142da565b91506154ca836142da565b92508282039050818111156154e2576154e1614ebf565b5b92915050565b7f4e487b7100000000000000000000000000000000000000000000000000000000600052603160045260246000fd5b7f4f6e6c79206f776e65722063616e207375626d697420636f6d6d69746d656e74600082015250565b600061554d6020836146ff565b915061555882615517565b602082019050919050565b6000602082019050818103600083015261557c81615540565b9050919050565b7f42696420616c7265616479207375626d69747465640000000000000000000000600082015250565b60006155b96015836146ff565b91506155c482615583565b602082019050919050565b600060208201905081810360008301526155e8816155ac565b9050919050565b600060408201905061560460008301856146f0565b81810360208301526156168184614710565b90509392505050565b7f526567697374726174696f6e207265717565737420616c72656164792073756260008201527f6d6974746564206f7220636f6e74726163746f7220616c72656164792072656760208201527f6973746572656400000000000000000000000000000000000000000000000000604082015250565b60006156a16047836146ff565b91506156ac8261561f565b606082019050919050565b600060208201905081810360008301526156d081615694565b9050919050565b7f4e6f206163746976652074656e64657200000000000000000000000000000000600082015250565b600061570d6010836146ff565b9150615718826156d7565b602082019050919050565b6000602082019050818103600083015261573c81615700565b9050919050565b6000815461575081614f51565b61575a81866146ff565b94506001821660008114615775576001811461578b576157be565b60ff1983168652811515602002860193506157be565b61579485614f82565b60005b838110156157b657815481890152600182019150602081019050615797565b808801955050505b50505092915050565b600060808201905081810360008301526157e18187615743565b905081810360208301526157f58186615743565b905061580460408301856146f0565b6158116060830184614864565b95945050505050565b7f4e6f206163746976652074656e646572206973206f70656e0000000000000000600082015250565b60006158506018836146ff565b915061585b8261581a565b602082019050919050565b6000602082019050818103600083015261587f81615843565b9050919050565b7f54656e646572206973206e6f7420636c6f736564207965740000000000000000600082015250565b60006158bc6018836146ff565b91506158c782615886565b602082019050919050565b600060208201905081810360008301526158eb816158af565b9050919050565b7f4e6f2076616c6964206e6f7469636520646f63756d656e7420617661696c616260008201527f6c65000000000000000000000000000000000000000000000000000000000000602082015250565b600061594e6022836146ff565b9150615959826158f2565b604082019050919050565b6000602082019050818103600083015261597d81615941565b9050919050565b600081905092915050565b600061599a826143aa565b6159a48185615984565b93506159b48185602086016143c6565b80840191505092915050565b60006159cc828561598f565b91506159d8828461598f565b91508190509392505050565b60006159ef826142da565b91507fffffffffffffffffffffffffffffffffffffffffffffffffffffffffffffffff8203615a2157615a20614ebf565b5b60018201905091905056fea2646970667358221220bb50ffa5d54fbaab97b6294d8738c8c2ba8008f27b757737a282f3e85d91b43464736f6c634300081b0033",
  "linkReferences": {},
  "deployedLinkReferences": {}
}